S01900006361725F61766F69645F70726F6A6563742E737265630D
S11300000C944D000C9441100C946A100C949310B1
S11300100C94C6150C944B150C946A000C949D1505
S11300200C946A000C9422150C9474150C94F91415
S11300300C946A000C946A000C946A000C946A0094
S11300400C946A000C946A000C946A000C946A0084
S11300500C946A009B01C1016202E10105022402C1
S113006043025F1364136A131A1470131A14761379
S11300707C1382138813A213A713AD132214B31392
S11300802214B913BF13C513CB13E013E513EB13F9
S1130090F113F713FD130314091411241FBECFE544
S11300A0D8E0DEBFCDBF11E0A0E6B0E0EAE3F4E4BF
S11300B002C005900D92AE36B107D9F721E0AEE645
S11300C0B1E001C01D92A73CB207E1F70E94C30D45
S11300D00C941B220C94000080917101823019F061
S11300E081E0809371010895109271010895AF9297
S11300F0BF92CF92DF92EF920F93CF93DF935B0186
S11301006A01E901011114C04E2D60E00E94E4046B
S11301104E2D60E0C5010E94E4044E2D60E0C6014E
S11301200E94E4044E2D60E0CE010E94E4044FC01E
S11301300130A1F44E2D61E00E94E4044E2D61E0F3
S1130140C5010E94E4044E2D61E0C6010E94E4044E
S11301504E2D61E0CE010E94E40439C00330A1F4C5
S11301604E2D61E00E94E4044E2D60E0C5010E9422
S1130170E4044E2D60E0C6010E94E4044E2D61E0CB
S1130180CE010E94E40423C00230A1F44E2D60E0AD
S11301900E94E4044E2D61E0C5010E94E4044E2D4A
S11301A061E0C6010E94E4044E2D60E0CE010E948D
S11301B0E4040DC0043059F40E943205C5010E94C4
S11301C03205C6010E943205CE010E943205DF913C
S11301D0CF910F91EF90DF90CF90BF90AF900895A3
S11301E00F931F93CF93DF931F92CDB7DEB78C018C
S11301F019820E949F0D80917101813049F41092FF
S1130200700110926F0182E08093710187E074C0E5
S1130210811106C01092700110926F0186E06CC0CB
S1130220F801808191818634910510F1209170014B
S113023021111EC010926E0180916F0181110AC0BC
S113024040E050E060EA70E482E00E94260C81E025
S113025080936F01BE016F5F7F4F82E00E944E0961
S11302608981813009F045C08093700185E044C0E4
S11302708634910550F020917001213031F41092B0
S11302806E0110926F0185E037C09C012E51310937
S11302902832310540F410926F0110926E011092D1
S11302A0700181E029C09C01245131092A303105B3
S11302B070F410926F011092700180916E018F5F43
S11302C080936E018430B9F410926E0115C0449786
S11302D040F41092700110926E0110926F0183E04D
S11302E00BC01092700110926E0110926F0188E0A1
S11302F003C080E001C082E090917101911101C0BE
S113030086E00F90DF91CF911F910F910895909106
S11303106200981709F4DBC080936200E0916100E9
S11303204E2F50E04730510508F0D1C0FA01E65D88
S1130330FF4F0C94C6218230A1F028F4882359F091
S1130340813061F0C4C08530A1F08630B1F08330D3
S113035009F0BDC00AC010926100B9C010926100DA
S1130360B6C083E080936100B2C084E080936100F2
S1130370AEC081E080936100AAC082E080936100F6
S1130380A6C0823091F028F4882341F0813051F0E6
S11303909EC0833071F0863081F099C081E08093F3
S11303A0610095C01092610092C083E08093610067
S11303B08EC084E0809361008AC082E080936100F3
S11303C086C0823091F028F4882349F0813051F0BE
S11303D07EC0843091F068F0863099F078C0109235
S11303E0610075C01092610072C083E08093610067
S11303F06EC084E0809361006AC085E080936100F0
S113040066C082E08093610062C0823089F028F483
S1130410882341F0813049F05AC0833069F0863036
S113042079F055C01092610052C0109261004FC023
S113043083E0809361004BC084E08093610047C0F7
S113044082E08093610043C0823089F028F48823DD
S113045041F0813049F03BC0833069F0863079F057
S113046036C01092610033C01092610030C083E046
S1130470809361002CC084E08093610028C082E0F6
S11304808093610024C0823089F028F4882341F0ED
S1130490813049F01CC0833069F0863079F017C090
S11304A01092610014C01092610011C083E0809327
S11304B061000DC084E08093610009C082E08093F4
S11304C0610005C0873019F486E080936100809153
S11304D06100089546EE50E062E080E00E947707F4
S11304E043EF50E063E081E00E94770740E050E88A
S11304F06BE375E482E00E948E090E94A0070895D0
S11305000E94BC100E94AC0667E082E00E948F0447
S113051063E081E00E94D60F63E080E00E94D60F82
S113052084E790E00E9423108CE690E00E942D1056
S113053042E063E081E00E94500D85E790E00E9474
S1130540B4048FE690E00E94B40489E690E00E942F
S1130550B40483E690E00E94B4040E946A0281E03D
S11305600E94081080E00E9408100895EF92FF9204
S11305701F93CF93DF93C82F7B01142FD22F809129
S113058060008C130E94A007C13069F446EE50E06D
S113059062E080E00E94770743EF50E063E081E08F
S11305A00E947707A8C0C33059F485E191E00E9406
S11305B0510741E251E060E081E00E9477079BC06F
S11305C0C43059F482E391E00E9451074EE351E0B4
S11305D060E081E00E9477078EC0C23011F54DEFD4
S11305E050E060E080E00E947707D33069F44CE487
S11305F051E060E081E00E9477074AE051E060E06A
S113060081E00E94770777C04CE451E060E081E02C
S11306100E9477074FE051E060E081E00E94770795
S11306206AC0C11168C040EE50E060E080E00E9402
S1130630770764E080E00E946407C7010E94820794
S113064083E591E00E94510746E551E06BE080E0CC
S11306500E947707812F90E00E94820749E551E0CC
S113066060E081E00E94770764E081E00E94640713
S1130670D23009F128F4DD2341F0D13089F03BC0B8
S1130680D33021F1D43069F136C08DE491E00E9479
S113069051074EE551E064E081E00E9477072BC0EA
S11306A08DE491E00E94510742E651E064E081E06C
S11306B00E94770720C08DE491E00E94510746E62E
S11306C051E064E081E00E94770715C08DE491E079
S11306D00E9451074AE651E064E081E00E947707F6
S11306E00AC08DE491E00E9451074FEC50E064E0B1
S11306F081E00E947707C0936000DF91CF911F9142
S1130700FF90EF9008951F93CF93DF9300D0CDB760
S1130710DEB719821A8220E040E060E070E082E0F7
S11307200E94B60240E050E060EA70E482E00E9479
S1130730260CBE016E5F7F4F82E00E944E0910E0DE
S113074024C0BE016E5F7F4F82E00E944E09AE015D
S11307504F5F5F4F67E082E00E949304898181309C
S113076009F41827113021F483E080937B0003C03F
S113077082E080937B0020917B002093720140E013
S113078060E070E082E00E94B6028A818130C9F69E
S11307900F900F90DF91CF911F910895CF92DF9228
S11307A0EF920F93CF93DF93EB016A01811114C091
S11307B00F2EFEE1EF2EF02D00E023E630E049E6B7
S11307C050E06FE670E085E790E00E9477008EE1EC
S11307D08883F60110829CC08130A1F40F2EF2E3CD
S11307E0EF2EF02D00E023E630E049E650E06FE61E
S11307F070E085E790E00E94770082E38883F60149
S1130800108286C08430A9F40F2EFEE1EF2EF02D65
S113081001E023E630E049E650E06FE670E085E76A
S113082090E00E9477008EE1888381E0F601808366
S11308306FC0833089F50F2EFAE0EF2EF02D009172
S11308407B0023E630E049E650E06FE670E085E7A0
S113085090E00E94770040E050E86BEB74E482E0A3
S11308600E948E09E12C04E023E630E049E650E0E2
S11308706FE670E085E790E00E94770040E050E882
S11308806BEB74E482E00E948E098AE08883809195
S11308907B00F60180833CC0853091F4188284E0AB
S11308A0FA01808324E0488160E070E00E94B6028F
S11308B040E050E060E470E482E00E949C0A28C0BA
S11308C08230C1F4E12C04E023E630E049E650E054
S11308D06FE670E085E790E00E947700188284E07C
S11308E0F601808324E0488160E070E083E00E94A8
S11308F0B6020EC0863061F40E94830340E050E0EB
S113090060E070E482E00E949C0A1882F601108282
S1130910DF91CF910F91EF90DF90CF90089540E059
S11309200E94E90D08950F931F93CF93DF931F92B5
S1130930CDB7DEB719824115510579F08A01AE01B0
S11309404F5F5F4F0E94F50E9981913019F4F801C1
S1130950908304C0F801108201C080E00F90DF9101
S1130960CF911F910F910895CF93DF93009711F1C9
S1130970EC01698141E088810E94E90D8130E1F454
S11309806B8141E08A810E94E90D8130B9F46D8167
S113099040E08C810E941108813091F440E069812B
S11309A088810E946F0E40E06B818A810E946F0EE5
S11309B081E007C080E005C080E003C080E001C0A2
S11309C081E0DF91CF9108950F931F93CF93009708
S11309D0F1F16330F0F54536F0F5242FC62F8C0184
S11309E044E050E060E070E080E00E945D08C111E6
S11309F00EC041E0F801618180810E946F0E40E0E9
S1130A00F801638182810E946F0E81E027C0C130AA
S1130A1071F440E0F801618180810E946F0E41E031
S1130A20F801638182810E946F0E81E017C0C23099
S1130A30A1F440E0F801618180810E946F0E40E0E2
S1130A40F801638182810E946F0E81E007C080E01B
S1130A5005C080E003C080E001C081E0CF911F9118
S1130A600F910895CF93DF93009769F0EC0140E074
S1130A70698188810E946F0E40E06B818A810E94A7
S1130A806F0E81E001C080E0DF91CF910895EF9275
S1130A90FF920F931F93CF93DF93CDB7DEB72997C0
S1130AA00FB6F894DEBF0FBECDBFFC012281283003
S1130AB008F04AC02381223008F048C03081333026
S1130AC008F046C04181433008F044C0311104C0ED
S1130AD010927D00F12C0DC0313029F430937D004B
S1130AE0FF24F39406C032E030937D006894FF2421
S1130AF0F1F8211104C06894EE24E1F804C00F2E2B
S1130B00F3E0EF2EF02D8C0149831A821C82FC0144
S1130B1082818D8381E08B83198618861F821E82D1
S1130B20818180937C00CE0101960E94C010F8015F
S1130B3081810E9437136E2D8F2D0E94D60F8F2D29
S1130B400E94081084E007C081E005C080E003C073
S1130B5083E001C083E029960FB6F894DEBF0FBE90
S1130B60CDBFDF91CF911F910F91FF90EF9008952A
S1130B709C0190917D00911105C0C9010E94231030
S1130B8084E00895913029F4C9010E942D1084E075
S1130B900895923029F4C9010E94371084E0089521
S1130BA083E00895823090F420917D00233080F416
S1130BB0811106C062E0822F0E94D60F84E008955E
S1130BC063E0822F0E94D60F84E0089580E00895A8
S1130BD082E008950097C1F020917C002330B0F4A6
S1130BE0BC01211105C080E00E944C1484E00895EA
S1130BF0213029F481E00E944C1484E0089582E0BD
S1130C000E944C1484E0089582E0089583E00895DE
S1130C1080917C00833048F581110CC00E94281417
S1130C2060E070E080E00E947F1280E00E94371351
S1130C3084E00895813061F40E94281460E070E03B
S1130C4081E00E947F1281E00E94371384E00895BE
S1130C5082E00E94281460E070E082E00E947F122B
S1130C6082E00E94371384E0089583E008951F937F
S1130C70CF93DF931F92CDB7DEB7182F198240E0D0
S1130C8061E080E00E946F0E40E062E080E00E943C
S1130C906F0E8FEC97E00197F1F700C0000041E080
S1130CA063E080E00E946F0E8FEC97E00197F1F70C
S1130CB000C00000BE016F5F7F4F80E00E94AF0F55
S1130CC069816F70812F807F682B698380E00E9427
S1130CD0950F8FEC97E00197F1F700C0000040E01A
S1130CE063E080E00E946F0E8FEC97E00197F1F7CC
S1130CF000C0000041E063E080E00E946F0E8FECD2
S1130D0097E00197F1F700C00000BE016F5F7F4FCD
S1130D1080E00E94AF0F20E1129FC001112469817D
S1130D206F70682B698380E00E94950F8FEC97E0C9
S1130D300197F1F700C0000040E063E080E00E940A
S1130D406F0E8FEC97E00197F1F700C000000F9051
S1130D50DF91CF911F91089541E061E080E00E940E
S1130D60E90D41E062E080E00E94E90D41E063E0CA
S1130D7080E00E94E90D41E064E080E00E94E90D1A
S1130D8041E065E080E00E94E90D41E066E080E03A
S1130D900E94E90D41E067E080E00E94E90D82E0F5
S1130DA00E94370688E20E9437068CE00E943706CC
S1130DB081E00E94370608951F93CF93DF931F921B
S1130DC0CDB7DEB7182F198241E061E080E00E94C0
S1130DD06F0E40E062E080E00E946F0E8FEC97E0BF
S1130DE00197F1F700C0000041E063E080E00E9459
S1130DF06F0E8FEC97E00197F1F700C00000BE0181
S1130E006F5F7F4F80E00E94AF0F69816F70812F09
S1130E10807F682B698380E00E94950F8FEC97E0B8
S1130E200197F1F700C0000040E063E080E00E9419
S1130E306F0E8FEC97E00197F1F700C0000041E0DE
S1130E4063E080E00E946F0E8FEC97E00197F1F76A
S1130E5000C00000BE016F5F7F4F80E00E94AF0FB3
S1130E6020E1129FC001112469816F70682B69838E
S1130E7080E00E94950F8FEC97E00197F1F700C096
S1130E80000040E063E080E00E946F0E8FEC97E08A
S1130E900197F1F700C000000F90DF91CF911F91EF
S1130EA008950F931F93CF938C01C0E003C00E9459
S1130EB0DC06CF5FF801EC0FF11D80818111F7CFC3
S1130EC0CF911F910F910895813039F058F08230FD
S1130ED031F0833031F061E005C0605C03C0605FD5
S1130EE001C0605B862F80680E9437060895CF9307
S1130EF0DF93EA010E946407CE010E945107DF914B
S1130F00CF910895CF93DF93CDB7DEB760970FB637
S1130F10F894DEBF0FBECDBF4AE050E0BE016F5F64
S1130F207F4F0E94DB21CE0101960E9451076096FB
S1130F300FB6F894DEBF0FBECDBFDF91CF910895F9
S1130F4081E00E9437060895CF92DF92EF92FF92DC
S1130F50CF93C0917C016C2F70E080E090E00E9400
S1130F60A4206B017C0120E030E048EC52E40E94B4
S1130F70FC1F8823BCF5CC23A9F160917F018091EB
S1130F8080010E94530F80917E010E942814809159
S1130F907D01811112C060917A0180917E010E94CD
S1130FA0AA12609175017091760180917E010E9470
S1130FB07F1281E080937D0110C06091790180915E
S1130FC07E010E94AA126091730170917401809154
S1130FD07E010E947F1210927D0180917E010E9409
S1130FE0371319C020E030E048EC52E4C701B601E1
S1130FF00E94FC1F811108C041E060917F01809133
S113100080010E946F0E07C040E060917F018091D3
S113101080010E946F0ECF91FF90EF90DF90CF90F0
S11310200895FF920F931F93CF93DF93CDB7DEB74D
S113103029970FB6F894DEBF0FBECDBF843060F59C
S1131040683060F5433060F5F42E062F182F809336
S1131050800160937F0140937E0149831D821A823F
S11310601C821B821F821E8219861886CE0101965D
S11310700E94C01040E064EA77E08F2D0E94EC12D9
S113108041E0602F812F0E94E90D40E0602F812F05
S11310900E946F0E81E005C080E003C080E001C0C3
S11310A080E029960FB6F894DEBF0FBECDBFDF9166
S11310B0CF911F910F91FF9008954F925F926F927D
S11310C07F928F929F92AF92BF92DF92EF92FF92A4
S11310D00F931F93CF93DF93CDB7DEB72A970FB645
S11310E0F894DEBF0FBECDBF1A8219821C821B8208
S11310F01E821D8220937C01833008F0B6C0411506
S113110051056105710509F4B2C0122F4A015B0152
S1131110D82E622F70E080E090E00E94A4202B0182
S11311203C0120E030E048EC52E40E94FC1F88239C
S11311300CF069C0112309F466C0C501B4010E9412
S1131140A2206F83788789879A879B01AC01C301AA
S1131150B2010E94592120E030E048EC52E40E94A0
S113116001204B015C019B01AC016F81788589856D
S11311709A850E948F1F2B013C018E010D5F1F4F2A
S113118021E04D2DC501B4010E94EF150E5F1F4FE4
S113119021E04D2DC301B2010E94EF154B815C810A
S11311A00F2EF5E7EF2EF1E0FF2EF02D95018401CF
S11311B061E08D2D0E943C1A4D815E810F2EF3E774
S11311C0EF2EF1E0FF2EF02D9301820161E08D2DD1
S11311D00E943C1A8D819E810E946109809379014D
S11311E08B819C810E94610980937A0160917301D3
S11311F0709174018D2D0E947F12609179018D2D63
S11312000E94AA122DC0C501B4010E94A2204B0164
S11312105C018E010F5F1F4F21E04D2D0E94EF15E1
S113122049815A810F2EF7E7EF2EF1E0FF2EF02DC2
S11312309501840161E08D2D0E943C1A89819A8177
S11312400E94610980937B0160917701709178011C
S11312508D2D0E947F1260917B018D2D0E94AA1218
S11312608D2D0E94371381E003C080E001C080E02F
S11312702A960FB6F894DEBF0FBECDBFDF91CF9193
S11312801F910F91FF90EF90DF90BF90AF909F90D0
S11312908F907F906F905F904F900895833068F4A3
S11312A06115710561F0E82FF0E0E856FE4F80818A
S11312B0DB018C93108283E0089580E0089582E03E
S11312C0089580329105E1F038F48130910521F1DF
S11312D098F0089799F01EC080389105A9F020F481
S11312E08034910579F016C0811521E0920771F0E0
S11312F08115944069F00EC080E0089582E008955D
S113130083E0089584E0089585E0089586E00895D3
S113131087E008958AE0089581E008958F929F926E
S1131320AF92BF92DF92EF92FF920F931F93CF93EE
S1131330DF93CDB7DEB72E970FB6F894DEBF0FBE9E
S1131340CDBF1A8219821C821B821D828E831F824A
S1131350198691E098871E861D86833008F0D5C0D3
S11313604A015B01D82E8E010F5F1F4F21E0482FE9
S1131370C501B4010E94EF15813009F0C8C049814C
S11313805A814C3D85E0580729F1CE0103967C0132
S11313909501840161E08D2D0E943C1A89819A8116
S11313A00E9461098A878B819C819C878B87CE01EF
S11313B006960E94C0108D2D0E943713AE014B5F1C
S11313C05F4F60E08D2D0E9476148D818823B1F3E8
S11313D083E0A0C080E094E00E9461098A871C86B3
S11313E01B86DD2019F092E0D91220C02FE632E1ED
S11313F043E052E4C501B4010E9401204B015C01A9
S11314000E9473208B0180E090E00E94A2209B0147
S1131410AC01C501B4010E948F1F2FE632E143E005
S113142052E40E9459214B015C0133C02FE632E1A2
S113143043E056E4C501B4010E9401204B015C0164
S11314400E9473208B0180E090E00E94A2209B0107
S1131450AC01C501B4010E948F1F2FE632E143E0C5
S113146056E40E9459214B015C0113C0CE0106963B
S11314700E94C0108D2D0E943713AE014B5F5F4F49
S113148060E08D2D0E9476149D819923B1F3015063
S113149011090115110551F720E030E0A901C5013A
S11314A0B4010E9454211816A4F58E010F5F1F4F3A
S11314B021E04D2DC501B4010E94EF1549815A81E7
S11314C0CE0103967C019501840161E08D2D0E947B
S11314D03C1A89819A810E9461098A878B819C8147
S11314E09C878B87CE0106960E94C0108D2D0E948A
S11314F03713AE014B5F5F4F60E08D2D0E94761471
S11315008D818823B1F383E005C080E003C080E0CF
S113151001C083E02E960FB6F894DEBF0FBECDBF98
S1131520DF91CF911F910F91FF90EF90DF90BF90CB
S1131530AF909F908F9008958F929F92AF92BF9299
S1131540DF92EF92FF920F931F93CF93DF93CDB768
S1131550DEB72E970FB6F894DEBF0FBECDBF1A824A
S113156019821C821B821D828E831F82198691E040
S113157098871E861D86833008F0D5C04A015B011A
S1131580D82E8E010F5F1F4F22E0482FC501B401F2
S11315900E94EF15813009F0C8C049815A814C3D41
S11315A085E0580729F1CE0103967C019501840159
S11315B062E08D2D0E943C1A89819A810E94610902
S11315C08A878B819C819C878B87CE0106960E949B
S11315D0C0108D2D0E943713AE014B5F5F4F60E04A
S11315E08D2D0E9476148D818823B1F383E0A0C0F1
S11315F080E094E00E9461098A871C861B86DD20B6
S113160019F092E0D91220C02DEB37E346E05DE3F8
S1131610C501B4010E9401204B015C010E947320AA
S11316208B0180E090E00E94A2209B01AC01C501E7
S1131630B4010E948F1F2DEB37E346E05DE30E9467
S113164059214B015C0133C02DEB37E346E051E4F3
S1131650C501B4010E9401204B015C010E9473206A
S11316608B0180E090E00E94A2209B01AC01C501A7
S1131670B4010E948F1F2DEB37E346E051E40E9432
S113168059214B015C0113C0CE0106960E94C01083
S11316908D2D0E943713AE014B5F5F4F60E08D2D9F
S11316A00E9476149D819923B1F30150110901150B
S11316B0110551F720E030E0A901C501B4010E94F1
S11316C054211816A4F58E010F5F1F4F22E04D2DF3
S11316D0C501B4010E94EF1549815A81CE010396D8
S11316E07C019501840162E08D2D0E943C1A898160
S11316F09A810E9461098A878B819C819C878B8750
S1131700CE0106960E94C0108D2D0E943713AE01A3
S11317104B5F5F4F60E08D2D0E9476148D8188238E
S1131720B1F383E005C080E003C080E001C083E042
S11317302E960FB6F894DEBF0FBECDBFDF91CF91CA
S11317401F910F91FF90EF90DF90BF90AF909F900B
S11317508F9008951F93CF93DF9380917E00282F5D
S113176030E0F901E757FE4F9081911117C00E94B4
S11317702814E0917E00F0E0EE0FFF1FED57FE4FBE
S11317800190F081E02D309709F00995E0917E00F9
S1131790F0E0E856FE4F81E0808354C0409181011F
S11317A0509182014F5F5F4F5093820140938101BA
S11317B0220F331FF901E955FE4F20813181421771
S11317C0530709F03FC00E9428141092820110921E
S11317D0810110917E00C12FD0E0FE01EE0FFF1FAA
S11317E0EE0FFF1FE556FE4F608171818281938168
S11317F020E030E0A9010E94542118161CF5CC0FFA
S1131800DD1FC457DE4F68817981812F0E947F12CA
S1131810C0917E00EC2FF0E0EE0FFF1FEE56FE4F5E
S1131820808191810E946109682F8C2F0E94AA12E5
S113183080917E000E943713E0917E00F0E0E7572C
S1131840FE4F1082DF91CF911F9108958F929F9246
S1131850AF92BF92DF92EF92FF920F931F93CF93B9
S1131860DF93CDB7DEB72D970FB6F894DEBF0FBE6A
S1131870CDBF1A8219821C821B82E0917E00F0E0A7
S1131880E856FE4F10828D831E8218861F821D86A5
S11318901C8680937E00833008F0D4C04A015B012B
S11318A0D82E8E010F5F1F4F22E0482FC501B401CF
S11318B00E94EF15813009F0C7C049815A814C3D1F
S11318C085E05807C1F0ED2DF0E0E757FE4F108298
S11318D0FE0133967F019501840162E08D2D0E9403
S11318E03C1A89819A810E94610989878B819C8134
S11318F09B878A8798C00D2D10E0F801E757FE4FAB
S113190081E0808380E094E00E94610989871B86DE
S11319101A86DD2019F0F2E0DF122FC02DEB37E339
S113192046E05DE3C501B4010E9401204B015C0166
S11319300E947320F801EE0FFF1FE955FE4F7183DB
S1131940608380E090E00E94A2209B01AC01C5016D
S1131950B4010E948F1F2DEB37E346E05DE30E9444
S11319605921F801EE0FFF1FEE0FFF1FE556FE4F42
S113197060837183828393832EC02DEB37E346E02B
S113198051E4C501B4010E9401204B015C010E9495
S11319907320F801EE0FFF1FE955FE4F718360833A
S11319A080E090E00E94A2209B01AC01C501B4013B
S11319B00E948F1F2DEB37E346E051E40E9459212A
S11319C0F801EE0FFF1FEE0FFF1FE556FE4F608379
S11319D07183828393837801EE0CFF1CC7018E56BA
S11319E09E4F4C01000F111F000F111FF801E55607
S11319F0FE4F5F016081718182819381840122E0C5
S1131A004D2D0E94EF15C70184579E4F7C01F501AF
S1131A100081118122813381F4014081518162E08E
S1131A208D2D0E943C1ACE0105960E94C01040E004
S1131A306AEA7BE08D2D0E94EC128D2D0E943713F3
S1131A4083E003C080E001C083E02D960FB6F894D4
S1131A50DEBF0FBECDBFDF91CF911F910F91FF90DD
S1131A60EF90DF90BF90AF909F908F9008958091FA
S1131A70B1018F5F8093B101813031F40E94080677
S1131A8080E00E94D2050895823049F48FEA91E003
S1131A900E94EA050E94080681E00E94D20508958A
S1131AA00F931F93CF93DF9300D000D0CDB7DEB751
S1131AB0843020F5683020F5433020F5062F182FA8
S1131AC0498381E08A8392E09B838C831093AE01E7
S1131AD06093AD01CE0101960E94470587E39DE026
S1131AE00E94B80541E0602F812F0E94E90D40E07B
S1131AF0602F812F0E946F0E80E005C081E003C03B
S1131B0081E001C081E00F900F900F900F90DF9162
S1131B10CF911F910F91089541E06091AD018091A3
S1131B20AE010E946F0E85E38A95F1F7000040E054
S1131B306091AD018091AE010E946F0E0895CF9324
S1131B40DF930097E1F0EC010E948C0D9091B101BC
S1131B509230E1F72091AF013091B001AFE9B6E4E2
S1131B600E94CC21929582958F7089279F70892736
S1131B700196998388831092B10180E001C081E0CD
S1131B80DF91CF910895CF93DF9300D000D0CDB7EC
S1131B90DEB71A82198284E08B831C820E94800241
S1131BA0CE0101960E94F0000E948701182FAE0119
S1131BB04D5F5F4FBE016C5F7F4F0E94CE031230BA
S1131BC079F369817A812B814C8180E00E94B6028D
S1131BD0E7CF843008F07BC0683008F07AC0423028
S1131BE008F079C0813011F130F08230D1F18330C6
S1131BF009F452C072C0413061F42AB381E090E02C
S1131C0002C0880F991F6A95E2F7822B8ABB81E094
S1131C1008952AB381E090E002C0880F991F6A9565
S1131C20E2F7809582238ABB81E00895413061F414
S1131C3027B381E090E002C0880F991F6A95E2F70C
S1131C40822B87BB81E0089527B381E090E002C036
S1131C50880F991F6A95E2F78095822387BB81E0FC
S1131C600895413061F424B381E090E002C0880F0C
S1131C70991F6A95E2F7822B84BB81E0089524B30F
S1131C8081E090E002C0880F991F6A95E2F7809581
S1131C90822384BB81E00895413061F421B381E063
S1131CA090E002C0880F991F6A95E2F7822B81BBEE
S1131CB081E0089521B381E090E002C0880F991F6C
S1131CC06A95E2F78095822381BB81E0089582E0E2
S1131CD0089583E0089584E0089581E008958430B0
S1131CE008F07BC0683008F07AC0423008F079C050
S1131CF0813011F130F08230D1F1833009F452C0D7
S1131D0072C0413061F42BB381E090E002C0880FCF
S1131D10991F6A95E2F7822B8BBB81E008952BB360
S1131D2081E090E002C0880F991F6A95E2F78095E0
S1131D3082238BBB81E00895413061F428B381E0B4
S1131D4090E002C0880F991F6A95E2F7822B88BB46
S1131D5081E0089528B381E090E002C0880F991FC4
S1131D606A95E2F78095822388BB81E0089541302B
S1131D7061F425B381E090E002C0880F991F6A9551
S1131D80E2F7822B85BB81E0089525B381E090E0E2
S1131D9002C0880F991F6A95E2F78095822385BB5C
S1131DA081E00895413061F422B381E090E002C003
S1131DB0880F991F6A95E2F7822B82BB81E0089510
S1131DC022B381E090E002C0880F991F6A95E2F780
S1131DD08095822382BB81E0089582E0089583E0A8
S1131DE0089580E0089581E00895843008F053C098
S1131DF0683008F052C04115510509F450C08130D3
S1131E00B9F028F0823029F18330A1F14AC089B3B6
S1131E1090E002C0959587956A95E2F780FF04C02B
S1131E2081E0FA0180830895FA01108281E0089527
S1131E3086B390E002C0959587956A95E2F780FF96
S1131E4004C081E0FA0180830895FA01108281E0E0
S1131E50089583B390E002C0959587956A95E2F75B
S1131E6080FF04C081E0FA0180830895FA011082A2
S1131E7081E0089580B390E002C0959587956A95B6
S1131E80E2F780FF04C081E0FA0180830895FA013B
S1131E90108281E0089582E0089583E0089580E04F
S1131EA0089581E008958430D0F56830D0F581300C
S1131EB091F028F08230D9F0833029F134C02BB36B
S1131EC081E090E002C0880F991F6A95E2F78227AB
S1131ED08BBB81E0089528B381E090E002C0880FB5
S1131EE0991F6A95E2F7822788BB81E0089525B39C
S1131EF081E090E002C0880F991F6A95E2F782277B
S1131F0085BB81E0089522B381E090E002C0880F90
S1131F10991F6A95E2F7822782BB81E0089582E0E7
S1131F20089583E0089581E008958430A0F4813019
S1131F3049F028F0823049F0833051F00EC06BBB79
S1131F4081E0089568BB81E0089565BB81E0089550
S1131F5062BB81E0089582E0089581E008958430B1
S1131F60F8F461157105F1F0813059F028F08230F0
S1131F7069F0833081F018C089B3FB01808381E06C
S1131F80089586B3FB01808381E0089583B3FB0148
S1131F90808381E0089580B3FB01808381E008950C
S1131FA082E0089580E0089581E00895833040F54B
S1131FB0643040F5811106C085B78C7F682B65BFFE
S1131FC083E00895813059F485B770E0660F771F78
S1131FD0660F771F837F682B65BF83E00895823087
S1131FE099F48EEF860F823088F424B730E4639F2F
S1131FF0C0011124922F9F7B892B84BF83E0089515
S113200080E0089581E0089581E0089581E00895D5
S11320108330A8F4811105C08BB780648BBF83E043
S11320200895813029F48BB780688BBF83E00895CD
S1132030823039F48BB780628BBF83E0089580E0EF
S1132040089583E00895009731F09093B701809349
S1132050B60183E0089582E00895009731F09093EB
S1132060B5018093B40183E0089582E00895009758
S113207031F09093B3018093B20183E0089582E03C
S113208008951F920F920FB60F9211242F933F932E
S11320904F935F936F937F938F939F93AF93BF936C
S11320A0EF93FF93E091B601F091B701309709F0F7
S11320B00995FF91EF91BF91AF919F918F917F917E
S11320C06F915F914F913F912F910F900FBE0F90A1
S11320D01F9018951F920F920FB60F9211242F93F1
S11320E03F934F935F936F937F938F939F93AF939C
S11320F0BF93EF93FF93E091B401F091B501309752
S113210009F00995FF91EF91BF91AF919F918F9144
S11321107F916F915F914F913F912F910F900FBEDF
S11321200F901F9018951F920F920FB60F921124C3
S11321302F933F934F935F936F937F938F939F93CB
S1132140AF93BF93EF93FF93E091B201F091B3018A
S1132150309709F00995FF91EF91BF91AF919F914D
S11321608F917F916F915F914F913F912F910F903C
S11321700FBE0F901F9018958FB780688FBF08957A
S1132180FC01892B09F495C18081833008F093C147
S11321909181923008F091C19281923008F08FC100
S11321A09381943008F08DC194819A3008F08BC1EA
S11321B081117DC083B7806883BF8181882319F032
S11321C0813041F00DC083B78F7B83BF83B7877F96
S11321D083BF06C083B78F7B83BF83B7886083BF09
S11321E08381813069F028F08230A1F08330E1F0FE
S11321F024C083B78F7E83BF83B78F7D83BF1DC009
S113220087B3886087BB83B7806183BF83B78F7DC3
S113221083BF13C087B3886087BB83B78F7E83BFB8
S113222083B7806283BF09C087B3886087BB83B7E5
S1132230806183BF83B7806283BF8481833009F464
S113224044C1853009F443C1A081B0E0A158BF4F17
S11322508C93828181110BC08181811104C089B763
S1132260816089BF0AC089B7826089BF06C089B707
S11322708E7F89BF89B78D7F89BF858196818F3F86
S1132280910511F008F025C1278130852F3F3105D4
S113229011F008F020C12181211104C082BF1CBEAD
S11322A086E024C112BE87818CBF86E01FC18130C5
S11322B009F085C08FB588608FBD8FB584608FBDF0
S11322C08181882319F0813071F019C08FB58E7F18
S11322D08FBD8FB58D7F8FBD8EB5877F8EBD8EB53B
S11322E08F7E8EBD0CC08FB58E7F8FBD8FB58D7FD9
S11322F08FBD8EB588608EBD8EB58F7E8EBD838179
S1132300813069F028F08230A1F08330E1F024C0FC
S11323108FB58F7B8FBD8FB58F778FBD1DC081B378
S1132320806281BB8FB580648FBD8FB58F778FBD81
S113233013C081B3806281BB8FB58F7B8FBD8FB596
S113234080688FBD09C081B3806281BB8FB5806412
S11323508FBD8FB580688FBD8481833009F4BDC083
S1132360853009F4BCC0A081B0E0A158BF4F8C9364
S1132370828181110BC08181811104C089B784607D
S113238089BF0AC089B7806189BF06C089B78B7FBE
S113239089BF89B78F7E89BF8181811108C08581FA
S11323A096819DBD8CBD1BBC1ABC86E09FC01DBC24
S11323B01CBC878190859BBD8ABD86E097C085B58E
S11323C0806885BD8181882319F0813041F00DC07A
S11323D085B58F7B85BD85B5877F85BD06C085B5F1
S11323E08F7B85BD85B5886085BD8381813069F02B
S11323F028F08230A1F08330E1F024C085B58F7ECF
S113240085BD85B58F7D85BD1DC081B3806881BBC9
S113241085B5806185BD85B58F7D85BD13C081B3CC
S1132420806881BB85B58F7E85BD85B5806285BD9D
S113243009C081B3806881BB85B5806185BD85B5E0
S1132440806285BD848198EF980F923008F449C06A
S1132450A081B0E0A158BF4F8C93828181110BC041
S11324608181811104C089B7806489BF0AC089B79A
S1132470806889BF06C089B78F7B89BF89B78F778A
S113248089BF858196818F3F910509F060F5278189
S113249030852F3F310509F040F52181211104C019
S11324A084BD13BC86E022C014BC878183BD86E052
S11324B01DC085E01BC080E019C081E017C082E028
S11324C015C083E013C084E011C084E00FC084E031
S11324D00DC085E00BC085E009C084E007C084E03E
S11324E005C084E003C085E001C085E0863031F496
S11324F0E081F0E0EC53FE4F91E090830895833047
S1132500F8F4E82FF0E0EC53FE4F90819130D1F4D1
S1132510813059F018F0823061F016C06F3F7105B8
S113252009F0A0F462BF86E008957DBD6CBD86E02D
S113253008956F3F710509F058F464BD86E008956D
S113254080E0089588E0089586E0089585E0089580
S113255085E00895833070F5282F30E0F901EC53BD
S1132560FE4F9081913041F56A3040F5813071F031
S113257018F08230A9F024C0633021F1653021F1D4
S1132580F901E158FF4F608386E008956330F1F06C
S11325906530F1F0F901E158FF4F608386E008955A
S11325A088EF860F8230B0F0F901E158FF4F608365
S11325B086E0089580E0089588E0089584E0089511
S11325C086E0089584E0089584E0089584E0089501
S11325D084E0089584E008958330D8F54230D8F536
S11325E061157105D1F18130A1F018F0823009F143
S11325F036C0411106C07093C3016093C20186E0E6
S11326000895413071F57093BD016093BC0186E07B
S11326100895411106C07093C1016093C00186E022
S11326200895413001F57093BB016093BA0186E0CF
S11326300895411106C07093BF016093BE0186E006
S11326400895413091F47093B9016093B80186E024
S1132650089580E0089581E0089585E0089586E076
S1132660089586E0089586E0089586E0089583300D
S113267008F0D4C0E82FF0E0EC53FE4F9081913085
S113268009F0CEC0813009F448C020F0823009F44A
S113269087C0C8C080917F008A3008F0C5C08330ED
S11326A009F4C4C0853009F4C3C090E08A309105B0
S11326B008F0C0C0FC01EF5CFF4F0C94C62183B747
S11326C0887F83BF86E0089583B7887F816083BF56
S11326D086E0089583B7887F826083BF86E008958B
S11326E083B7887F836083BF86E0089583B7887F3C
S11326F0846083BF86E0089583B7887F856083BF45
S113270086E0089583B7887F866083BF86E0089556
S113271083B7876083BF86E00895809180008A3004
S113272008F08AC0833009F489C0853009F488C070
S113273090E08A30910508F085C0FC01E55CFF4F0C
S11327400C94C6218EB5887F8EBD86E008958EB523
S1132750887F81608EBD86E008958EB5887F826013
S11327608EBD86E008958EB5887F83608EBD86E039
S113277008958EB5887F84608EBD86E008958EB5F9
S1132780887F85608EBD86E008958EB5887F8660DB
S11327908EBD86E008958EB587608EBD86E008956F
S11327A0E0918100E83008F04FC08E2F90E088302F
S11327B0910508F04BC0FC01EB5BFF4F0C94C62164
S11327C085B5887F85BD86E0089585B5887F81605D
S11327D085BD86E0089585B5887F826085BD86E0E5
S11327E0089585B5887F836085BD86E0089585B5A5
S11327F0887F846085BD86E0089585B5887F85607F
S113280085BD86E0089585B5887F866085BD86E0B0
S1132810089585B5876085BD86E0089580E00895B4
S113282088E0089586E0089584E0089584E008959A
S113283084E0089586E0089584E0089584E008958E
S113284084E0089586E0089584E0089586E008957C
S11328508330E0F4E82FF0E0EC53FE4F90819130A8
S1132860B9F4813049F018F0823059F013C083B7BD
S1132870887F83BF86E008958EB5887F8EBD86E00D
S1132880089585B5887F85BD86E0089580E0089524
S113289088E0089586E00895833010F5E82FF0E08D
S11328A0EC53FE4F90819130E9F4813059F018F0E7
S11328B0823079F019C082B790E0FB019183808364
S11328C086E008958CB59DB5FB019183808386E0F5
S11328D0089584B590E0FB019183808386E0089598
S11328E080E0089588E0089586E00895833008F034
S11328F076C0623008F075C04115510509F473C003
S1132900E82FF0E0EC53FE4F9081913009F06DC058
S1132910813029F120F0823009F441C068C061118E
S11329200FC008B600FE08C081E0FA01808388B7B2
S1132930816088BF86E00895FA01108286E00895D8
S113294008B601FE08C081E0FA01808388B782607E
S113295088BF86E00895FA01108286E00895611127
S11329600FC008B602FE08C081E0FA01808388B770
S1132970846088BF86E00895FA01108286E0089595
S113298008B604FE08C081E0FA01808388B780613C
S113299088BF86E00895FA01108286E008956111E7
S11329A00FC008B606FE08C081E0FA01808388B72C
S11329B0806488BF86E00895FA01108286E0089555
S11329C008B607FE08C081E0FA01808388B78068F2
S11329D088BF86E00895FA01108286E0089580E0B9
S11329E0089581E0089585E0089588E0089586E0DB
S11329F008951F920F920FB60F9211242F933F93B5
S1132A004F935F936F937F938F939F93AF93BF93F2
S1132A10EF93FF93E091C201F091C301309709F065
S1132A200995FF91EF91BF91AF919F918F917F9104
S1132A306F915F914F913F912F910F900FBE0F9027
S1132A401F9018951F920F920FB60F9211242F9377
S1132A503F934F935F936F937F938F939F93AF9322
S1132A60BF93EF93FF93E091C001F091C1013097C0
S1132A7009F00995FF91EF91BF91AF919F918F91CB
S1132A807F916F915F914F913F912F910F900FBE66
S1132A900F901F9018951F920F920FB60F9211244A
S1132AA02F933F934F935F936F937F938F939F9352
S1132AB0AF93BF93EF93FF93E091BE01F091BF01F9
S1132AC0309709F00995FF91EF91BF91AF919F91D4
S1132AD08F917F916F915F914F913F912F910F90C3
S1132AE00FBE0F901F9018951F920F920FB60F9262
S1132AF011242F933F934F935F936F937F938F93FF
S1132B009F93AF93BF93EF93FF93E091BC01F09138
S1132B10BD01309709F00995FF91EF91BF91AF91F5
S1132B209F918F917F916F915F914F913F912F91E1
S1132B300F900FBE0F901F9018951F920F920FB613
S1132B400F9211242F933F934F935F936F937F932F
S1132B508F939F93AF93BF93EF93FF93E091BA0149
S1132B60F091BB01309709F00995FF91EF91BF9166
S1132B70AF919F918F917F916F915F914F913F9111
S1132B802F910F900FBE0F901F9018951F920F92C8
S1132B900FB60F9211242F933F934F935F936F932C
S1132BA07F938F939F93AF93BF93EF93FF93E091A2
S1132BB0B801F091B901309709F00995FF91EF91AF
S1132BC0BF91AF919F918F917F916F915F914F9141
S1132BD03F912F910F900FBE0F901F901895CF9299
S1132BE0DF92EF92FF920F931F936B017C012111EF
S1132BF065C1411169C020E030E040E057E40E9423
S1132C00FC1F18160CF459C020E030E040E052E4F8
S1132C10C701B6010E94FC1F181634F081E090E051
S1132C20F8019183808321C420E030E040E853E43C
S1132C30C701B6010E94FC1F18163CF088E090E022
S1132C40F8019183808381E010C420E030E040E00B
S1132C5055E4C701B6010E94FC1F18163CF080E43D
S1132C6090E0F8019183808381E0FFC320E030E0AD
S1132C7040E056E4C701B6010E94FC1F18163CF060
S1132C8080E091E0F8019183808381E0EEC320E04D
S1132C9030E040E057E4C701B6010E94FC1F18165B
S1132CA03CF080E094E0F8019183808381E0DDC30F
S1132CB0F8011182108281E0D8C38CED95E0F8010F
S1132CC09183808381E0D1C3413009F069C020E061
S1132CD030E040E05BE40E94FC1F18160CF459C07D
S1132CE020E030E040E056E4C701B6010E94FC1F3A
S1132CF0181634F081E090E0F80191838083B5C325
S1132D0020E030E040E857E4C701B6010E94FC1F10
S1132D1018163CF088E090E0F8019183808381E00C
S1132D20A4C320E030E040E059E4C701B6010E94AA
S1132D30FC1F18163CF080E490E0F8019183808336
S1132D4081E093C320E030E040E05AE4C701B601DB
S1132D500E94FC1F18163CF080E091E0F80191837A
S1132D60808381E082C320E030E040E05BE4C7017F
S1132D70B6010E94FC1F18163CF080E094E0F801B4
S1132D809183808381E071C3F8011182108281E014
S1132D906CC38CED95E0F8019183808381E065C379
S1132DA0423009F05BC320E030E040E057E40E9489
S1132DB0FC1F18160CF47BC020E030E040E052E425
S1132DC0C701B6010E94FC1F181634F081E090E0A0
S1132DD0F8019183808349C320E030E040E853E464
S1132DE0C701B6010E94FC1F18163CF088E090E071
S1132DF0F8019183808381E038C320E030E040E82B
S1132E0054E4C701B6010E94FC1F18163CF080E28E
S1132E1090E0F8019183808381E027C320E030E0D3
S1132E2040E055E4C701B6010E94FC1F18163CF0AF
S1132E3080E490E0F8019183808381E016C320E070
S1132E4030E040E855E4C701B6010E94FC1F1816A3
S1132E503CF080E890E0F8019183808381E005C331
S1132E6020E030E040E056E4C701B6010E94FC1FB8
S1132E7018163CF080E091E0F8019183808381E0B2
S1132E80F4C220E030E040E057E4C701B6010E94FC
S1132E90FC1F18163CF080E094E0F80191838083D5
S1132EA081E0E3C2F8011182108281E0DEC28CED80
S1132EB095E0F8019183808381E0D7C2213009F045
S1132EC065C1411169C02FE632E143E052E40E943A
S1132ED0FC1F18160CF459C02FE632E143E05DE301
S1132EE0C701B6010E94FC1F181634F081E090E07F
S1132EF0F80191838083B9C22FE632E143E85EE3AF
S1132F00C701B6010E94FC1F18163CF088E090E04F
S1132F10F8019183808381E0A8C22FE632E143E087
S1132F2050E4C701B6010E94FC1F18163CF080E46F
S1132F3090E0F8019183808381E097C22FE632E12B
S1132F4043E051E4C701B6010E94FC1F18163CF08F
S1132F5080E091E0F8019183808381E086C22FE6CE
S1132F6032E143E052E4C701B6010E94FC1F181687
S1132F703CF080E094E0F8019183808381E075C2A5
S1132F80F8011182108281E070C28CED95E0F801A5
S1132F909183808381E069C2413009F069C02FE6E2
S1132FA032E143E056E40E94FC1F18160CF459C0A9
S1132FB02FE632E143E051E4C701B6010E94FC1F51
S1132FC0181634F081E090E0F801918380834DC2BB
S1132FD02FE632E143E852E4C701B6010E94FC1F28
S1132FE018163CF088E090E0F8019183808381E03A
S1132FF03CC22FE632E143E054E4C701B6010E942B
S1133000FC1F18163CF080E490E0F8019183808363
S113301081E02BC22FE632E143E055E4C701B6015B
S11330200E94FC1F18163CF080E091E0F8019183A7
S1133030808381E01AC22FE632E143E056E4C701FF
S1133040B6010E94FC1F18163CF080E094E0F801E1
S11330509183808381E009C2F8011182108281E0AA
S113306004C28CED95E0F8019183808381E0FDC179
S1133070423009F0F5C12FE632E143E052E40E9408
S1133080FC1F18160CF47BC02FE632E143E05DE32D
S1133090C701B6010E94FC1F181634F081E090E0CD
S11330A0F80191838083E1C12FE632E143E85EE3D6
S11330B0C701B6010E94FC1F18163CF088E090E09E
S11330C0F8019183808381E0D0C12FE632E143E8A7
S11330D05FE3C701B6010E94FC1F18163CF080E2B2
S11330E090E0F8019183808381E0BFC12FE632E153
S11330F043E050E4C701B6010E94FC1F18163CF0DF
S113310080E490E0F8019183808381E0AEC12FE6F2
S113311032E143E850E4C701B6010E94FC1F1816CF
S11331203CF080E890E0F8019183808381E09DC1C8
S11331302FE632E143E051E4C701B6010E94FC1FCF
S113314018163CF080E091E0F8019183808381E0DF
S11331508CC12FE632E143E052E4C701B6010E947C
S1133160FC1F18163CF080E094E0F8019183808302
S113317081E07BC1F8011182108281E076C18CED7F
S113318095E0F8019183808381E06FC1223009F0DA
S113319069C1411169C02DEB37E346E05DE30E944C
S11331A0FC1F18160CF459C02DEB37E346E058E326
S11331B0C701B6010E94FC1F181634F081E090E0AC
S11331C0F8019183808351C12DEB37E346E859E33D
S11331D0C701B6010E94FC1F18163CF088E090E07D
S11331E0F8019183808381E040C12DEB37E346E011
S11331F05BE3C701B6010E94FC1F18163CF080E493
S113320090E0F8019183808381E02FC12DEB37E3B7
S113321046E05CE3C701B6010E94FC1F18163CF0AF
S113322080E091E0F8019183808381E01EC12DEB61
S113323037E346E05DE3C701B6010E94FC1F1816A0
S11332403CF080E094E0F8019183808381E00DC13B
S1133250F8011182108281E008C18CED95E0F8013B
S11332609183808381E001C1413009F069C02DEB75
S113327037E346E051E40E94FC1F18160CF459C0D1
S11332802DEB37E346E05CE3C701B6010E94FC1F67
S1133290181634F081E090E0F80191838083E5C052
S11332A02DEB37E346E85DE3C701B6010E94FC1F3E
S11332B018163CF088E090E0F8019183808381E067
S11332C0D4C02DEB37E346E05FE3C701B6010E94AB
S11332D0FC1F18163CF080E490E0F8019183808391
S11332E081E0C3C02DEB37E346E050E4C701B601EB
S11332F00E94FC1F18163CF080E091E0F8019183D5
S1133300808381E0B2C02DEB37E346E051E4C7018E
S1133310B6010E94FC1F18163CF080E094E0F8010E
S11333209183808381E0A1C0F8011182108281E041
S11333309CC08CED95E0F8019183808381E095C079
S1133340423009F091C02DEB37E346E05DE30E9483
S1133350FC1F18160CF47BC02DEB37E346E058E352
S1133360C701B6010E94FC1F181634F081E090E0FA
S1133370F8019183808379C02DEB37E346E859E364
S1133380C701B6010E94FC1F18163CF088E090E0CB
S1133390F8019183808381E068C02DEB37E346E830
S11333A05AE3C701B6010E94FC1F18163CF080E2E4
S11333B090E0F8019183808381E057C02DEB37E3DF
S11333C046E05BE3C701B6010E94FC1F18163CF0FF
S11333D080E490E0F8019183808381E046C02DEB86
S11333E037E346E85BE3C701B6010E94FC1F1816E9
S11333F03CF080E890E0F8019183808381E035C05F
S11334002DEB37E346E05CE3C701B6010E94FC1FE5
S113341018163CF080E091E0F8019183808381E00C
S113342024C02DEB37E346E05DE3C701B6010E94FB
S1133430FC1F18163CF080E094E0F801918380832F
S113344081E013C0F8011182108281E00EC08CED7E
S113345095E0F8019183808381E007C080E005C096
S113346080E003C080E001C080E01F910F91FF90D5
S1133470EF90DF90CF900895EF92FF920F931F93F8
S113348081118AC161117CC040345105A9F138F41D
S11334904130510569F048305105F9F06CC04115CF
S11334A081E05807F1F14115544009F44FC063C05D
S11334B0A901980160E070E080E092E40E948F1F0F
S11334C020E030E040E051E40E9459210E94732042
S11334D0F7017183608381E01DC5A901980160E053
S11334E070E080E893E40E948F1F0E947320F7012C
S11334F07183608381E00EC5A901980160E070E0EA
S113350080E095E40E948F1F20E030E040E05EE31D
S11335100E9459210E947320F7017183608381E026
S1133520F9C4A901980160E070E080E096E40E948B
S11335308F1F20E030E040E05DE30E9459210E94AB
S11335407320F7017183608381E0E4C4A9019801C9
S113355060E070E080E097E40E948F1F20E030E09C
S113356040E05CE30E9459210E947320F7017183BB
S1133570608381E0CFC4F7011182108280E0CAC465
S1133580613009F083C040345105E1F138F4413031
S1133590510571F04830510501F173C04115F1E056
S11335A05F0709F444C04115544009F455C069C08B
S11335B0A90198016FE672E183E09DE30E948F1FE9
S11335C02FE632E143E059E30E9401200E94732078
S11335D0F7017183608381E09DC4A90198016FE6BE
S11335E072E183E89EE30E948F1F2FE632E143E8F5
S11335F05AE30E9401200E947320F70171836083C3
S113360081E088C4A90198016FE672E183E090E447
S11336100E948F1F2FE632E143E05CE30E94012009
S11336200E947320F7017183608381E073C4A90150
S113363098016FE672E183E091E40E948F1F2FE608
S113364032E143E05DE30E9401200E947320F70110
S11336507183608381E05EC4A90198016FE672E121
S113366083E092E40E948F1F2FE632E143E05EE3A1
S11336700E9401200E947320F7017183608381E01E
S113368049C4F7011182108280E044C4623009F019
S11336903AC440345105E1F138F44130510571F038
S11336A04830510501F173C04115F1E05F0709F499
S11336B044C04115544009F455C069C0A90198019A
S11336C06DEB77E386E098E30E948F1F2DEB37E3E1
S11336D046E054E30E9401200E947320F7017183A5
S11336E0608381E017C4A90198016DEB77E386E854
S11336F099E30E948F1F2DEB37E346E855E30E94C0
S113370001200E947320F7017183608381E002C469
S1133710A90198016DEB77E386E09BE30E948F1F7C
S11337202DEB37E346E057E30E9401200E9473200B
S1133730F7017183608381E0EDC3A90198016DEB0A
S113374077E386E09CE30E948F1F2DEB37E346E08E
S113375058E30E9401200E947320F7017183608363
S113376081E0D8C3A90198016DEB77E386E09DE37E
S11337700E948F1F2DEB37E346E059E30E9401209E
S11337800E947320F7017183608381E0C3C3F70152
S11337901182108280E0BEC3813009F08AC16111B8
S11337A07CC040345105A9F138F44130510569F029
S11337B048305105F9F06CC04115F1E05F07F1F1B3
S11337C04115544009F44FC063C0A901980160E059
S11337D070E080E096E40E948F1F20E030E040E03B
S11337E051E40E9459210E947320F7017183608380
S11337F081E090C3A901980160E070E080E897E45B
S11338000E948F1F0E947320F7017183608381E0FF
S113381081C3A901980160E070E080E099E40E940E
S11338208F1F20E030E040E05EE30E9459210E94B7
S11338307320F7017183608381E06CC3A90198014F
S113384060E070E080E09AE40E948F1F20E030E0A6
S113385040E05DE30E9459210E947320F7017183C7
S1133860608381E057C3A901980160E070E080E0C3
S11338709BE40E948F1F20E030E040E05CE30E9464
S113388059210E947320F7017183608381E042C350
S1133890F7011182108280E03DC3613009F083C0DA
S11338A040345105E1F138F44130510571F04830AC
S11338B0510501F173C04115F1E05F0709F444C0FB
S11338C04115544009F455C069C0A90198016FE637
S11338D072E183E091E40E948F1F2FE632E143E01E
S11338E059E30E9401200E947320F70171836083D1
S11338F081E010C3A90198016FE672E183E892E4C4
S11339000E948F1F2FE632E143E85AE30E94012010
S11339100E947320F7017183608381E0FBC2A901D7
S113392098016FE672E183E094E40E948F1F2FE612
S113393032E143E05CE30E9401200E947320F7011E
S11339407183608381E0E6C2A90198016FE672E1A8
S113395083E095E40E948F1F2FE632E143E05DE3AC
S11339600E9401200E947320F7017183608381E02B
S1133970D1C2A90198016FE672E183E096E40E9446
S11339808F1F2FE632E143E05EE30E9401200E9494
S11339907320F7017183608381E0BCC2F701118257
S11339A0108280E0B7C2623009F0AFC240345105E2
S11339B0E1F138F44130510571F04830510501F11D
S11339C073C04115F1E05F0709F444C04115544048
S11339D009F455C069C0A90198016DEB77E386E04D
S11339E09CE30E948F1F2DEB37E346E054E30E94D3
S11339F001200E947320F7017183608381E08AC2F1
S1133A00A90198016DEB77E386E89DE30E948F1F7F
S1133A102DEB37E346E855E30E9401200E94732012
S1133A20F7017183608381E075C2A90198016DEB90
S1133A3077E386E09FE30E948F1F2DEB37E346E098
S1133A4057E30E9401200E947320F7017183608371
S1133A5081E060C2A90198016DEB77E386E090E410
S1133A600E948F1F2DEB37E346E058E30E940120AC
S1133A700E947320F7017183608381E04BC2A90126
S1133A8098016DEB77E386E091E40E948F1F2DEBA4
S1133A9037E346E059E30E9401200E947320F701B6
S1133AA07183608381E036C2F7011182108280E065
S1133AB031C2823009F02BC26111B1C040345105CA
S1133AC009F454C058F44830510561F140325105AD
S1133AD0C1F14130510509F09DC00FC04115F1E01D
S1133AE05F0709F46DC0411584E0580709F47DC0EF
S1133AF04038510509F08EC04EC0A901980160E01C
S1133B0070E080E092E40E948F1F20E030E040E00B
S1133B1051E40E9459210E947320F701718360834C
S1133B2081E0F8C1A901980160E070E080E893E4C5
S1133B300E948F1F0E947320F7017183608381E0CC
S1133B40E9C1A901980160E070E080E894E40E9472
S1133B508F1F20E030E040E85EE30E9459210E947C
S1133B607320F7017183608381E0D4C1A9019801B6
S1133B7060E070E080E095E40E948F1F20E030E078
S1133B8040E05EE30E9459210E947320F701718393
S1133B90608381E0BFC1A901980160E070E080E822
S1133BA095E40E948F1F20E030E040E85DE30E942E
S1133BB059210E947320F7017183608381E0AAC1B7
S1133BC0A901980160E070E080E096E40E948F1FF4
S1133BD020E030E040E05DE30E9459210E94732020
S1133BE0F7017183608381E095C1A901980160E0C8
S1133BF070E080E097E40E948F1F20E030E040E016
S1133C005CE30E9459210E947320F7017183608351
S1133C1081E080C1F7011182108280E07BC16130B4
S1133C2009F0B7C04034510509F45AC058F448307B
S1133C30510561F140325105F1F14130510509F06E
S1133C40A3C00FC04115F1E05F0709F473C041152B
S1133C5084E0580709F483C04038510509F094C042
S1133C6054C0A90198016FE672E183E09DE30E94CC
S1133C708F1F2FE632E143E059E30E9401200E94A6
S1133C807320F7017183608381E044C1A901980125
S1133C906FE672E183E89EE30E948F1F2FE632E114
S1133CA043E85AE30E9401200E947320F7017183C4
S1133CB0608381E02FC1A90198016FE672E183E876
S1133CC09FE30E948F1F2FE632E143E85BE30E94EB
S1133CD001200E947320F7017183608381E01AC17F
S1133CE0A90198016FE672E183E090E40E948F1FBE
S1133CF02FE632E143E05CE30E9401200E9473203E
S1133D00F7017183608381E005C1A90198016FE621
S1133D1072E183E890E40E948F1F2FE632E143E8CA
S1133D205CE30E9401200E947320F7017183608389
S1133D3081E0F0C0A90198016FE672E183E091E4AB
S1133D400E948F1F2FE632E143E05DE30E940120D1
S1133D500E947320F7017183608381E0DBC0A901B5
S1133D6098016FE672E183E092E40E948F1F2FE6D0
S1133D7032E143E05EE30E9401200E947320F701D8
S1133D807183608381E0C6C0F7011182108280E0F4
S1133D90C1C0623009F0BDC04034510509F45AC0B5
S1133DA058F44830510561F140325105F1F1413088
S1133DB0510509F0A3C00FC04115F1E05F0709F4F4
S1133DC073C0411584E0580709F483C04038510595
S1133DD009F094C054C0A90198016DEB77E386E023
S1133DE098E30E948F1F2DEB37E346E054E30E94D3
S1133DF001200E947320F7017183608381E08AC0EF
S1133E00A90198016DEB77E386E899E30E948F1F7F
S1133E102DEB37E346E855E30E9401200E9473200E
S1133E20F7017183608381E075C0A90198016DEB8E
S1133E3077E386E89AE30E948F1F2DEB37E346E889
S1133E4056E30E9401200E947320F701718360836E
S1133E5081E060C0A90198016DEB77E386E09BE304
S1133E600E948F1F2DEB37E346E057E30E940120A9
S1133E700E947320F7017183608381E04BC0A90124
S1133E8098016DEB77E386E89BE30E948F1F2DEB8F
S1133E9037E346E857E30E9401200E947320F701AC
S1133EA07183608381E036C0A90198016DEB77E3EB
S1133EB086E09CE30E948F1F2DEB37E346E058E336
S1133EC00E9401200E947320F7017183608381E0C6
S1133ED021C0A90198016DEB77E386E09DE30E9480
S1133EE08F1F2DEB37E346E059E30E9401200E9427
S1133EF07320F7017183608381E00CC0F7011182A4
S1133F00108280E007C081E005C081E003C080E04A
S1133F1001C081E01F910F91FF90EF9008955058D8
S1133F20BB27AA270E94A71F0C941A210E940C21C8
S1133F3038F00E94132120F039F49F3F19F426F43D
S1133F400C9409210EF4E095E7FB0C940321E92F6E
S1133F500E942B2158F3BA17620773078407950749
S1133F6020F079F4A6F50C944D210EF4E0950B2E77
S1133F70BA2FA02D0B01B90190010C01CA01A001B7
S1133F801124FF27591B99F0593F50F4503E68F112
S1133F901A16F040A22F232F342F4427585FF3CF53
S1133FA0469537952795A795F0405395C9F77EF424
S1133FB01F16BA0B620B730B840BBAF09150A1F06D
S1133FC0FF0FBB1F661F771F881FC2F70EC0BA0FF3
S1133FD0621F731F841F48F4879577956795B7957B
S1133FE0F7959E3F08F0B0CF9395880F08F0992776
S1133FF0EE0F9795879508950E94DF2008F481E0DD
S113400008950E9415200C941A210E94132158F03F
S11340100E940C2140F029F45F3F29F00C94032105
S113402051110C944E210C9409210E942B2168F308
S11340309923B1F3552391F3951B550BBB27AA275D
S113404062177307840738F09F5F5F4F220F331F97
S1134050441FAA1FA9F335D00E2E3AF0E0E832D05F
S113406091505040E695001CCAF72BD0FE2F29D062
S1134070660F771F881FBB1F261737074807AB0734
S1134080B0E809F0BB0B802DBF01FF2793585F4FA9
S11340903AF09E3F510578F00C9403210C944E2184
S11340A05F3FE4F3983ED4F3869577956795B7958B
S11340B0F7959F5FC9F7880F911D9695879597F996
S11340C00895E1E0660F771F881FBB1F621773070F
S11340D08407BA0720F0621B730B840BBA0BEE1F24
S11340E088F7E09508950E94332188F09F5798F04F
S11340F0B92F9927B751B0F0E1F0660F771F881FE9
S1134100991F1AF0BA95C9F714C0B13091F00E9402
S11341104D21B1E008950C944D21672F782F882705
S1134120B85F39F0B93FCCF3869577956795B39529
S1134130D9F73EF490958095709561957F4F8F4F98
S11341409F4F0895E89409C097FB3EF4909580959D
S1134150709561957F4F8F4F9F4F9923A9F0F92F49
S113416096E9BB279395F695879577956795B795C7
S1134170F111F8CFFAF4BB0F11F460FF1BC06F5FAD
S11341807F4F8F4F9F4F16C0882311F096E911C0BF
S1134190772321F09EE8872F762F05C0662371F0E0
S11341A096E8862F70E060E02AF09A95660F771FF4
S11341B0881FDAF7880F9695879597F90895990FD0
S11341C00008550FAA0BE0E8FEEF16161706E807DD
S11341D0F907C0F012161306E407F50798F0621BFE
S11341E0730B840B950B39F40A2661F0232B242BD3
S11341F0252B21F408950A2609F4A140A6958FEFF2
S1134200811D811D089597F99F6780E870E060E043
S113421008959FEF80EC089500240A94161617065B
S113422018060906089500240A94121613061406A3
S113423005060895092E0394000C11F4882352F006
S1134240BB0F40F4BF2B11F460FF04C06F5F7F4FBE
S11342508F4F9F4F089557FD9058440F551F59F0A5
S11342605F3F71F04795880F97FB991F61F09F3F5F
S113427079F087950895121613061406551FF2CF88
S11342804695F1DF08C0161617061806991FF1CFD8
S113429086957105610508940895E894BB276627FF
S11342A07727CB0197F908950E94DF2008F48FEF58
S11342B008950E946C210C941A210E940C2138F05C
S11342C00E94132120F0952311F00C9403210C94E7
S11342D0092111240C944E210E942B2170F3959FE7
S11342E0C1F3950F50E0551F629FF001729FBB27E9
S11342F0F00DB11D639FAA27F00DB11DAA1F649F85
S11343006627B00DA11D661F829F2227B00DA11D37
S1134310621F739FB00DA11D621F839FA00D611DBD
S1134320221F749F3327A00D611D231F849F600DDE
S1134330211D822F762F6A2F11249F5750409AF007
S1134340F1F088234AF0EE0FFF1FBB1F661F771F93
S1134350881F91505040A9F79E3F510580F00C945E
S113436003210C944E215F3FE4F3983ED4F38695E9
S113437077956795B795F795E7959F5FC1F7FE2BFE
S1134380880F911D9695879597F90895EE0FFF1F55
S11343900590F491E02D0994A29FB001B39FC00150
S11343A0A39F700D811D1124911DB29F700D811D5D
S11343B01124911D08954532510520F4423010F026
S11343C00C94E621FB011082CB010895BB274A30EF
S11343D031F4992322F4BDE2909581959F4F0C947A
S11343E0F221BB27FB015527AA27880F991FAA1F73
S11343F0A41710F0A41B83955051B9F7A05DAA33FC
S113440008F0A95DA193009779F7B111B1931192C6
S1134410CB010C940B22DC01FC01672F71917723F3
S1134420E1F7329704C07C916D9370836291AE176B
S10D4430BF07C8F30895F894FFCF06
S113443A050208030603070107030403050107022B
S113444A0002010107030003010107020303030A2F
S113445A0A0A646973743E37302C73703D3330250D
S113446A0037303E64697374616E63653E333000AD
S113447A33303E64697374616E63653E323000643E
S113448A697374616E63653C323000646973743EA7
S113449A37302C73703D353025004841524420533F
S11344AA544F50005354415254204556454E5400DB
S11344BA4469733D2000434152204F4253544143BF
S11344CA4C450041564F4944414E43450073657477
S11344DA204465662E20526F74004C45465400529F
S11344EA4947485400707265737320737461727417
S11344FA00746F2073746172742074686520636138
S113450A72006361722073746F7070656400666F01
S113451A722033207365636F6E6473002020202039
S113452A202000434D00533A006469723A0046570A
S111453A440042574400524854004C4654007A
S9030000FC
