:100000000C942A000C9465010C948E010C94B70199
:100010000C943C000C943C000C943C000C943C0070
:100020000C943C000C943C000C943C000C943C0060
:100030000C943C000C943C000C943C000C943C0050
:100040000C943C000C943C000C943C000C943C0040
:100050000C943C0011241FBECFE5D8E0DEBFCDBF1D
:1000600020E0A0E6B0E001C01D92A636B207E1F79D
:100070000E9443000C94E0010C94000060E080E0DA
:100080000E94E700089541E060E080E00E94610086
:100090008FB780688FBF60E080E00E9429018130C7
:1000A00029F460E080E00E94E70006C0833021F47C
:1000B00060E080E00E94E7008EE390E00E945B0138
:1000C000FFCF843008F07BC0683008F07AC042303F
:1000D00008F079C0813011F130F08230D1F18330F5
:1000E00009F452C072C0413061F42AB381E090E05B
:1000F00002C0880F991F6A95E2F7822B8ABB81E0C4
:1001000008952AB381E090E002C0880F991F6A9594
:10011000E2F7809582238ABB81E00895413061F443
:1001200027B381E090E002C0880F991F6A95E2F73B
:10013000822B87BB81E0089527B381E090E002C065
:10014000880F991F6A95E2F78095822387BB81E02B
:100150000895413061F424B381E090E002C0880F3B
:10016000991F6A95E2F7822B84BB81E0089524B33E
:1001700081E090E002C0880F991F6A95E2F78095B0
:10018000822384BB81E00895413061F421B381E092
:1001900090E002C0880F991F6A95E2F7822B81BB1D
:1001A00081E0089521B381E090E002C0880F991F9B
:1001B0006A95E2F78095822381BB81E0089582E011
:1001C000089583E0089584E0089581E008958430DF
:1001D000D0F56830D0F5813091F028F08230D9F038
:1001E000833029F134C02BB381E090E002C0880F46
:1001F000991F6A95E2F782278BBB81E0089528B3A7
:1002000081E090E002C0880F991F6A95E2F782278B
:1002100088BB81E0089525B381E090E002C0880F9B
:10022000991F6A95E2F7822785BB81E0089522B382
:1002300081E090E002C0880F991F6A95E2F782275B
:1002400082BB81E0089582E0089583E0089581E013
:100250000895833040F5643040F5811106C085B7BC
:100260008C7F682B65BF83E00895813059F485B792
:1002700070E0660F771F660F771F837F682B65BF5F
:1002800083E00895823099F48EEF860F823088F4EF
:1002900024B730E4639FC0011124922F9F7B892BE8
:1002A00084BF83E0089580E0089581E0089581E0AF
:1002B000089581E00895009731F090936500809350
:1002C000640083E0089582E008951F920F920FB6B4
:1002D0000F9211242F933F934F935F936F937F93CC
:1002E0008F939F93AF93BF93EF93FF93E09164003D
:1002F000F0916500309709F00995FF91EF91BF915A
:10030000AF919F918F917F916F915F914F913F91AD
:100310002F910F900FBE0F901F9018951F920F9264
:100320000FB60F9211242F933F934F935F936F93C8
:100330007F938F939F93AF93BF93EF93FF93E0913E
:100340006200F0916300309709F00995FF91EF91F9
:10035000BF91AF919F918F917F916F915F914F91DD
:100360003F912F910F900FBE0F901F9018951F92E5
:100370000F920FB60F9211242F933F934F935F93D9
:100380006F937F938F939F93AF93BF93EF93FF935D
:10039000E0916000F0916100309709F00995FF91BC
:1003A000EF91BF91AF919F918F917F916F915F91ED
:1003B0004F913F912F910F900FBE0F901F90189566
:0403C000F894FFCFDF
:00000001FF
