:100000000C9446000C9462090C948B090C94B4096E
:100010000C94E70E0C946C0E0C9463000C94BE0EC2
:100020000C9463000C94430E0C94950E0C941A0ED1
:100030000C9463000C9463000C9463000C946300B4
:100040000C9463000C9463000C9463000C946300A4
:100050000C946300800C850C8B0C3B0D910C3B0DBC
:10006000970C9D0CA30CA90CC30CC80CCE0C430D13
:10007000D40C430DDA0CE00CE60CEC0C010D060D73
:100080000C0D120D180D1E0D240D2A0D11241FBE6E
:10009000CFE5D8E0DEBFCDBF10E0A0E6B0E0ECE7F2
:1000A000F6E302C005900D92A637B107D9F720E01C
:1000B000A6E7B0E001C01D92AE39B207E1F70E9499
:1000C00023070C943C1B0C940000EF92FF920F93BB
:1000D0001F93CF93DF93CDB7DEB729970FB6F89470
:1000E000DEBF0FBECDBFFC012281283008F04AC020
:1000F0002381223008F048C03081333008F046C0F8
:100100004181433008F044C0311104C010926100B5
:10011000F12C0DC0313029F430936100FF24F394A9
:1001200006C032E0309361006894FF24F1F8211199
:1001300004C06894EE24E1F804C00F2EF3E0EF2E23
:10014000F02D8C0149831A821C82FC0182818D83EF
:1001500081E08B83198618861F821E82818180939D
:100160006000CE0101960E94E109F80181810E94A0
:10017000580C6E2D8F2D0E94F7088F2D0E94290993
:1001800084E007C081E005C080E003C083E001C0D7
:1001900083E029960FB6F894DEBF0FBECDBFDF9186
:1001A000CF911F910F91FF90EF9008959C01909136
:1001B0006100911105C0C9010E94440984E00895BD
:1001C000913029F4C9010E944E0984E008959230CB
:1001D00029F4C9010E94580984E0089583E0089534
:1001E000823090F420916100233080F4811106C0A8
:1001F00062E0822F0E94F70884E0089563E0822F76
:100200000E94F70884E0089580E0089582E0089550
:100210000097C1F0209160002330B0F4BC0121119F
:1002200005C080E00E946D0D84E00895213029F41E
:1002300081E00E946D0D84E0089582E00E946D0DC2
:1002400084E0089582E0089583E00895809160003D
:10025000833048F581110CC00E94490D60E070E0C8
:1002600080E00E94A00B80E00E94580C84E008957A
:10027000813061F40E94490D60E070E081E00E94ED
:10028000A00B81E00E94580C84E0089582E00E9457
:10029000490D60E070E082E00E94A00B82E00E94C5
:1002A000580C84E0089583E008951F93CF93DF9363
:1002B0001F92CDB7DEB7182F198240E061E081E0D0
:1002C0000E94EE0740E062E081E00E94EE078FECC2
:1002D00097E00197F1F700C0000041E063E081E0A2
:1002E0000E94EE078FEC97E00197F1F700C0000045
:1002F000BE016F5F7F4F80E00E94D00869816F7000
:10030000812F807F682B698380E00E94B6088FEC84
:1003100097E00197F1F700C0000040E063E081E062
:100320000E94EE078FEC97E00197F1F700C0000004
:1003300041E063E081E00E94EE078FEC97E00197D7
:10034000F1F700C00000BE016F5F7F4F80E00E94A8
:10035000D00820E1129FC001112469816F70682BC1
:10036000698380E00E94B6088FEC97E00197F1F76F
:1003700000C0000040E063E081E00E94EE078FECE7
:1003800097E00197F1F700C000000F90DF91CF9147
:100390001F91089541E061E081E00E94680741E01B
:1003A00062E081E00E94680741E063E081E00E9432
:1003B000680741E064E080E00E94680741E065E092
:1003C00080E00E94680741E066E080E00E946807E4
:1003D00041E067E080E00E94680782E00E945501EA
:1003E00088E20E9455018CE00E94550181E00E9444
:1003F000550108951F93CF93DF931F92CDB7DEB7BA
:10040000182F198241E061E081E00E94EE0740E090
:1004100062E081E00E94EE078FEC97E00197F1F730
:1004200000C0000041E063E081E00E94EE078FEC35
:1004300097E00197F1F700C00000BE016F5F7F4FAA
:1004400080E00E94D00869816F70812F807F682BC7
:10045000698380E00E94B6088FEC97E00197F1F77E
:1004600000C0000040E063E081E00E94EE078FECF6
:1004700097E00197F1F700C0000041E063E081E000
:100480000E94EE078FEC97E00197F1F700C00000A3
:10049000BE016F5F7F4F80E00E94D00820E1129F75
:1004A000C001112469816F70682B698380E00E940C
:1004B000B6088FEC97E00197F1F700C0000040E02C
:1004C00063E081E00E94EE078FEC97E00197F1F77F
:1004D00000C000000F90DF91CF911F9108950F93FE
:1004E0001F93CF938C01C0E003C00E94FA01CF5F3D
:1004F000F801EC0FF11D80818111F7CFCF911F9191
:100500000F910895813039F058F0823031F0833006
:1005100031F061E005C0605C03C0605F01C0605BFA
:10052000862F80680E9455010895CF93DF93CDB741
:10053000DEB760970FB6F894DEBF0FBECDBF4AE0BE
:1005400050E0BE016F5F7F4F0E94FC1ACE01019602
:100550000E946F0260960FB6F894DEBF0FBECDBF4B
:10056000DF91CF910895CF93C0917F006C2F70E001
:1005700080E090E00E94C51920E030E048EC52E4B1
:100580000E941D198823BCF5CC23A9F1609182003B
:10059000809183000E947408809181000E94490D1F
:1005A00080918000811112C060917D008091810056
:1005B0000E94CB0B6091780070917900809181004E
:1005C0000E94A00B81E08093800010C060917C00AD
:1005D000809181000E94CB0B609176007091770032
:1005E000809181000E94A00B109280008091810078
:1005F0000E94580C11C0C43641F441E06091820061
:10060000809183000E94EE0707C040E06091820065
:10061000809183000E94EE07CF910895FF920F937F
:100620001F93CF93DF93CDB7DEB729970FB6F8941A
:10063000DEBF0FBECDBF843060F5683060F543305B
:1006400060F5F42E062F182F8093830060938200AC
:100650004093810049831D821A821C821B821F8263
:100660001E8219861886CE0101960E94E10940E09B
:1006700063EB72E08F2D0E940D0C41E0602F812F03
:100680000E94680740E0602F812F0E94EE0781E002
:1006900005C080E003C080E001C080E029960FB66D
:1006A000F894DEBF0FBECDBFDF91CF911F910F91A8
:1006B000FF9008954F925F926F927F928F929F92D8
:1006C000AF92BF92DF92EF92FF920F931F93CF935F
:1006D000DF93CDB7DEB72A970FB6F894DEBF0FBE13
:1006E000CDBF1A8219821C821B821E821D8220931A
:1006F0007F00833008F0B6C04115510561057105D2
:1007000009F4B2C0122F4A015B01D82E622F70E0AB
:1007100080E090E00E94C5192B013C0120E030E010
:1007200048EC52E40E941D1988230CF069C0112383
:1007300009F466C0C501B4010E94C3196F837887AC
:1007400089879A879B01AC01C301B2010E947A1A82
:1007500020E030E048EC52E40E9422194B015C0199
:100760009B01AC016F81788589859A850E94B018BC
:100770002B013C018E010D5F1F4F21E04D2DC50166
:10078000B4010E94100F0E5F1F4F21E04D2DC301D9
:10079000B2010E94100F4B815C810F2EF8E7EF2E03
:1007A000F0E0FF2EF02D9501840161E08D2D0E9477
:1007B0005D134D815E810F2EF6E7EF2EF0E0FF2EE8
:1007C000F02D9301820161E08D2D0E945D138D81DA
:1007D0009E810E944B0480937C008B819C810E94AF
:1007E0004B0480937D0060917600709177008D2D91
:1007F0000E94A00B60917C008D2D0E94CB0B2DC020
:10080000C501B4010E94C3194B015C018E010F5F49
:100810001F4F21E04D2D0E94100F49815A810F2E4C
:10082000FAE7EF2EF0E0FF2EF02D9501840161E054
:100830008D2D0E945D1389819A810E944B048093C3
:100840007E0060917A0070917B008D2D0E94A00B3C
:1008500060917E008D2D0E94CB0B8D2D0E94580C37
:1008600081E003C080E001C080E02A960FB6F894D2
:10087000DEBF0FBECDBFDF91CF911F910F91FF90D3
:10088000EF90DF90BF90AF909F908F907F906F9090
:100890005F904F90089580329105E1F038F48130F7
:1008A000910521F198F0089799F01EC080389105C4
:1008B000A9F020F48034910579F016C0811521E06B
:1008C000920771F08115944069F00EC080E00895A0
:1008D00082E0089583E0089584E0089585E0089516
:1008E00086E0089587E008958AE0089581E00895FC
:1008F0008F929F92AF92BF92DF92EF92FF920F93EF
:100900001F93CF93DF93CDB7DEB72E970FB6F89432
:10091000DEBF0FBECDBF1A8219821C821B821D82D0
:100920008E831F82198691E098871E861D868330EC
:1009300008F0D5C04A015B01D82E8E010F5F1F4F12
:1009400020E0482FC501B4010E94100F813009F04A
:10095000C8C049815A814C3D85E0580729F1CE0134
:1009600003967C019501840160E08D2D0E945D134A
:1009700089819A810E944B048A878B819C819C8704
:100980008B87CE0106960E94E1098D2D0E94580C9E
:10099000AE014B5F5F4F60E08D2D0E94970D8D8102
:1009A0008823B1F383E0A0C080E094E00E944B0470
:1009B0008A871C861B86DD2019F092E0D91220C0A0
:1009C00020E030E040E058E3C501B4010E947A1A0B
:1009D0004B015C010E9494198B0180E090E00E9421
:1009E000C3199B01AC01C501B4010E94B01820E0FD
:1009F00030E040E057E40E947A1A4B015C0133C0BA
:100A000020E030E040E054E3C501B4010E947A1ACE
:100A10004B015C010E9494198B0180E090E00E94E0
:100A2000C3199B01AC01C501B4010E94B01820E0BC
:100A300030E040E05BE40E947A1A4B015C0113C095
:100A4000CE0106960E94E1098D2D0E94580CAE0140
:100A50004B5F5F4F60E08D2D0E94970D9D81992324
:100A6000B1F3015011090115110551F720E030E0F3
:100A7000A901C501B4010E94751A1816A4F58E01CA
:100A80000F5F1F4F20E04D2DC501B4010E94100FD4
:100A900049815A81CE0103967C019501840160E071
:100AA0008D2D0E945D1389819A810E944B048A8753
:100AB0008B819C819C878B87CE0106960E94E109E1
:100AC0008D2D0E94580CAE014B5F5F4F60E08D2D65
:100AD0000E94970D8D818823B1F383E005C080E0EB
:100AE00003C080E001C083E02E960FB6F894DEBF0D
:100AF0000FBECDBFDF91CF911F910F91FF90EF906F
:100B0000DF90BF90AF909F908F9008958F929F92AB
:100B1000AF92BF92DF92EF92FF920F931F93CF930A
:100B2000DF93CDB7DEB72E970FB6F894DEBF0FBEBA
:100B3000CDBF1A8219821C821B821D828E831F8266
:100B4000198691E098871E861D86833008F0D5C0EF
:100B50004A015B01D82E8E010F5F1F4F21E0482F05
:100B6000C501B4010E94100F813009F0C8C049814D
:100B70005A814C3D85E0580729F1CE0103967C014E
:100B80009501840161E08D2D0E945D1389819A8118
:100B90000E944B048A878B819C819C878B87CE0126
:100BA00006960E94E1098D2D0E94580CAE014B5F04
:100BB0005F4F60E08D2D0E94970D8D818823B1F3EA
:100BC00083E0A0C080E094E00E944B048A871C86EA
:100BD0001B86DD2019F092E0D91220C02FE632E109
:100BE00043E052E4C501B4010E9422194B015C01AB
:100BF0000E9494198B0180E090E00E94C3199B0130
:100C0000AC01C501B4010E94B0182FE632E143E007
:100C100052E40E947A1A4B015C0133C02FE632E1A4
:100C200043E056E4C501B4010E9422194B015C0166
:100C30000E9494198B0180E090E00E94C3199B01EF
:100C4000AC01C501B4010E94B0182FE632E143E0C7
:100C500056E40E947A1A4B015C0113C0CE0106963D
:100C60000E94E1098D2D0E94580CAE014B5F5F4F31
:100C700060E08D2D0E94970D9D819923B1F3015065
:100C800011090115110551F720E030E0A901C50156
:100C9000B4010E94751A1816A4F58E010F5F1F4F3C
:100CA00021E04D2DC501B4010E94100F49815A81E8
:100CB000CE0103967C019501840161E08D2D0E9497
:100CC0005D1389819A810E944B048A878B819C8164
:100CD0009C878B87CE0106960E94E1098D2D0E948C
:100CE000580CAE014B5F5F4F60E08D2D0E94970D59
:100CF0008D818823B1F383E005C080E003C080E0EC
:100D000001C083E02E960FB6F894DEBF0FBECDBFB4
:100D1000DF91CF911F910F91FF90EF90DF90BF90E7
:100D2000AF909F908F900895809188008F5F8093FF
:100D30008800813031F40E94260180E00E94F0009A
:100D40000895823049F486E890E00E9408010E94EC
:100D5000260181E00E94F00008950F931F93CF9326
:100D6000DF9300D000D0CDB7DEB7843020F56830F7
:100D700020F5433020F5062F182F498381E08A8320
:100D800092E09B838C831093850060938400CE0156
:100D900001960E94650084E996E00E94D60041E039
:100DA000602F812F0E94680740E0602F812F0E94F2
:100DB000EE0780E005C081E003C081E001C081E072
:100DC0000F900F900F900F90DF91CF911F910F9187
:100DD000089541E060918400809185000E94EE07B3
:100DE00040E050E060E271E482E00E94780440E07C
:100DF00060918400809185000E94EE070895CF9352
:100E0000DF930097E1F0EC010E94E90690918800E1
:100E10009230E1F72091860030918700AFE9B6E487
:100E20000E94ED1A929582958F7089279F7089276D
:100E30000196998388831092880080E001C081E048
:100E4000DF91CF910895CF93DF9300D0CDB7DEB778
:100E50001A8219820E94CA0140E065E081E00E9486
:100E6000AD0685E690E00E946F0240E066E083E018
:100E70000E940E030E94DD0910E010C0212F44E102
:100E800050E060E070E080E00E945A0340E050E0F3
:100E900060EA70E482E00E9486051F5F143670F3FA
:100EA000CE0101960E94FF066AE080E00E94820265
:100EB00089819A810E94950281E790E00E946F02E9
:100EC00040E050E068E472E482E00E948605D4CFFE
:100ED000843008F07BC0683008F07AC0423008F0F7
:100EE00079C0813011F130F08230D1F1833009F4D2
:100EF00052C072C0413061F42AB381E090E002C078
:100F0000880F991F6A95E2F7822B8ABB81E00895CA
:100F10002AB381E090E002C0880F991F6A95E2F73A
:100F2000809582238ABB81E00895413061F427B324
:100F300081E090E002C0880F991F6A95E2F7822B4A
:100F400087BB81E0089527B381E090E002C0880F5D
:100F5000991F6A95E2F78095822387BB81E0089507
:100F6000413061F424B381E090E002C0880F991F02
:100F70006A95E2F7822B84BB81E0089524B381E077
:100F800090E002C0880F991F6A95E2F7809582234E
:100F900084BB81E00895413061F421B381E090E0A9
:100FA00002C0880F991F6A95E2F7822B81BB81E00E
:100FB000089521B381E090E002C0880F991F6A95DF
:100FC000E2F78095822381BB81E0089582E0089555
:100FD00083E0089584E0089581E00895843008F066
:100FE0007BC0683008F07AC0423008F079C08130A8
:100FF00011F130F08230D1F1833009F452C072C067
:10100000413061F42BB381E090E002C0880F991F5A
:101010006A95E2F7822B8BBB81E008952BB381E0C8
:1010200090E002C0880F991F6A95E2F780958223AD
:101030008BBB81E00895413061F428B381E090E0FA
:1010400002C0880F991F6A95E2F7822B88BB81E066
:10105000089528B381E090E002C0880F991F6A9537
:10106000E2F78095822388BB81E00895413061F4E6
:1010700025B381E090E002C0880F991F6A95E2F7DE
:10108000822B85BB81E0089525B381E090E002C00A
:10109000880F991F6A95E2F78095822385BB81E0CE
:1010A0000895413061F422B381E090E002C0880FDE
:1010B000991F6A95E2F7822B82BB81E0089522B3E3
:1010C00081E090E002C0880F991F6A95E2F7809551
:1010D000822382BB81E0089582E0089583E0089531
:1010E00080E0089581E008958430D0F56830D0F52F
:1010F000813091F028F08230D9F0833029F134C06A
:101100002BB381E090E002C0880F991F6A95E2F747
:1011100082278BBB81E0089528B381E090E002C074
:10112000880F991F6A95E2F7822788BB81E00895AE
:1011300025B381E090E002C0880F991F6A95E2F71D
:10114000822785BB81E0089522B381E090E002C050
:10115000880F991F6A95E2F7822782BB81E0089584
:1011600082E0089583E0089581E008958430A0F43A
:10117000813049F028F0823049F0833051F00EC0C0
:101180006BBB81E0089568BB81E0089565BB81E099
:10119000089562BB81E0089582E0089581E008959A
:1011A0008430F8F461157105F1F0813059F028F0C0
:1011B000823069F0833081F018C089B3FB018083ED
:1011C00081E0089586B3FB01808381E0089583B3B5
:1011D000FB01808381E0089580B3FB01808381E07F
:1011E000089582E0089580E0089581E008958330B5
:1011F00040F5643040F5811106C085B78C7F682BBF
:1012000065BF83E00895813059F485B770E0660FBB
:10121000771F660F771F837F682B65BF83E0089574
:10122000823099F48EEF860F823088F424B730E450
:10123000639FC0011124922F9F7B892B84BF83E081
:10124000089580E0089581E0089581E0089581E0A7
:1012500008958330A8F4811105C08BB780648BBFDB
:1012600083E00895813029F48BB780688BBF83E0D9
:101270000895823039F48BB780628BBF83E0089584
:1012800080E0089583E00895009731F090938E00F8
:1012900080938D0083E0089582E00895009731F0F7
:1012A00090938C0080938B0083E0089582E00895F2
:1012B000009731F090938A008093890083E008952D
:1012C00082E008951F920F920FB60F9211242F9370
:1012D0003F934F935F936F937F938F939F93AF93BE
:1012E000BF93EF93FF93E0918D00F0918E003097C4
:1012F00009F00995FF91EF91BF91AF919F918F9167
:101300007F916F915F914F913F912F910F900FBE01
:101310000F901F9018951F920F920FB60F921124E5
:101320002F933F934F935F936F937F938F939F93ED
:10133000AF93BF93EF93FF93E0918B00F0918C00FC
:10134000309709F00995FF91EF91BF91AF919F916F
:101350008F917F916F915F914F913F912F910F905E
:101360000FBE0F901F9018951F920F920FB60F92FD
:1013700011242F933F934F935F936F937F938F939A
:101380009F93AF93BF93EF93FF93E0918900F09108
:101390008A00309709F00995FF91EF91BF91AF91C5
:1013A0009F918F917F916F915F914F913F912F917D
:1013B0000F900FBE0F901F9018958FB780688FBF4A
:1013C0000895FC01892B09F495C18081833008F0D0
:1013D00093C19181923008F091C19281923008F0CE
:1013E0008FC19381943008F08DC194819A3008F0B8
:1013F0008BC181117DC083B7806883BF81818823C1
:1014000019F0813041F00DC083B78F7B83BF83B764
:10141000877F83BF06C083B78F7B83BF83B7886016
:1014200083BF8381813069F028F08230A1F083305E
:10143000E1F024C083B78F7E83BF83B78F7D83BFE6
:101440001DC087B3886087BB83B7806183BF83B7C4
:101450008F7D83BF13C087B3886087BB83B78F7EC0
:1014600083BF83B7806283BF09C087B3886087BBAF
:1014700083B7806183BF83B7806283BF84818330F9
:1014800009F444C1853009F443C1A081B0E0AE59EC
:10149000BF4F8C93828181110BC08181811104C067
:1014A00089B7816089BF0AC089B7826089BF06C0D9
:1014B00089B78E7F89BF89B78D7F89BF85819681E6
:1014C0008F3F910511F008F025C1278130852F3F0E
:1014D000310511F008F020C12181211104C082BF23
:1014E0001CBE86E024C112BE87818CBF86E01FC16E
:1014F000813009F085C08FB588608FBD8FB584605D
:101500008FBD8181882319F0813071F019C08FB5AA
:101510008E7F8FBD8FB58D7F8FBD8EB5877F8EBD42
:101520008EB58F7E8EBD0CC08FB58E7F8FBD8FB573
:101530008D7F8FBD8EB588608EBD8EB58F7E8EBD42
:101540008381813069F028F08230A1F08330E1F0AE
:1015500024C08FB58F7B8FBD8FB58F778FBD1DC09A
:1015600081B3806281BB8FB580648FBD8FB58F776B
:101570008FBD13C081B3806281BB8FB58F7B8FBD60
:101580008FB580688FBD09C081B3806281BB8FB584
:1015900080648FBD8FB580688FBD8481833009F4EE
:1015A000BDC0853009F4BCC0A081B0E0AE59BF4FCA
:1015B0008C93828181110BC08181811104C089B714
:1015C000846089BF0AC089B7806189BF06C089B7B6
:1015D0008B7F89BF89B78F7E89BF8181811108C0C8
:1015E000858196819DBD8CBD1BBC1ABC86E09FC0C9
:1015F0001DBC1CBC878190859BBD8ABD86E097C0C1
:1016000085B5806885BD8181882319F0813041F0DE
:101610000DC085B58F7B85BD85B5877F85BD06C02F
:1016200085B58F7B85BD85B5886085BD838181301B
:1016300069F028F08230A1F08330E1F024C085B554
:101640008F7E85BD85B58F7D85BD1DC081B38068CA
:1016500081BB85B5806185BD85B58F7D85BD13C096
:1016600081B3806881BB85B58F7E85BD85B580627D
:1016700085BD09C081B3806881BB85B5806185BDAA
:1016800085B5806285BD848198EF980F923008F40B
:1016900049C0A081B0E0AE59BF4F8C9382818111C7
:1016A0000BC08181811104C089B7806489BF0AC0E1
:1016B00089B7806889BF06C089B78F7B89BF89B722
:1016C0008F7789BF858196818F3F910509F060F5FD
:1016D000278130852F3F310509F040F52181211107
:1016E00004C084BD13BC86E022C014BC878183BDC6
:1016F00086E01DC085E01BC080E019C081E017C0F6
:1017000082E015C083E013C084E011C084E00FC004
:1017100084E00DC085E00BC085E009C084E007C00F
:1017200084E005C084E003C085E001C085E0863028
:1017300031F4E081F0E0E556FF4F91E090830895A9
:101740008330F8F4E82FF0E0E556FF4F90819130B8
:10175000D1F4813059F018F0823061F016C06F3F3B
:10176000710509F0A0F462BF86E008957DBD6CBDEF
:1017700086E008956F3F710509F058F464BD86E076
:10178000089580E0089588E0089586E0089585E052
:10179000089585E00895833070F5282F30E0F90131
:1017A000E556FF4F9081913041F56A3040F5813028
:1017B00071F018F08230A9F024C0633021F1653057
:1017C00021F1F901EE59FF4F608386E008956330FF
:1017D000F1F06530F1F0F901EE59FF4F608386E0DA
:1017E000089588EF860F8230B0F0F901EE59FF4F6F
:1017F000608386E0089580E0089588E0089584E09D
:10180000089586E0089584E0089584E0089584E0D2
:10181000089584E0089584E008958330D8F5423037
:10182000D8F561157105D1F18130A1F018F0823041
:1018300009F136C0411106C070939A006093990077
:1018400086E00895413071F57093940060939300A1
:1018500086E00895411106C0709398006093970048
:1018600086E00895413001F57093920060939100F5
:1018700086E00895411106C070939600609395002C
:1018800086E00895413091F47093900060938F004A
:1018900086E0089580E0089581E0089585E0089548
:1018A00086E0089586E0089586E0089586E008952C
:1018B000833008F0D4C0E82FF0E0E556FF4F908168
:1018C000913009F0CEC0813009F448C020F0823058
:1018D00009F487C0C8C0809162008A3008F0C5C092
:1018E000833009F4C4C0853009F4C3C090E08A3065
:1018F000910508F0C0C0FC01E65DFF4F0C94E71AAB
:1019000083B7887F83BF86E0089583B7887F81602F
:1019100083BF86E0089583B7887F826083BF86E0B7
:10192000089583B7887F836083BF86E0089583B777
:10193000887F846083BF86E0089583B7887F856051
:1019400083BF86E0089583B7887F866083BF86E083
:10195000089583B7876083BF86E008958091630010
:101960008A3008F08AC0833009F489C0853009F4D0
:1019700088C090E08A30910508F085C0FC01EC5CDD
:10198000FF4F0C94E71A8EB5887F8EBD86E00895D0
:101990008EB5887F81608EBD86E008958EB5887F84
:1019A00082608EBD86E008958EB5887F83608EBD8F
:1019B00086E008958EB5887F84608EBD86E00895A8
:1019C0008EB5887F85608EBD86E008958EB5887F50
:1019D00086608EBD86E008958EB587608EBD86E0F8
:1019E0000895E0916400E83008F04FC08E2F90E039
:1019F0008830910508F04BC0FC01E25CFF4F0C946D
:101A0000E71A85B5887F85BD86E0089585B5887F0E
:101A1000816085BD86E0089585B5887F826085BD3B
:101A200086E0089585B5887F836085BD86E008954A
:101A300085B5887F846085BD86E0089585B5887FFB
:101A4000856085BD86E0089585B5887F866085BD03
:101A500086E0089585B5876085BD86E0089580E0BD
:101A6000089588E0089586E0089584E0089584E06C
:101A7000089584E0089586E0089584E0089584E060
:101A8000089584E0089586E0089584E0089586E04E
:101A900008958330E0F4E82FF0E0E556FF4F9081A1
:101AA0009130B9F4813049F018F0823059F013C008
:101AB00083B7887F83BF86E008958EB5887F8EBD0B
:101AC00086E0089585B5887F85BD86E0089580E02D
:101AD000089588E0089586E00895833010F5E82F92
:101AE000F0E0E556FF4F90819130E9F4813059F0F4
:101AF00018F0823079F019C082B790E0FB01918331
:101B0000808386E008958CB59DB5FB019183808329
:101B100086E0089584B590E0FB019183808386E0A0
:101B2000089580E0089588E0089586E00895833060
:101B300008F076C0623008F075C04115510509F40F
:101B400073C0E82FF0E0E556FF4F9081913009F027
:101B50006DC0813029F120F0823009F441C068C0A5
:101B600061110FC008B600FE08C081E0FA01808351
:101B700088B7816088BF86E00895FA01108286E008
:101B8000089508B601FE08C081E0FA01808388B795
:101B9000826088BF86E00895FA01108286E0089589
:101BA00061110FC008B602FE08C081E0FA0180830F
:101BB00088B7846088BF86E00895FA01108286E0C5
:101BC000089508B604FE08C081E0FA01808388B752
:101BD000806188BF86E00895FA01108286E008954A
:101BE00061110FC008B606FE08C081E0FA018083CB
:101BF00088B7806488BF86E00895FA01108286E085
:101C0000089508B607FE08C081E0FA01808388B70E
:101C1000806888BF86E00895FA01108286E0089502
:101C200080E0089581E0089585E0089588E00895B2
:101C300086E008951F920F920FB60F9211242F93F2
:101C40003F934F935F936F937F938F939F93AF9344
:101C5000BF93EF93FF93E0919900F0919A00309732
:101C600009F00995FF91EF91BF91AF919F918F91ED
:101C70007F916F915F914F913F912F910F900FBE88
:101C80000F901F9018951F920F920FB60F9211246C
:101C90002F933F934F935F936F937F938F939F9374
:101CA000AF93BF93EF93FF93E0919700F09198006B
:101CB000309709F00995FF91EF91BF91AF919F91F6
:101CC0008F917F916F915F914F913F912F910F90E5
:101CD0000FBE0F901F9018951F920F920FB60F9284
:101CE00011242F933F934F935F936F937F938F9321
:101CF0009F93AF93BF93EF93FF93E0919500F09183
:101D00009600309709F00995FF91EF91BF91AF913F
:101D10009F918F917F916F915F914F913F912F9103
:101D20000F900FBE0F901F9018951F920F920FB635
:101D30000F9211242F933F934F935F936F937F9351
:101D40008F939F93AF93BF93EF93FF93E091930093
:101D5000F0919400309709F00995FF91EF91BF91B0
:101D6000AF919F918F917F916F915F914F913F9133
:101D70002F910F900FBE0F901F9018951F920F92EA
:101D80000FB60F9211242F933F934F935F936F934E
:101D90007F938F939F93AF93BF93EF93FF93E091C4
:101DA0009100F0919200309709F00995FF91EF9121
:101DB000BF91AF919F918F917F916F915F914F9163
:101DC0003F912F910F900FBE0F901F9018951F926B
:101DD0000F920FB60F9211242F933F934F935F935F
:101DE0006F937F938F939F93AF93BF93EF93FF93E3
:101DF000E0918F00F0919000309709F00995FF91E4
:101E0000EF91BF91AF919F918F917F916F915F9172
:101E10004F913F912F910F900FBE0F901F901895EB
:101E2000CF92DF92EF92FF920F931F936B017C0191
:101E3000211165C1411169C020E030E040E057E464
:101E40000E941D1918160CF459C020E030E040E043
:101E500052E4C701B6010E941D19181634F081E042
:101E600090E0F8019183808321C420E030E040E8D5
:101E700053E4C701B6010E941D1918163CF088E012
:101E800090E0F8019183808381E010C420E030E08D
:101E900040E055E4C701B6010E941D1918163CF038
:101EA00080E490E0F8019183808381E0FFC320E02B
:101EB00030E040E056E4C701B6010E941D19181633
:101EC0003CF080E091E0F8019183808381E0EEC3F3
:101ED00020E030E040E057E4C701B6010E941D1940
:101EE00018163CF080E094E0F8019183808381E053
:101EF000DDC3F8011182108281E0D8C38CED95E03A
:101F0000F8019183808381E0D1C3413009F069C039
:101F100020E030E040E05BE40E941D1918160CF44C
:101F200059C020E030E040E056E4C701B6010E940D
:101F30001D19181634F081E090E0F8019183808338
:101F4000B5C320E030E040E857E4C701B6010E9485
:101F50001D1918163CF088E090E0F8019183808309
:101F600081E0A4C320E030E040E059E4C701B601BD
:101F70000E941D1918163CF080E490E0F80191834E
:101F8000808381E093C320E030E040E05AE4C70161
:101F9000B6010E941D1918163CF080E091E0F8018E
:101FA0009183808381E082C320E030E040E05BE405
:101FB000C701B6010E941D1918163CF080E094E09C
:101FC000F8019183808381E071C3F801118210824E
:101FD00081E06CC38CED95E0F8019183808381E012
:101FE00065C3423009F05BC320E030E040E057E4D5
:101FF0000E941D1918160CF47BC020E030E040E070
:1020000052E4C701B6010E941D19181634F081E090
:1020100090E0F8019183808349C320E030E040E8FC
:1020200053E4C701B6010E941D1918163CF088E060
:1020300090E0F8019183808381E038C320E030E0B4
:1020400040E854E4C701B6010E941D1918163CF07F
:1020500080E290E0F8019183808381E027C320E053
:1020600030E040E055E4C701B6010E941D19181682
:102070003CF080E490E0F8019183808381E016C316
:1020800020E030E040E855E4C701B6010E941D1988
:1020900018163CF080E890E0F8019183808381E09D
:1020A00005C320E030E040E056E4C701B6010E94DD
:1020B0001D1918163CF080E091E0F80191838083AF
:1020C00081E0F4C220E030E040E057E4C701B6010F
:1020D0000E941D1918163CF080E094E0F8019183ED
:1020E000808381E0E3C2F8011182108281E0DEC2C8
:1020F0008CED95E0F8019183808381E0D7C2213097
:1021000009F065C1411169C02FE632E143E052E4B4
:102110000E941D1918160CF459C02FE632E143E055
:102120005DE3C701B6010E941D19181634F081E065
:1021300090E0F80191838083B9C22FE632E143E851
:102140005EE3C701B6010E941D1918163CF088E035
:1021500090E0F8019183808381E0A8C22FE632E10C
:1021600043E050E4C701B6010E941D1918163CF067
:1021700080E490E0F8019183808381E097C22FE6AC
:1021800032E143E051E4C701B6010E941D1918165F
:102190003CF080E091E0F8019183808381E086C289
:1021A0002FE632E143E052E4C701B6010E941D1957
:1021B00018163CF080E094E0F8019183808381E080
:1021C00075C2F8011182108281E070C28CED95E039
:1021D000F8019183808381E069C2413009F069C0D0
:1021E0002FE632E143E056E40E941D1918160CF464
:1021F00059C02FE632E143E051E4C701B6010E9425
:102200001D19181634F081E090E0F8019183808365
:102210004DC22FE632E143E852E4C701B6010E9405
:102220001D1918163CF088E090E0F8019183808336
:1022300081E03CC22FE632E143E054E4C701B6013D
:102240000E941D1918163CF080E490E0F80191837B
:10225000808381E02BC22FE632E143E055E4C701E1
:10226000B6010E941D1918163CF080E091E0F801BB
:102270009183808381E01AC22FE632E143E056E485
:10228000C701B6010E941D1918163CF080E094E0C9
:10229000F8019183808381E009C2F80111821082E4
:1022A00081E004C28CED95E0F8019183808381E0A8
:1022B000FDC1423009F0F5C120E030E040E057E4D4
:1022C0000E941D1918160CF47BC02FE632E143E082
:1022D0005DE3C701B6010E941D19181634F081E0B4
:1022E00090E0F80191838083E1C12FE632E143E879
:1022F0005EE3C701B6010E941D1918163CF088E084
:1023000090E0F8019183808381E0D0C12FE632E133
:1023100043E85FE3C701B6010E941D1918163CF09F
:1023200080E290E0F8019183808381E0BFC12FE6D5
:1023300032E143E050E4C701B6010E941D191816AE
:102340003CF080E490E0F8019183808381E0AEC1AD
:102350002FE632E143E850E4C701B6010E941D199F
:1023600018163CF080E890E0F8019183808381E0CA
:102370009DC12FE632E143E051E4C701B6010E945E
:102380001D1918163CF080E091E0F80191838083DC
:1023900081E08CC12FE632E143E052E4C701B6018F
:1023A0000E941D1918163CF080E094E0F80191831A
:1023B000808381E07BC1F8011182108281E076C1C7
:1023C0008CED95E0F8019183808381E06FC122302C
:1023D00009F069C1411169C02DEB37E346E05DE3C7
:1023E0000E941D1918160CF459C02DEB37E346E076
:1023F00058E3C701B6010E941D19181634F081E098
:1024000090E0F8019183808351C12DEB37E346E8DA
:1024100059E3C701B6010E941D1918163CF088E067
:1024200090E0F8019183808381E040C12DEB37E398
:1024300046E05BE3C701B6010E941D1918163CF087
:1024400080E490E0F8019183808381E02FC12DEB3F
:1024500037E346E05CE3C701B6010E941D19181678
:102460003CF080E091E0F8019183808381E01EC11F
:102470002DEB37E346E05DE3C701B6010E941D196D
:1024800018163CF080E094E0F8019183808381E0AD
:102490000DC1F8011182108281E008C18CED95E038
:1024A000F8019183808381E001C1413009F069C066
:1024B0002DEB37E346E051E40E941D1918160CF489
:1024C00059C02DEB37E346E05CE3C701B6010E943B
:1024D0001D19181634F081E090E0F8019183808393
:1024E000E5C02DEB37E346E85DE3C701B6010E9486
:1024F0001D1918163CF088E090E0F8019183808364
:1025000081E0D4C02DEB37E346E05FE3C701B601BD
:102510000E941D1918163CF080E490E0F8019183A8
:10252000808381E0C3C02DEB37E346E050E4C70170
:10253000B6010E941D1918163CF080E091E0F801E8
:102540009183808381E0B2C02DEB37E346E051E414
:10255000C701B6010E941D1918163CF080E094E0F6
:10256000F8019183808381E0A1C0F801118210827B
:1025700081E09CC08CED95E0F8019183808381E03F
:1025800095C0423009F091C02DEB37E346E05DE3A2
:102590000E941D1918160CF47BC02DEB37E346E0A2
:1025A00058E3C701B6010E941D19181634F081E0E6
:1025B00090E0F8019183808379C02DEB37E346E802
:1025C00059E3C701B6010E941D1918163CF088E0B6
:1025D00090E0F8019183808381E068C02DEB37E3C0
:1025E00046E85AE3C701B6010E941D1918163CF0CF
:1025F00080E290E0F8019183808381E057C02DEB69
:1026000037E346E05BE3C701B6010E941D191816C7
:102610003CF080E490E0F8019183808381E046C043
:102620002DEB37E346E85BE3C701B6010E941D19B5
:1026300018163CF080E890E0F8019183808381E0F7
:1026400035C02DEB37E346E05CE3C701B6010E94DD
:102650001D1918163CF080E091E0F8019183808309
:1026600081E024C02DEB37E346E05DE3C701B6010E
:102670000E941D1918163CF080E094E0F801918347
:10268000808381E013C0F8011182108281E00EC0C6
:102690008CED95E0F8019183808381E007C080E0B4
:1026A00005C080E003C080E001C080E01F910F9171
:1026B000FF90EF90DF90CF900895EF92FF920F93ED
:1026C0001F9381118AC161117CC040345105A9F169
:1026D00038F44130510569F048305105F9F06CC0CB
:1026E000411581E05807F1F14115544009F44FC0FC
:1026F00063C0A901980160E070E080E092E40E946C
:10270000B01820E030E040E051E40E947A1A0E94C4
:102710009419F7017183608381E01DC5A9019801B7
:1027200060E070E080E893E40E94B0180E94941981
:10273000F7017183608381E00EC5A901980160E013
:1027400070E080E095E40E94B01820E030E040E0C6
:102750005EE30E947A1A0E949419F70171836083E4
:1027600081E0F9C4A901980160E070E080E096E49E
:102770000E94B01820E030E040E05DE30E947A1A49
:102780000E949419F7017183608381E0E4C4A90178
:10279000980160E070E080E097E40E94B01820E0CB
:1027A00030E040E05CE30E947A1A0E949419F7013D
:1027B0007183608381E0CFC4F7011182108280E0D1
:1027C000CAC4613009F083C040345105E1F138F4E6
:1027D0004130510571F04830510501F173C0411588
:1027E000F1E05F0709F444C04115544009F455C0B5
:1027F00069C0A90198016FE672E183E09DE30E9440
:10280000B0182FE632E143E059E30E9422190E94FA
:102810009419F7017183608381E09DC4A901980137
:102820006FE672E183E89EE30E94B0182FE632E182
:1028300043E85AE30E9422190E949419F701718318
:10284000608381E088C4A90198016FE672E183E0AA
:1028500090E40E94B0182FE632E143E05CE30E946E
:1028600022190E949419F7017183608381E073C477
:10287000A90198016FE672E183E091E40E94B0182B
:102880002FE632E143E05DE30E9422190E94941991
:10289000F7017183608381E05EC4A90198016FE64E
:1028A00072E183E092E40E94B0182FE632E143E047
:1028B0005EE30E9422190E949419F70171836083DC
:1028C00081E049C4F7011182108280E044C4623083
:1028D00009F03AC440345105E1F138F44130510572
:1028E00071F04830510501F173C04115F1E05F0707
:1028F00009F444C04115544009F455C069C0A90108
:1029000098016DEB77E386E098E30E94B0182DEB19
:1029100037E346E054E30E9422190E949419F7011C
:102920007183608381E017C4A90198016DEB77E39F
:1029300086E899E30E94B0182DEB37E346E855E3AB
:102940000E9422190E949419F7017183608381E02B
:1029500002C4A90198016DEB77E386E09BE30E9436
:10296000B0182DEB37E346E057E30E9422190E948E
:102970009419F7017183608381E0EDC3A901980187
:102980006DEB77E386E09CE30E94B0182DEB37E314
:1029900046E058E30E9422190E949419F7017183BE
:1029A000608381E0D8C3A90198016DEB77E386E0ED
:1029B0009DE30E94B0182DEB37E346E059E30E94F7
:1029C00022190E949419F7017183608381E0C3C3C7
:1029D000F7011182108280E0BEC3813009F08AC104
:1029E00061117CC040345105A9F138F441305105E2
:1029F00069F048305105F9F06CC04115F1E05F070E
:102A0000F1F14115544009F44FC063C0A901980188
:102A100060E070E080E096E40E94B01820E030E0D2
:102A200040E051E40E947A1A0E949419F7017183E0
:102A3000608381E090C3A901980160E070E080E8C4
:102A400097E40E94B0180E949419F7017183608383
:102A500081E081C3A901980160E070E080E099E421
:102A60000E94B01820E030E040E05EE30E947A1A55
:102A70000E949419F7017183608381E06CC3A901FE
:102A8000980160E070E080E09AE40E94B01820E0D5
:102A900030E040E05DE30E947A1A0E949419F70149
:102AA0007183608381E057C3A901980160E070E001
:102AB00080E09BE40E94B01820E030E040E05CE35E
:102AC0000E947A1A0E949419F7017183608381E051
:102AD00042C3F7011182108280E03DC3613009F0EA
:102AE00083C040345105E1F138F44130510571F0B3
:102AF0004830510501F173C04115F1E05F0709F459
:102B000044C04115544009F455C069C0A901980159
:102B10006FE672E183E091E40E94B0182FE632E1A3
:102B200043E059E30E9422190E949419F70171832E
:102B3000608381E010C3A90198016FE672E183E828
:102B400092E40E94B0182FE632E143E85AE30E9473
:102B500022190E949419F7017183608381E0FBC2FE
:102B6000A90198016FE672E183E094E40E94B01835
:102B70002FE632E143E05CE30E9422190E9494199F
:102B8000F7017183608381E0E6C2A90198016FE6D5
:102B900072E183E095E40E94B0182FE632E143E051
:102BA0005DE30E9422190E949419F70171836083EA
:102BB00081E0D1C2A90198016FE672E183E096E459
:102BC0000E94B0182FE632E143E05EE30E94221932
:102BD0000E949419F7017183608381E0BCC2F70100
:102BE0001182108280E0B7C2623009F0AFC2403477
:102BF0005105E1F138F44130510571F0483051058B
:102C000001F173C04115F1E05F0709F444C04115BB
:102C1000544009F455C069C0A90198016DEB77E3F0
:102C200086E09CE30E94B0182DEB37E346E054E3C6
:102C30000E9422190E949419F7017183608381E038
:102C40008AC2A90198016DEB77E386E89DE30E94B3
:102C5000B0182DEB37E346E855E30E9422190E9495
:102C60009419F7017183608381E075C2A90198010D
:102C70006DEB77E386E09FE30E94B0182DEB37E31E
:102C800046E057E30E9422190E949419F7017183CC
:102C9000608381E060C2A90198016DEB77E386E073
:102CA00090E40E94B0182DEB37E346E058E30E9411
:102CB00022190E949419F7017183608381E04BC24D
:102CC000A90198016DEB77E386E091E40E94B018CA
:102CD0002DEB37E346E059E30E9422190E94941934
:102CE000F7017183608381E036C2F701118210829F
:102CF00080E031C2823009F02BC26111B1C0403492
:102D0000510509F454C058F44830510561F140327E
:102D10005105C1F14130510509F09DC00FC0411569
:102D2000F1E05F0709F46DC0411584E0580709F42C
:102D30007DC04038510509F08EC04EC0A9019801F0
:102D400060E070E080E092E40E94B01820E030E0A3
:102D500040E051E40E947A1A0E949419F7017183AD
:102D6000608381E0F8C1A901980160E070E080E82B
:102D700093E40E94B0180E949419F7017183608354
:102D800081E0E9C1A901980160E070E080E894E485
:102D90000E94B01820E030E040E85EE30E947A1A1A
:102DA0000E949419F7017183608381E0D4C1A90165
:102DB000980160E070E080E095E40E94B01820E0A7
:102DC00030E040E05EE30E947A1A0E949419F70115
:102DD0007183608381E0BFC1A901980160E070E068
:102DE00080E895E40E94B01820E030E040E85DE320
:102DF0000E947A1A0E949419F7017183608381E01E
:102E0000AAC1A901980160E070E080E096E40E9408
:102E1000B01820E030E040E05DE30E947A1A0E94A2
:102E20009419F7017183608381E095C1A90198012C
:102E300060E070E080E097E40E94B01820E030E0AD
:102E400040E05CE30E947A1A0E949419F7017183B2
:102E5000608381E080C1F7011182108280E07BC134
:102E6000613009F0B7C04034510509F45AC058F434
:102E70004830510561F140325105F1F141305105C1
:102E800009F0A3C00FC04115F1E05F0709F473C05A
:102E9000411584E0580709F483C04038510509F012
:102EA00094C054C0A90198016FE672E183E09DE3EC
:102EB0000E94B0182FE632E143E059E30E94221944
:102EC0000E949419F7017183608381E044C1A901D4
:102ED00098016FE672E183E89EE30E94B0182FE646
:102EE00032E143E85AE30E9422190E949419F70143
:102EF0007183608381E02FC1A90198016FE672E1BF
:102F000083E89FE30E94B0182FE632E143E85BE3D9
:102F10000E9422190E949419F7017183608381E055
:102F20001AC1A90198016FE672E183E090E40E9462
:102F3000B0182FE632E143E05CE30E9422190E94C0
:102F40009419F7017183608381E005C1A90198019B
:102F50006FE672E183E890E40E94B0182FE632E158
:102F600043E85CE30E9422190E949419F7017183DF
:102F7000608381E0F0C0A90198016FE672E183E00F
:102F800091E40E94B0182FE632E143E05DE30E9435
:102F900022190E949419F7017183608381E0DBC0DC
:102FA000A90198016FE672E183E092E40E94B018F3
:102FB0002FE632E143E05EE30E9422190E94941959
:102FC000F7017183608381E0C6C0F701118210822E
:102FD00080E0C1C0623009F0BDC04034510509F441
:102FE0005AC058F44830510561F140325105F1F1B1
:102FF0004130510509F0A3C00FC04115F1E05F0752
:1030000009F473C0411584E0580709F483C04038BF
:10301000510509F094C054C0A90198016DEB77E304
:1030200086E098E30E94B0182DEB37E346E054E3C6
:103030000E9422190E949419F7017183608381E034
:103040008AC0A90198016DEB77E386E899E30E94B5
:10305000B0182DEB37E346E855E30E9422190E9491
:103060009419F7017183608381E075C0A90198010B
:103070006DEB77E386E89AE30E94B0182DEB37E317
:1030800046E856E30E9422190E949419F7017183C1
:10309000608381E060C0A90198016DEB77E386E071
:1030A0009BE30E94B0182DEB37E346E057E30E9404
:1030B00022190E949419F7017183608381E04BC04B
:1030C000A90198016DEB77E386E89BE30E94B018B5
:1030D0002DEB37E346E857E30E9422190E9494192A
:1030E000F7017183608381E036C0A90198016DEB1F
:1030F00077E386E09CE30E94B0182DEB37E346E0CF
:1031000058E30E9422190E949419F7017183608389
:1031100081E021C0A90198016DEB77E386E09DE392
:103120000E94B0182DEB37E346E059E30E942219C4
:103130000E949419F7017183608381E00CC0F7014C
:103140001182108280E007C081E005C081E003C0E9
:1031500080E001C081E01F910F91FF90EF900895F2
:103160005058BB27AA270E94C8180C943B1A0E94EB
:103170002D1A38F00E94341A20F039F49F3F19F4C8
:1031800026F40C942A1A0EF4E095E7FB0C94241A0A
:10319000E92F0E944C1A58F3BA1762077307840785
:1031A000950720F079F4A6F50C946E1A0EF4E095CC
:1031B0000B2EBA2FA02D0B01B90190010C01CA01F1
:1031C000A0011124FF27591B99F0593F50F4503E9C
:1031D00068F11A16F040A22F232F342F4427585F8E
:1031E000F3CF469537952795A795F0405395C9F7A6
:1031F0007EF41F16BA0B620B730B840BBAF091505E
:10320000A1F0FF0FBB1F661F771F881FC2F70EC0FC
:10321000BA0F621F731F841F48F4879577956795CF
:10322000B795F7959E3F08F0B0CF9395880F08F0BB
:103230009927EE0F9795879508950E94001A08F434
:1032400081E008950E9436190C943B1A0E94341AAA
:1032500058F00E942D1A40F029F45F3F29F00C9499
:10326000241A51110C946F1A0C942A1A0E944C1AA9
:1032700068F39923B1F3552391F3951B550BBB27A5
:10328000AA2762177307840738F09F5F5F4F220FEA
:10329000331F441FAA1FA9F335D00E2E3AF0E0E8E1
:1032A00032D091505040E695001CCAF72BD0FE2F2B
:1032B00029D0660F771F881FBB1F261737074807BF
:1032C000AB07B0E809F0BB0B802DBF01FF27935877
:1032D0005F4F3AF09E3F510578F00C94241A0C94FD
:1032E0006F1A5F3FE4F3983ED4F386957795679520
:1032F000B795F7959F5FC9F7880F911D96958795AC
:1033000097F90895E1E0660F771F881FBB1F6217CA
:1033100073078407BA0720F0621B730B840BBA0B88
:10332000EE1F88F7E09508950E94541A88F09F5781
:1033300098F0B92F9927B751B0F0E1F0660F771FD9
:10334000881F991F1AF0BA95C9F714C0B13091F0CF
:103350000E946E1AB1E008950C946E1A672F782FB0
:103360008827B85F39F0B93FCCF386957795679594
:10337000B395D9F73EF490958095709561957F4F00
:103380008F4F9F4F0895E89409C097FB3EF49095A6
:103390008095709561957F4F8F4F9F4F9923A9F02E
:1033A000F92F96E9BB279395F695879577956795BD
:1033B000B795F111F8CFFAF4BB0F11F460FF1BC001
:1033C0006F5F7F4F8F4F9F4F16C0882311F096E994
:1033D00011C0772321F09EE8872F762F05C0662342
:1033E00071F096E8862F70E060E02AF09A95660FFB
:1033F000771F881FDAF7880F9695879597F90895B4
:10340000990F0008550FAA0BE0E8FEEF16161706F5
:10341000E807F907C0F012161306E407F50798F05D
:10342000621B730B840B950B39F40A2661F0232B76
:10343000242B252B21F408950A2609F4A140A695F2
:103440008FEF811D811D089597F99F6780E870E0D7
:1034500060E008959FEF80EC089500240A9416160A
:10346000170618060906089500240A941216130672
:10347000140605060895092E0394000C11F4882300
:1034800052F0BB0F40F4BF2B11F460FF04C06F5F1C
:103490007F4F8F4F9F4F089557FD9058440F551FF2
:1034A00059F05F3F71F04795880F97FB991F61F0C6
:1034B0009F3F79F087950895121613061406551F3D
:1034C000F2CF4695F1DF08C0161617061806991FA9
:1034D000F1CF86957105610508940895E894BB279E
:1034E00066277727CB0197F908950E94001A08F400
:1034F0008FEF08950E948D1A0C943B1A0E942D1A8A
:1035000038F00E94341A20F0952311F00C94241AFC
:103510000C942A1A11240C946F1A0E944C1A70F3FE
:10352000959FC1F3950F50E0551F629FF001729F68
:10353000BB27F00DB11D639FAA27F00DB11DAA1F77
:10354000649F6627B00DA11D661F829F2227B00DC4
:10355000A11D621F739FB00DA11D621F839FA00D4F
:10356000611D221F749F3327A00D611D231F849F9F
:10357000600D211D822F762F6A2F11249F575040F6
:103580009AF0F1F088234AF0EE0FFF1FBB1F661F71
:10359000771F881F91505040A9F79E3F510580F03A
:1035A0000C94241A0C946F1A5F3FE4F3983ED4F302
:1035B000869577956795B795F795E7959F5FC1F7DE
:1035C000FE2B880F911D9695879597F90895EE0F1C
:1035D000FF1F0590F491E02D0994A29FB001B39FC5
:1035E000C001A39F700D811D1124911DB29F700D0C
:1035F000811D1124911D08954532510520F442305A
:1036000010F00C94071BFB011082CB010895BB271F
:103610004A3031F4992322F4BDE2909581959F4F71
:103620000C94131BBB27FB015527AA27880F991F52
:10363000AA1FA41710F0A41B83955051B9F7A05DE1
:10364000AA3308F0A95DA193009779F7B111B1935E
:103650001192CB010C942C1BDC01FC01672F7191A2
:103660007723E1F7329704C07C916D937083629168
:0C367000AE17BF07C8F30895F894FFCF11
:10367C0003030A0A0A44697374616E6365203D2072
:06368C000020434D200068
:00000001FF
