:100000000C942A000C941B030C9444030C946D0371
:100010000C945E080C94E3070C9447000C9435088C
:100020000C9447000C94BA070C940C080C9491079C
:100030000C9447000C9447000C9447000C94470024
:100040000C9447000C9447000C9447000C94470014
:100050000C94470011241FBECFE5D8E0DEBFCDBF12
:1000600010E0A0E6B0E0E0ECF8E202C005900D92EE
:10007000A836B107D9F720E0A8E6B0E001C01D928C
:10008000A33AB207E1F70E94E9010C945E140C94C4
:100090000000CF93DF93C82FD62F41E00E940F02BC
:1000A000813029F440E06D2F8C2F0E949502DF9162
:1000B000CF9108950E94950208951F93CF93DF93E7
:1000C00080916000282F30E0F901E659FF4F9081C0
:1000D00091110AC00E946D07E0916000F0E0E758BE
:1000E000FF4F81E080834FC04091680050916900CC
:1000F0004F5F5F4F5093690040936800220F331F9A
:10010000F901E857FF4F2081318142175307D9F594
:100110000E946D07109269001092680010916000B3
:10012000C12FD0E0FE01EE0FFF1FEE0FFF1FE458BE
:10013000FF4F608171818281938120E030E0A901CD
:100140000E94EC131816FCF4CC0FDD1FC359DF4FCF
:1001500068817981812F0E946D0580916000E82F70
:10016000F0E0EE0FFF1FED58FF4F608171810E949C
:100170009805809160000E943406E0916000F0E0F4
:10018000E659FF4F1082DF91CF911F9108958F9212
:100190009F92AF92BF92DF92EF92FF920F931F93C5
:1001A000CF93DF93CDB7DEB72E970FB6F894DEBFAF
:1001B0000FBECDBF1A8219821C821B82E0916000A3
:1001C000F0E0E758FF4F10828D831E8218861F8251
:1001D0001E861D8680936000833008F0D2C04A01DD
:1001E0005B01D82E8E010F5F1F4F22E0482FC50103
:1001F000B4010E948708813009F0C5C049815A8145
:1002000042305105B9F0ED2DF0E0E659FF4F108274
:10021000CE0103967C019501840162E08D2D0E9440
:10022000D40C89819A819A8789878B819C819C874C
:100230008B8798C00D2D10E0F801E659FF4F81E043
:10024000808380E094E09A8789871C861B86DD2066
:1002500019F092E0D9122FC02DEB37E346E05DE3B1
:10026000C501B4010E9499124B015C010E940B135D
:10027000F801EE0FFF1FE857FF4F7183608380E0A6
:1002800090E00E943A139B01AC01C501B4010E94A9
:1002900027122DEB37E346E05DE30E94F113F801EE
:1002A000EE0FFF1FEE0FFF1FE458FF4F60837183B7
:1002B000828393832EC02DEB37E346E051E4C501E2
:1002C000B4010E9499124B015C010E940B13F801CA
:1002D000EE0FFF1FE857FF4F7183608380E090E0CF
:1002E0000E943A139B01AC01C501B4010E94271280
:1002F0002DEB37E346E051E40E94F113F801EE0FD5
:10030000FF1FEE0FFF1FE458FF4F6083718382834E
:1003100093837801EE0CFF1CF701ED58FF4F4F015E
:10032000000F111F000F111FC80184589F4F5C015F
:10033000FC016081718182819381840122E04D2DD5
:100340000E948708C70183599F4F7C01F5010081F6
:10035000118122813381F4014081518162E08D2D30
:100360000E94D40CCE0105960E949A0340E06DE5F0
:1003700070E08D2D0E94E9058D2D0E94340683E0EA
:1003800003C080E001C083E02E960FB6F894DEBF74
:100390000FBECDBFDF91CF911F910F91FF90EF90D6
:1003A000DF90BF90AF909F908F900895833068F456
:1003B0006115710561F0E82FF0E0E758FF4F80818B
:1003C000DB018C93108283E0089580E0089582E041
:1003D0000895CF93DF931F92CDB7DEB7198267E000
:1003E00083E00E94490066E083E00E94490040E00B
:1003F00050E060E270E482E00E94C7000E94960331
:10040000BE016F5F7F4F82E00E94D60189818130FB
:10041000B9F741E067E083E00E945A00F1CF8430F1
:1004200008F07BC0683008F07AC0423008F079C02C
:10043000813011F130F08230D1F1833009F452C0B3
:1004400072C0413061F42AB381E090E002C0880FAD
:10045000991F6A95E2F7822B8ABB81E008952AB33F
:1004600081E090E002C0880F991F6A95E2F78095BD
:1004700082238ABB81E00895413061F427B381E093
:1004800090E002C0880F991F6A95E2F7822B87BB24
:1004900081E0089527B381E090E002C0880F991FA2
:1004A0006A95E2F78095822387BB81E00895413009
:1004B00061F424B381E090E002C0880F991F6A952F
:1004C000E2F7822B84BB81E0089524B381E090E0C1
:1004D00002C0880F991F6A95E2F78095822384BB3A
:1004E00081E00895413061F421B381E090E002C0E1
:1004F000880F991F6A95E2F7822B81BB81E00895EE
:1005000021B381E090E002C0880F991F6A95E2F75D
:100510008095822381BB81E0089582E0089583E085
:10052000089584E0089581E00895843008F07BC048
:10053000683008F07AC0423008F079C0813011F19B
:1005400030F08230D1F1833009F452C072C04130B2
:1005500061F42BB381E090E002C0880F991F6A9587
:10056000E2F7822B8BBB81E008952BB381E090E012
:1005700002C0880F991F6A95E2F7809582238BBB92
:1005800081E00895413061F428B381E090E002C039
:10059000880F991F6A95E2F7822B88BB81E0089546
:1005A00028B381E090E002C0880F991F6A95E2F7B6
:1005B0008095822388BB81E00895413061F425B3A2
:1005C00081E090E002C0880F991F6A95E2F7822BC4
:1005D00085BB81E0089525B381E090E002C0880FDB
:1005E000991F6A95E2F78095822385BB81E0089583
:1005F000413061F422B381E090E002C0880F991F7E
:100600006A95E2F7822B82BB81E0089522B381E0F4
:1006100090E002C0880F991F6A95E2F780958223C7
:1006200082BB81E0089582E0089583E0089580E030
:10063000089581E008951F920F920FB60F92112432
:100640002F933F934F935F936F937F938F939F93DA
:10065000AF93BF93EF93FF93E0919200F0919300DB
:10066000309709F00995FF91EF91BF91AF919F915C
:100670008F917F916F915F914F913F912F910F904B
:100680000FBE0F901F9018951F920F920FB60F92EA
:1006900011242F933F934F935F936F937F938F9387
:1006A0009F93AF93BF93EF93FF93E0919000F091EE
:1006B0009100309709F00995FF91EF91BF91AF91AB
:1006C0009F918F917F916F915F914F913F912F916A
:1006D0000F900FBE0F901F9018951F920F920FB69C
:1006E0000F9211242F933F934F935F936F937F93B8
:1006F0008F939F93AF93BF93EF93FF93E0918E00FF
:10070000F0918F00309709F00995FF91EF91BF911B
:10071000AF919F918F917F916F915F914F913F9199
:100720002F910F900FBE0F901F9018958FB7806874
:100730008FBF0895FC01892B09F4A9C18081833002
:1007400008F0A7C19181923008F0A5C19281923042
:1007500008F0A3C19381943008F0A1C124813581B0
:10076000203D374008F09DC1811183C083B7806868
:1007700083BF8181882319F0813041F00DC083B798
:100780008F7B83BF83B7877F83BF06C083B78F7B91
:1007900083BF83B7886083BF8381813069F028F08D
:1007A0008230A1F08330E1F024C083B78F7E83BF15
:1007B00083B78F7D83BF1DC087B3886087BB83B736
:1007C000806183BF83B78F7D83BF13C087B3886089
:1007D00087BB83B78F7E83BF83B7806283BF09C027
:1007E00087B3886087BB83B7806183BF83B780622C
:1007F00083BF848195818032910509F454C180388A
:10080000910509F452C1A081B0E0AA0FBB1FAF59F6
:10081000BF4F8D939C93828181110BC08181811187
:1008200004C089B7816089BF0AC089B7826089BF67
:1008300006C089B78E7F89BF89B78D7F89BF8681C2
:1008400097818F3F910511F008F031C120853185E6
:100850002F3F310511F008F02CC12181211104C076
:1008600082BF1CBE86E030C112BE80858CBF86E090
:100870002BC1813009F08BC08FB588608FBD8FB5DB
:1008800084608FBD8181882319F0813071F019C097
:100890008FB58E7F8FBD8FB58D7F8FBD8EB5877FD6
:1008A0008EBD8EB58F7E8EBD0CC08FB58E7F8FBDF9
:1008B0008FB58D7F8FBD8EB588608EBD8EB58F7ED6
:1008C0008EBD8381813069F028F08230A1F08330C1
:1008D000E1F024C08FB58F7B8FBD8FB58F778FBD33
:1008E0001DC081B3806281BB8FB580648FBD8FB521
:1008F0008F778FBD13C081B3806281BB8FB58F7B33
:100900008FBD8FB580688FBD09C081B3806281BB08
:100910008FB580648FBD8FB580688FBD84819581D0
:100920008032910509F4C7C08038910509F4C5C02B
:10093000A081B0E0AA0FBB1FAF59BF4F8D939C930E
:10094000828181110BC08181811104C089B78460CB
:1009500089BF0AC089B7806189BF06C089B78B7F0C
:1009600089BF89B78F7E89BF8181811108C0868147
:1009700097819DBD8CBD1BBC1ABC86E0A5C01DBC6B
:100980001CBC808591859BBD8ABD86E09DC085B5D8
:10099000806885BD8181882319F0813041F00DC0C8
:1009A00085B58F7B85BD85B5877F85BD06C085B53F
:1009B0008F7B85BD85B5886085BD8381813069F079
:1009C00028F08230A1F08330E1F024C085B58F7E1D
:1009D00085BD85B58F7D85BD1DC081B3806881BB18
:1009E00085B5806185BD85B58F7D85BD13C081B31B
:1009F000806881BB85B58F7E85BD85B5806285BDEC
:100A000009C081B3806881BB85B5806185BD85B52E
:100A1000806285BD848195819C01225031092230FC
:100A2000310508F44CC0A081B0E0AA0FBB1FAF593C
:100A3000BF4F8D939C93828181110BC08181811165
:100A400004C089B7806489BF0AC089B7806889BF3C
:100A500006C089B78F7B89BF89B78F7789BF8681A9
:100A600097818F3F910509F060F5208531852F3FF3
:100A7000310509F040F52181211104C084BD13BC6A
:100A800086E022C014BC808583BD86E01DC085E061
:100A90001BC080E019C081E017C082E015C083E070
:100AA00013C084E011C084E00FC084E00DC085E075
:100AB0000BC085E009C084E007C084E005C084E085
:100AC00003C085E001C085E0863031F4E081F0E0CC
:100AD000E056FF4F91E0908308958330F8F4E82FBB
:100AE000F0E0E056FF4F90819130D1F4813059F021
:100AF00018F0823061F016C06F3F710509F0A0F464
:100B000062BF86E008957DBD6CBD86E008956F3FAD
:100B1000710509F058F464BD86E0089580E00895F9
:100B200088E0089586E0089585E0089585E00895B9
:100B30008330E8F5282F30E0F901E056FF4F90812F
:100B40009130B9F5603D97E07907A8F5813099F0CB
:100B500018F08230F9F031C06032710581F16038EF
:100B6000710579F1220F331FF901EF59FF4F71839E
:100B7000608386E008956032710529F1603871055F
:100B800021F1220F331FF901EF59FF4F7183608369
:100B900086E00895CB0102970297C8F0220F331F19
:100BA000F901EF59FF4F7183608386E0089580E07B
:100BB000089588E0089584E0089586E0089584E02B
:100BC000089584E0089584E0089584E0089584E021
:100BD00008958330D8F54230D8F561157105D1F10B
:100BE0008130A1F018F0823009F136C0411106C001
:100BF00070939F0060939E0086E00895413071F5E8
:100C0000709399006093980086E00895411106C0A2
:100C100070939D0060939C0086E00895413001F53B
:100C2000709397006093960086E00895411106C086
:100C300070939B0060939A0086E00895413091F490
:100C4000709395006093940086E0089580E0089585
:100C500081E0089585E0089586E0089586E008958E
:100C600086E0089586E00895833008F018C1E82FE3
:100C7000F0E0E056FF4F9081913009F012C18130D1
:100C800009F45CC020F0823009F4AFC00CC180913F
:100C9000610090916200803D27E0920708F005C155
:100CA0008032910509F403C18038910509F401C12E
:100CB00083309105F1F128F481309105B1F080F095
:100CC00032C080349105E9F018F40897A1F0F3C020
:100CD000811521E09207D9F081159440F1F0EBC025
:100CE00083B7887F83BF86E0089583B7887F81605C
:100CF00083BF86E0089583B7887F826083BF86E0E4
:100D0000089583B7887F836083BF86E0089583B7A3
:100D1000887F846083BF86E0089583B7887F85607D
:100D200083BF86E0089583B7887F866083BF86E0AF
:100D3000089583B7876083BF86E00895809163003C
:100D400090916400803D27E0920708F0B6C08032A1
:100D5000910509F4B4C08038910509F4B2C083301C
:100D60009105F1F128F481309105B1F080F032C0A5
:100D700080349105E9F018F40897A1F0A4C081151A
:100D800021E09207D9F081159440F1F09CC08EB516
:100D9000887F8EBD86E008958EB5887F81608EBD88
:100DA00086E008958EB5887F82608EBD86E00895C6
:100DB0008EB5887F83608EBD86E008958EB5887F6E
:100DC00084608EBD86E008958EB5887F85608EBD77
:100DD00086E008958EB5887F86608EBD86E0089592
:100DE0008EB587608EBD86E00895809165009091F4
:100DF0006600803D27E0920708F067C083309105C8
:100E000009F465C08230910509F463C08032910510
:100E100049F138F481309105C9F098F00897E1F074
:100E20005AC08038910551F120F48034910501F1C8
:100E300052C0811521E0920739F18115944051F19A
:100E40004AC085B5887F85BD86E0089585B5887FD1
:100E5000816085BD86E0089585B5887F826085BD07
:100E600086E0089585B5887F836085BD86E0089516
:100E700085B5887F846085BD86E0089585B5887FC7
:100E8000856085BD86E0089585B5887F866085BDCF
:100E900086E0089585B5876085BD86E0089580E089
:100EA000089588E0089586E0089584E0089584E038
:100EB000089584E0089586E0089584E0089584E02C
:100EC000089584E0089586E0089584E0089584E01C
:100ED000089584E0089586E008958330E0F4E82FD3
:100EE000F0E0E056FF4F90819130B9F4813049F045
:100EF00018F0823059F013C083B7887F83BF86E033
:100F000008958EB5887F8EBD86E0089585B5887F6B
:100F100085BD86E0089580E0089588E0089586E024
:100F200008951F920F920FB60F9211242F933F93A3
:100F30004F935F936F937F938F939F93AF93BF93E1
:100F4000EF93FF93E0919E00F0919F00309709F09E
:100F50000995FF91EF91BF91AF919F918F917F91F3
:100F60006F915F914F913F912F910F900FBE0F9016
:100F70001F9018951F920F920FB60F9211242F9366
:100F80003F934F935F936F937F938F939F93AF9311
:100F9000BF93EF93FF93E0919C00F0919D003097F9
:100FA00009F00995FF91EF91BF91AF919F918F91BA
:100FB0007F916F915F914F913F912F910F900FBE55
:100FC0000F901F9018951F920F920FB60F92112439
:100FD0002F933F934F935F936F937F938F939F9341
:100FE000AF93BF93EF93FF93E0919A00F0919B0032
:100FF000309709F00995FF91EF91BF91AF919F91C3
:101000008F917F916F915F914F913F912F910F90B1
:101010000FBE0F901F9018951F920F920FB60F9250
:1010200011242F933F934F935F936F937F938F93ED
:101030009F93AF93BF93EF93FF93E0919800F0914C
:101040009900309709F00995FF91EF91BF91AF9109
:101050009F918F917F916F915F914F913F912F91D0
:101060000F900FBE0F901F9018951F920F920FB602
:101070000F9211242F933F934F935F936F937F931E
:101080008F939F93AF93BF93EF93FF93E09196005D
:10109000F0919700309709F00995FF91EF91BF917A
:1010A000AF919F918F917F916F915F914F913F9100
:1010B0002F910F900FBE0F901F9018951F920F92B7
:1010C0000FB60F9211242F933F934F935F936F931B
:1010D0007F938F939F93AF93BF93EF93FF93E09191
:1010E0009400F0919500309709F00995FF91EF91E8
:1010F000BF91AF919F918F917F916F915F914F9130
:101100003F912F910F900FBE0F901F901895CF9287
:10111000DF92EF92FF920F931F936B017C012111DD
:1011200065C1411169C020E030E040E057E40E9411
:10113000941218160CF459C020E030E040E052E45C
:10114000C701B6010E949412181634F081E090E0B5
:10115000F8019183808321C420E030E040E853E42B
:10116000C701B6010E94941218163CF088E090E086
:10117000F8019183808381E010C420E030E040E0FA
:1011800055E4C701B6010E94941218163CF080E4A1
:1011900090E0F8019183808381E0FFC320E030E09C
:1011A00040E056E4C701B6010E94941218163CF0C4
:1011B00080E091E0F8019183808381E0EEC320E03C
:1011C00030E040E057E4C701B6010E9494121816BF
:1011D0003CF080E094E0F8019183808381E0DDC3FE
:1011E000F8011182108281E0D8C382E090E0F8011A
:1011F0009183808381E0D1C3413009F069C020E050
:1012000030E040E05BE40E94941218160CF459C0E0
:1012100020E030E040E056E4C701B6010E9494129D
:10122000181634F081E090E0F80191838083B5C313
:1012300020E030E040E857E4C701B6010E94941274
:1012400018163CF088E090E0F8019183808381E0FB
:10125000A4C320E030E040E059E4C701B6010E9499
:10126000941218163CF080E490E0F801918380839A
:1012700081E093C320E030E040E05AE4C701B601CA
:101280000E94941218163CF080E091E0F8019183DE
:10129000808381E082C320E030E040E05BE4C7016E
:1012A000B6010E94941218163CF080E094E0F80118
:1012B0009183808381E071C3F8011182108281E003
:1012C0006CC382E090E0F8019183808381E065C384
:1012D000423009F05BC320E030E040E057E40E9478
:1012E000941218160CF47BC020E030E040E052E489
:1012F000C701B6010E949412181634F081E090E004
:10130000F8019183808349C320E030E040E853E452
:10131000C701B6010E94941218163CF088E090E0D4
:10132000F8019183808381E038C320E030E040E819
:1013300054E4C701B6010E94941218163CF080E2F2
:1013400090E0F8019183808381E027C320E030E0C2
:1013500040E055E4C701B6010E94941218163CF013
:1013600080E490E0F8019183808381E016C320E05F
:1013700030E040E855E4C701B6010E949412181607
:101380003CF080E890E0F8019183808381E005C320
:1013900020E030E040E056E4C701B6010E9494121C
:1013A00018163CF080E091E0F8019183808381E0A1
:1013B000F4C220E030E040E057E4C701B6010E94EB
:1013C000941218163CF080E094E0F8019183808339
:1013D00081E0E3C2F8011182108281E0DEC282E086
:1013E00090E0F8019183808381E0D7C2213009F039
:1013F00065C1411169C02FE632E143E052E40E9429
:10140000941218160CF459C02FE632E143E05DE364
:10141000C701B6010E949412181634F081E090E0E2
:10142000F80191838083B9C22FE632E143E85EE39D
:10143000C701B6010E94941218163CF088E090E0B3
:10144000F8019183808381E0A8C22FE632E143E076
:1014500050E4C701B6010E94941218163CF080E4D3
:1014600090E0F8019183808381E097C22FE632E11A
:1014700043E051E4C701B6010E94941218163CF0F3
:1014800080E091E0F8019183808381E086C22FE6BD
:1014900032E143E052E4C701B6010E9494121816EB
:1014A0003CF080E094E0F8019183808381E075C294
:1014B000F8011182108281E070C282E090E0F801B0
:1014C0009183808381E069C2413009F069C02FE6D1
:1014D00032E143E056E40E94941218160CF459C00D
:1014E0002FE632E143E051E4C701B6010E949412B5
:1014F000181634F081E090E0F801918380834DC2AA
:101500002FE632E143E852E4C701B6010E9494128B
:1015100018163CF088E090E0F8019183808381E028
:101520003CC22FE632E143E054E4C701B6010E9419
:10153000941218163CF080E490E0F80191838083C7
:1015400081E02BC22FE632E143E055E4C701B6014A
:101550000E94941218163CF080E091E0F80191830B
:10156000808381E01AC22FE632E143E056E4C701EE
:10157000B6010E94941218163CF080E094E0F80145
:101580009183808381E009C2F8011182108281E099
:1015900004C282E090E0F8019183808381E0FDC184
:1015A000423009F0F5C120E030E040E057E40E940D
:1015B000941218160CF47BC02FE632E143E05DE391
:1015C000C701B6010E949412181634F081E090E031
:1015D000F80191838083E1C12FE632E143E85EE3C5
:1015E000C701B6010E94941218163CF088E090E002
:1015F000F8019183808381E0D0C12FE632E143E896
:101600005FE3C701B6010E94941218163CF080E215
:1016100090E0F8019183808381E0BFC12FE632E141
:1016200043E050E4C701B6010E94941218163CF042
:1016300080E490E0F8019183808381E0AEC12FE6E1
:1016400032E143E850E4C701B6010E949412181633
:101650003CF080E890E0F8019183808381E09DC1B7
:101660002FE632E143E051E4C701B6010E94941233
:1016700018163CF080E091E0F8019183808381E0CE
:101680008CC12FE632E143E052E4C701B6010E946B
:10169000941218163CF080E094E0F8019183808366
:1016A00081E07BC1F8011182108281E076C182E085
:1016B00090E0F8019183808381E06FC1223009F0CE
:1016C00069C1411169C02DEB37E346E05DE30E943B
:1016D000941218160CF459C02DEB37E346E058E38A
:1016E000C701B6010E949412181634F081E090E010
:1016F000F8019183808351C12DEB37E346E859E32C
:10170000C701B6010E94941218163CF088E090E0E0
:10171000F8019183808381E040C12DEB37E346E0FF
:101720005BE3C701B6010E94941218163CF080E4F6
:1017300090E0F8019183808381E02FC12DEB37E3A6
:1017400046E05CE3C701B6010E94941218163CF013
:1017500080E091E0F8019183808381E01EC12DEB50
:1017600037E346E05DE3C701B6010E949412181604
:101770003CF080E094E0F8019183808381E00DC12A
:10178000F8011182108281E008C182E090E0F80146
:101790009183808381E001C1413009F069C02DEB64
:1017A00037E346E051E40E94941218160CF459C035
:1017B0002DEB37E346E05CE3C701B6010E949412CB
:1017C000181634F081E090E0F80191838083E5C041
:1017D0002DEB37E346E85DE3C701B6010E949412A2
:1017E00018163CF088E090E0F8019183808381E056
:1017F000D4C02DEB37E346E05FE3C701B6010E949A
:10180000941218163CF080E490E0F80191838083F4
:1018100081E0C3C02DEB37E346E050E4C701B601D9
:101820000E94941218163CF080E091E0F801918338
:10183000808381E0B2C02DEB37E346E051E4C7017D
:10184000B6010E94941218163CF080E094E0F80172
:101850009183808381E0A1C0F8011182108281E030
:101860009CC082E090E0F8019183808381E095C084
:10187000423009F091C02DEB37E346E05DE30E9472
:10188000941218160CF47BC02DEB37E346E058E3B6
:10189000C701B6010E949412181634F081E090E05E
:1018A000F8019183808379C02DEB37E346E859E353
:1018B000C701B6010E94941218163CF088E090E02F
:1018C000F8019183808381E068C02DEB37E346E81F
:1018D0005AE3C701B6010E94941218163CF080E248
:1018E00090E0F8019183808381E057C02DEB37E3CE
:1018F00046E05BE3C701B6010E94941218163CF063
:1019000080E490E0F8019183808381E046C02DEB74
:1019100037E346E85BE3C701B6010E94941218164C
:101920003CF080E890E0F8019183808381E035C04D
:101930002DEB37E346E05CE3C701B6010E94941249
:1019400018163CF080E091E0F8019183808381E0FB
:1019500024C02DEB37E346E05DE3C701B6010E94EA
:10196000941218163CF080E094E0F8019183808393
:1019700081E013C0F8011182108281E00EC082E084
:1019800090E0F8019183808381E007C080E005C08A
:1019900080E003C080E001C080E01F910F91FF90C4
:1019A000EF90DF90CF900895EF92FF920F931F93E7
:1019B00081118AC161117CC040345105A9F138F40C
:1019C0004130510569F048305105F9F06CC04115BE
:1019D00081E05807F1F14115544009F44FC063C04C
:1019E000A901980160E070E080E092E40E94271273
:1019F00020E030E040E051E40E94F1130E940B131C
:101A0000F7017183608381E01DC5A901980160E041
:101A100070E080E893E40E9427120E940B13F70104
:101A20007183608381E00EC5A901980160E070E0D8
:101A300080E095E40E94271220E030E040E05EE381
:101A40000E94F1130E940B13F7017183608381E000
:101A5000F9C4A901980160E070E080E096E40E947A
:101A6000271220E030E040E05DE30E94F1130E9485
:101A70000B13F7017183608381E0E4C4A90198012D
:101A800060E070E080E097E40E94271220E030E000
:101A900040E05CE30E94F1130E940B13F701718395
:101AA000608381E0CFC4F7011182108280E0CAC454
:101AB000613009F083C040345105E1F138F4413020
:101AC000510571F04830510501F173C04115F1E045
:101AD0005F0709F444C04115544009F455C069C07A
:101AE000A90198016FE672E183E09DE30E9427124D
:101AF0002FE632E143E059E30E9499120E940B1352
:101B0000F7017183608381E09DC4A90198016FE6AC
:101B100072E183E89EE30E9427122FE632E143E858
:101B20005AE30E9499120E940B13F701718360839C
:101B300081E088C4A90198016FE672E183E090E436
:101B40000E9427122FE632E143E05CE30E949912E3
:101B50000E940B13F7017183608381E073C4A901B4
:101B600098016FE672E183E091E40E9427122FE66C
:101B700032E143E05DE30E9499120E940B13F701EA
:101B80007183608381E05EC4A90198016FE672E110
:101B900083E092E40E9427122FE632E143E05EE305
:101BA0000E9499120E940B13F7017183608381E0F8
:101BB00049C4F7011182108280E044C4623009F008
:101BC0003AC440345105E1F138F44130510571F027
:101BD0004830510501F173C04115F1E05F0709F488
:101BE00044C04115544009F455C069C0A901980189
:101BF0006DEB77E386E098E30E9427122DEB37E345
:101C000046E054E30E9499120E940B13F70171837E
:101C1000608381E017C4A90198016DEB77E386E842
:101C200099E30E9427122DEB37E346E855E30E9423
:101C300099120E940B13F7017183608381E002C443
:101C4000A90198016DEB77E386E09BE30E942712E0
:101C50002DEB37E346E057E30E9499120E940B13E5
:101C6000F7017183608381E0EDC3A90198016DEBF9
:101C700077E386E09CE30E9427122DEB37E346E0F2
:101C800058E30E9499120E940B13F701718360833D
:101C900081E0D8C3A90198016DEB77E386E09DE36D
:101CA0000E9427122DEB37E346E059E30E94991278
:101CB0000E940B13F7017183608381E0C3C3F701B6
:101CC0001182108280E0BEC3813009F08AC16111A7
:101CD0007CC040345105A9F138F44130510569F018
:101CE00048305105F9F06CC04115F1E05F07F1F1A2
:101CF0004115544009F44FC063C0A901980160E048
:101D000070E080E096E40E94271220E030E040E09E
:101D100051E40E94F1130E940B13F7017183608359
:101D200081E090C3A901980160E070E080E897E449
:101D30000E9427120E940B13F7017183608381E0D8
:101D400081C3A901980160E070E080E099E40E94FD
:101D5000271220E030E040E05EE30E94F1130E9491
:101D60000B13F7017183608381E06CC3A9019801B3
:101D700060E070E080E09AE40E94271220E030E00A
:101D800040E05DE30E94F1130E940B13F7017183A1
:101D9000608381E057C3A901980160E070E080E0B2
:101DA0009BE40E94271220E030E040E05CE30E94C8
:101DB000F1130E940B13F7017183608381E042C32A
:101DC000F7011182108280E03DC3613009F083C0C9
:101DD00040345105E1F138F44130510571F048309B
:101DE000510501F173C04115F1E05F0709F444C0EA
:101DF0004115544009F455C069C0A90198016FE626
:101E000072E183E091E40E9427122FE632E143E081
:101E100059E30E9499120E940B13F70171836083AA
:101E200081E010C3A90198016FE672E183E892E4B2
:101E30000E9427122FE632E143E85AE30E949912EA
:101E40000E940B13F7017183608381E0FBC2A9013B
:101E500098016FE672E183E094E40E9427122FE676
:101E600032E143E05CE30E9499120E940B13F701F8
:101E70007183608381E0E6C2A90198016FE672E197
:101E800083E095E40E9427122FE632E143E05DE310
:101E90000E9499120E940B13F7017183608381E005
:101EA000D1C2A90198016FE672E183E096E40E9435
:101EB00027122FE632E143E05EE30E9499120E946E
:101EC0000B13F7017183608381E0BCC2F7011182BB
:101ED000108280E0B7C2623009F0AFC240345105D1
:101EE000E1F138F44130510571F04830510501F10C
:101EF00073C04115F1E05F0709F444C04115544037
:101F000009F455C069C0A90198016DEB77E386E03B
:101F10009CE30E9427122DEB37E346E054E30E9436
:101F200099120E940B13F7017183608381E08AC2CA
:101F3000A90198016DEB77E386E89DE30E942712E3
:101F40002DEB37E346E855E30E9499120E940B13EC
:101F5000F7017183608381E075C2A90198016DEB7F
:101F600077E386E09FE30E9427122DEB37E346E0FC
:101F700057E30E9499120E940B13F701718360834B
:101F800081E060C2A90198016DEB77E386E090E4FF
:101F90000E9427122DEB37E346E058E30E94991286
:101FA0000E940B13F7017183608381E04BC2A9018A
:101FB00098016DEB77E386E091E40E9427122DEB08
:101FC00037E346E059E30E9499120E940B13F70190
:101FD0007183608381E036C2F7011182108280E054
:101FE00031C2823009F02BC26111B1C040345105B9
:101FF00009F454C058F44830510561F1403251059C
:10200000C1F14130510509F09DC00FC04115F1E00B
:102010005F0709F46DC0411584E0580709F47DC0DD
:102020004038510509F08EC04EC0A901980160E00A
:1020300070E080E092E40E94271220E030E040E06F
:1020400051E40E94F1130E940B13F7017183608326
:1020500081E0F8C1A901980160E070E080E893E4B4
:102060000E9427120E940B13F7017183608381E0A5
:10207000E9C1A901980160E070E080E894E40E9461
:10208000271220E030E040E85EE30E94F1130E9456
:102090000B13F7017183608381E0D4C1A90198011A
:1020A00060E070E080E095E40E94271220E030E0DC
:1020B00040E05EE30E94F1130E940B13F70171836D
:1020C000608381E0BFC1A901980160E070E080E811
:1020D00095E40E94271220E030E040E85DE30E9492
:1020E000F1130E940B13F7017183608381E0AAC191
:1020F000A901980160E070E080E096E40E94271258
:1021000020E030E040E05DE30E94F1130E940B13F9
:10211000F7017183608381E095C1A901980160E0B6
:1021200070E080E097E40E94271220E030E040E079
:102130005CE30E94F1130E940B13F701718360832B
:1021400081E080C1F7011182108280E07BC16130A3
:1021500009F0B7C04034510509F45AC058F448306A
:10216000510561F140325105F1F14130510509F05D
:10217000A3C00FC04115F1E05F0709F473C041151A
:1021800084E0580709F483C04038510509F094C031
:1021900054C0A90198016FE672E183E09DE30E94BB
:1021A00027122FE632E143E059E30E9499120E9480
:1021B0000B13F7017183608381E044C1A901980189
:1021C0006FE672E183E89EE30E9427122FE632E178
:1021D00043E85AE30E9499120E940B13F70171839E
:1021E000608381E02FC1A90198016FE672E183E865
:1021F0009FE30E9427122FE632E143E85BE30E944F
:1022000099120E940B13F7017183608381E01AC158
:10221000A90198016FE672E183E090E40E94271221
:102220002FE632E143E05CE30E9499120E940B1317
:10223000F7017183608381E005C1A90198016FE610
:1022400072E183E890E40E9427122FE632E143E82E
:102250005CE30E9499120E940B13F7017183608363
:1022600081E0F0C0A90198016FE672E183E091E49A
:102270000E9427122FE632E143E05DE30E949912AB
:102280000E940B13F7017183608381E0DBC0A90119
:1022900098016FE672E183E092E40E9427122FE634
:1022A00032E143E05EE30E9499120E940B13F701B2
:1022B0007183608381E0C6C0F7011182108280E0E3
:1022C000C1C0623009F0BDC04034510509F45AC0A4
:1022D00058F44830510561F140325105F1F1413077
:1022E000510509F0A3C00FC04115F1E05F0709F4E3
:1022F00073C0411584E0580709F483C04038510584
:1023000009F094C054C0A90198016DEB77E386E011
:1023100098E30E9427122DEB37E346E054E30E9436
:1023200099120E940B13F7017183608381E08AC0C8
:10233000A90198016DEB77E386E899E30E942712E3
:102340002DEB37E346E855E30E9499120E940B13E8
:10235000F7017183608381E075C0A90198016DEB7D
:1023600077E386E89AE30E9427122DEB37E346E8ED
:1023700056E30E9499120E940B13F7017183608348
:1023800081E060C0A90198016DEB77E386E09BE3F3
:102390000E9427122DEB37E346E057E30E94991283
:1023A0000E940B13F7017183608381E04BC0A90188
:1023B00098016DEB77E386E89BE30E9427122DEBF3
:1023C00037E346E857E30E9499120E940B13F70186
:1023D0007183608381E036C0A90198016DEB77E3DA
:1023E00086E09CE30E9427122DEB37E346E058E39A
:1023F0000E9499120E940B13F7017183608381E0A0
:1024000021C0A90198016DEB77E386E09DE30E946E
:1024100027122DEB37E346E059E30E9499120E9400
:102420000B13F7017183608381E00CC0F701118207
:10243000108280E007C081E005C081E003C080E039
:1024400001C081E01F910F91FF90EF9008955058C7
:10245000BB27AA270E943F120C94B2130E94A41318
:1024600038F00E94AB1320F039F49F3F19F426F4A2
:102470000C94A1130EF4E095E7FB0C949B13E92F49
:102480000E94C31358F3BA176207730784079507AE
:1024900020F079F4A6F50C94E5130EF4E0950B2EDC
:1024A000BA2FA02D0B01B90190010C01CA01A001A6
:1024B0001124FF27591B99F0593F50F4503E68F101
:1024C0001A16F040A22F232F342F4427585FF3CF42
:1024D000469537952795A795F0405395C9F77EF413
:1024E0001F16BA0B620B730B840BBAF09150A1F05C
:1024F000FF0FBB1F661F771F881FC2F70EC0BA0FE2
:10250000621F731F841F48F4879577956795B79569
:10251000F7959E3F08F0B0CF9395880F08F0992764
:10252000EE0F9795879508950E94771308F481E040
:1025300008950E94AD120C94B2130E94AB1358F090
:102540000E94A41340F029F45F3F29F00C949B13E0
:1025500051110C94E6130C94A1130E94C31368F359
:102560009923B1F3552391F3951B550BBB27AA274C
:1025700062177307840738F09F5F5F4F220F331F86
:10258000441FAA1FA9F335D00E2E3AF0E0E832D04E
:1025900091505040E695001CCAF72BD0FE2F29D051
:1025A000660F771F881FBB1F261737074807AB0723
:1025B000B0E809F0BB0B802DBF01FF2793585F4F98
:1025C0003AF09E3F510578F00C949B130C94E6135F
:1025D0005F3FE4F3983ED4F3869577956795B7957A
:1025E000F7959F5FC9F7880F911D9695879597F985
:1025F0000895E1E0660F771F881FBB1F62177307FE
:102600008407BA0720F0621B730B840BBA0BEE1F12
:1026100088F7E09508950E94CB1388F09F5798F0B3
:10262000B92F9927B751B0F0E1F0660F771F881FD7
:10263000991F1AF0BA95C9F714C0B13091F00E94F1
:10264000E513B1E008950C94E513672F782F8827E0
:10265000B85F39F0B93FCCF3869577956795B39518
:10266000D9F73EF490958095709561957F4F8F4F87
:102670009F4F0895E89409C097FB3EF4909580958C
:10268000709561957F4F8F4F9F4F9923A9F0F92F38
:1026900096E9BB279395F695879577956795B795B6
:1026A000F111F8CFFAF4BB0F11F460FF1BC06F5F9C
:1026B0007F4F8F4F9F4F16C0882311F096E911C0AE
:1026C000772321F09EE8872F762F05C0662371F0CF
:1026D00096E8862F70E060E02AF09A95660F771FE3
:1026E000881FDAF7880F9695879597F90895990FBF
:1026F0000008550FAA0BE0E8FEEF16161706E807CC
:10270000F907C0F012161306E407F50798F0621BEC
:10271000730B840B950B39F40A2661F0232B242BC1
:10272000252B21F408950A2609F4A140A6958FEFE0
:10273000811D811D089597F99F6780E870E060E032
:1027400008959FEF80EC089500240A94161617064A
:1027500018060906089500240A9412161306140692
:1027600005060895092E0394000C11F4882352F0F5
:10277000BB0F40F4BF2B11F460FF04C06F5F7F4FAD
:102780008F4F9F4F089557FD9058440F551F59F094
:102790005F3F71F04795880F97FB991F61F09F3F4E
:1027A00079F087950895121613061406551FF2CF77
:1027B0004695F1DF08C0161617061806991FF1CFC7
:1027C00086957105610508940895E894BB276627EE
:1027D0007727CB0197F908950E94771308F48FEFBC
:1027E00008950E9404140C94B2130E94A41338F0AC
:1027F0000E94AB1320F0952311F00C949B130C94C2
:10280000A11311240C94E6130E94C31370F3959F37
:10281000C1F3950F50E0551F629FF001729FBB27D7
:10282000F00DB11D639FAA27F00DB11DAA1F649F73
:102830006627B00DA11D661F829F2227B00DA11D26
:10284000621F739FB00DA11D621F839FA00D611DAC
:10285000221F749F3327A00D611D231F849F600DCD
:10286000211D822F762F6A2F11249F5750409AF0F6
:10287000F1F088234AF0EE0FFF1FBB1F661F771F82
:10288000881F91505040A9F79E3F510580F00C944D
:102890009B130C94E6135F3FE4F3983ED4F38695C4
:1028A00077956795B795F795E7959F5FC1F7FE2BED
:1028B000880F911D9695879597F90895F894FFCF05
:0828C00003D007D007D0070088
:00000001FF
