S01900006361725F61766F69645F70726F6A6563742E737265630D
S11300000C9446000C94320B0C945B0B0C94840BF4
S11300100C94B7100C943C100C9463000C948E1048
S11300200C9463000C9413100C9465100C94EA0F58
S11300300C9463000C9463000C9463000C946300B0
S11300400C9463000C9463000C9463000C946300A0
S11300500C946300500E550E5B0E0B0F610E0B0FCC
S1130060670E6D0E730E790E930E980E9E0E130F7F
S1130070A40E130FAA0EB00EB60EBC0ED10ED60EE1
S1130080DC0EE20EE80EEE0EF40EFA0E11241FBE84
S1130090CFE5D8E0DEBFCDBF10E0A0E6B0E0ECE1F4
S11300A0FAE302C005900D92A83EB107D9F721E00A
S11300B0A8EEB0E001C01D92AC33B207E1F70E9494
S11300C021090C940C1D0C9400000E94AD0B0E949D
S11300D0E70267E082E00E944E0164E081E00E9452
S11300E0DF0342E063E081E00E94AB0882E790E036
S11300F00E9452018CE690E00E94520186E690E054
S11301000E94520180E690E00E94520108950F93EC
S11301101F93CF93DF9300D01F92CDB7DEB78C012E
S11301201A8219821B82CE0101960E94FD088981E0
S11301309A81F801918380839C018634910508F1AA
S11301404091EA0041111DC01092E9008091E8003D
S1130150811109C040E050E060EA70E40E94810728
S113016081E08093E800BE016D5F7F4F80E00E94D4
S1130170A9048B81813009F043C08093EA0085E0B3
S113018042C02634310550F04091EA00413031F448
S11301901092E9001092E80085E035C0AC014E51A0
S11301A051094832510540F41092E8001092E900D8
S11301B01092EA0081E027C044970A9770F41092E5
S11301C0E8001092EA008091E9008F5F8093E900D3
S11301D08430C1F41092E90016C02431310540F492
S11301E01092EA001092E9001092E80083E00BC03C
S11301F01092EA001092E9001092E80086E003C031
S113020080E001C082E00F900F900F90DF91CF91BA
S11302101F910F9108950F931F93CF93C82F8B01B4
S11302200E94DB03C230B1F028F4CC2349F0C13082
S113023061F023C0C430C1F090F0C530D1F01DC0CE
S113024084EA90E00E948C0318C080EB90E00E9446
S11302508C0313C08FEB90E00E948C030EC08EECD5
S113026090E00E948C0309C08FE990E00E948C0307
S113027004C08AED90E00E948C034EE750E060E0F9
S113028081E00E94B20364E081E00E949F03C80100
S11302900E94BD03CF911F910F91089540E00E94E9
S11302A038090895CF93DF93009711F1EC01698128
S11302B041E088810E9438098130E1F46B8141E09A
S11302C08A810E9438098130B9F46D8140E08C81C3
S11302D00E945D04813091F440E0698188810E942C
S11302E0BE0940E06B818A810E94BE0981E007C09B
S11302F080E005C080E003C080E001C081E0DF91C0
S1130300CF910895EF92FF920F931F93CF93DF93B2
S1130310CDB7DEB729970FB6F894DEBF0FBECDBFB9
S1130320FC012281283008F04AC02381223008F0E1
S113033048C03081333008F046C04181433008F072
S113034044C0311104C010927900F12C0DC0313039
S113035029F430937900FF24F39406C032E03093FB
S113036079006894FF24F1F8211104C06894EE2404
S1130370E1F804C00F2EF3E0EF2EF02D8C01498339
S11303801A821C82FC0182818D8381E08B83198611
S113039018861F821E82818180937800CE01019687
S11303A00E94B10BF80181810E94280E6E2D8F2DC1
S11303B00E94C70A8F2D0E94F90A84E007C081E0D9
S11303C005C080E003C083E001C083E029960FB636
S11303D0F894DEBF0FBECDBFDF91CF911F910F9177
S11303E0FF90EF9008959C0190917900911105C0C0
S11303F0C9010E94140B84E00895913029F4C901C5
S11304000E941E0B84E00895923029F4C9010E94D1
S1130410280B84E0089583E00895823090F42091BD
S11304207900233080F4811106C062E0822F0E949B
S1130430C70A84E0089563E0822F0E94C70A84E01B
S1130440089580E0089582E008950097C1F0209116
S113045078002330B0F4BC01211105C080E00E9473
S11304603D0F84E00895213029F481E00E943D0F7E
S113047084E0089582E00E943D0F84E0089582E0C4
S1130480089583E0089580917800833048F58111C0
S11304900CC00E94190F60E070E080E00E94700DB3
S11304A080E00E94280E84E00895813061F40E9467
S11304B0190F60E070E081E00E94700D81E00E94FD
S11304C0280E84E0089582E00E94190F60E070E035
S11304D082E00E94700D82E00E94280E84E008955C
S11304E083E008951F93CF93DF931F92CDB7DEB7B8
S11304F0182F198240E061E080E00E94BE0940E0CC
S113050062E080E00E94BE098FEC97E00197F1F76A
S113051000C0000041E063E080E00E94BE098FEC6F
S113052097E00197F1F700C00000BE016F5F7F4FB5
S113053080E00E94A00A69816F70812F807F682B00
S1130540698380E00E94860A8FEC97E00197F1F7B7
S113055000C0000040E063E080E00E94BE098FEC30
S113056097E00197F1F700C0000041E063E080E00C
S11305700E94BE098FEC97E00197F1F700C00000DC
S1130580BE016F5F7F4F80E00E94A00A20E1129FAE
S1130590C001112469816F70682B698380E00E9417
S11305A0860A8FEC97E00197F1F700C0000040E065
S11305B063E080E00E94BE098FEC97E00197F1F7B9
S11305C000C000000F90DF91CF911F91089541E08A
S11305D061E080E00E94380941E062E080E00E942E
S11305E0380941E063E080E00E94380941E064E0BA
S11305F080E00E94380941E065E080E00E9438090B
S113060041E066E080E00E94380941E067E080E074
S11306100E94380982E00E94720288E20E947202FB
S11306208CE00E94720281E00E94720208951F937E
S1130630CF93DF931F92CDB7DEB7182F198241E015
S113064061E080E00E94BE0940E062E080E00E9438
S1130650BE098FEC97E00197F1F700C0000041E07C
S113066063E080E00E94BE098FEC97E00197F1F708
S113067000C00000BE016F5F7F4F80E00E94A00AAF
S113068069816F70812F807F682B698380E00E946D
S1130690860A8FEC97E00197F1F700C0000040E074
S11306A063E080E00E94BE098FEC97E00197F1F7C8
S11306B000C0000041E063E080E00E94BE098FECCE
S11306C097E00197F1F700C00000BE016F5F7F4F14
S11306D080E00E94A00A20E1129FC00111246981D8
S11306E06F70682B698380E00E94860A8FEC97E024
S11306F00197F1F700C0000040E063E080E00E9451
S1130700BE098FEC97E00197F1F700C000000F904D
S1130710DF91CF911F9108950F931F93CF938C0175
S1130720C0E003C00E941703CF5FF801EC0FF11D76
S113073080818111F7CFCF911F910F91089581305E
S113074039F058F0823031F0833031F061E005C087
S1130750605C03C0605F01C0605B862F80680E949C
S113076072020895CF93DF93EA010E949F03CE01A2
S11307700E948C03DF91CF910895CF93DF93CDB77F
S1130780DEB760970FB6F894DEBF0FBECDBF4AE068
S113079050E0BE016F5F7F4F0E94CC1CCE010196DA
S11307A00E948C0360960FB6F894DEBF0FBECDBFD7
S11307B0DF91CF91089581E00E9472020895CF9352
S11307C0DF93C82FD62F41E00E943809813029F4E5
S11307D040E06D2F8C2F0E94BE09DF91CF910895C8
S11307E0CF92DF92EF92FF92CF93C091F1006C2FE2
S11307F070E080E090E00E94951B6B017C0120E09A
S113080030E048EC52E40E94ED1A8823BCF5CC2376
S1130810A9F16091F4008091F5000E94440A80914E
S1130820F3000E94190F8091F200811112C06091AF
S1130830F0008091F3000E949B0D6091ED00709197
S1130840EE008091F3000E94700D81E08093F2002D
S113085010C06091EF008091F3000E949B0D6091A5
S1130860EB007091EC008091F3000E94700D1092E7
S1130870F2008091F3000E94280E19C020E030E0BD
S113088048EC52E4C701B6010E94ED1A811108C078
S113089041E06091F4008091F5000E94BE0907C018
S11308A040E06091F4008091F5000E94BE09CF9170
S11308B0FF90EF90DF90CF900895FF920F931F93D6
S11308C0CF93DF93CDB7DEB729970FB6F894DEBF89
S11308D00FBECDBF843060F5683060F5433060F5FD
S11308E0F42E062F182F8093F5006093F4004093A4
S11308F0F30049831D821A821C821B821F821E827E
S113090019861886CE0101960E94B10B40E060EF73
S113091073E08F2D0E94DD0D41E0602F812F0E9436
S1130920380940E0602F812F0E94BE0981E005C094
S113093080E003C080E001C080E029960FB6F894FF
S1130940DEBF0FBECDBFDF91CF911F910F91FF90FE
S11309500895833068F46115710561F0E82FF0E0C3
S1130960E35FFE4F8081DB018C93108283E0089566
S113097080E0089582E0089580329105E1F038F432
S11309808130910521F198F0089799F01EC08038C4
S11309909105A9F020F48034910579F016C08115F1
S11309A021E0920771F08115944069F00EC080E057
S11309B0089582E0089583E0089584E0089585E031
S11309C0089586E0089587E008958AE0089581E017
S11309D008958F929F92AF92BF92DF92EF92FF920F
S11309E00F931F93CF93DF93CDB7DEB72E970FB638
S11309F0F894DEBF0FBECDBF1A8219821C821B82FF
S1130A001D828E831F82198691E098871E861D861B
S1130A10833008F0D5C04A015B01D82E8E010F5FE8
S1130A201F4F20E0482FC501B4010E94E01081301F
S1130A3009F0C8C049815A814C3D85E0580729F125
S1130A40CE0103967C019501840160E08D2D0E9406
S1130A502D1589819A810E94BC048A878B819C818F
S1130A609C878B87CE0106960E94B10B8D2D0E9428
S1130A70280EAE014B5F5F4F60E08D2D0E94670F23
S1130A808D818823B1F383E0A0C080E094E00E94CC
S1130A90BC048A871C861B86DD2019F092E0D912DB
S1130AA020C020E030E040E058E3C501B4010E94DA
S1130AB04A1C4B015C010E94641B8B0180E090E0A6
S1130AC00E94931B9B01AC01C501B4010E94801AD2
S1130AD020E030E040E057E40E944A1C4B015C01F6
S1130AE033C020E030E040E054E3C501B4010E948B
S1130AF04A1C4B015C010E94641B8B0180E090E066
S1130B000E94931B9B01AC01C501B4010E94801A91
S1130B1020E030E040E05BE40E944A1C4B015C01B1
S1130B2013C0CE0106960E94B10B8D2D0E94280E93
S1130B30AE014B5F5F4F60E08D2D0E94670F9D817A
S1130B409923B1F3015011090115110551F720E062
S1130B5030E0A901C501B4010E94451C1816A4F592
S1130B608E010F5F1F4F20E04D2DC501B4010E947F
S1130B70E01049815A81CE0103967C0195018401DC
S1130B8060E08D2D0E942D1589819A810E94BC04FC
S1130B908A878B819C819C878B87CE0106960E94D5
S1130BA0B10B8D2D0E94280EAE014B5F5F4F60E0AC
S1130BB08D2D0E94670F8D818823B1F383E005C0DA
S1130BC080E003C080E001C083E02E960FB6F89465
S1130BD0DEBF0FBECDBFDF91CF911F910F91FF906C
S1130BE0EF90DF90BF90AF909F908F9008958F9279
S1130BF09F92AF92BF92DF92EF92FF920F931F9357
S1130C00CF93DF93CDB7DEB72E970FB6F894DEBF40
S1130C100FBECDBF1A8219821C821B821D828E8355
S1130C201F82198691E098871E861D86833008F0FE
S1130C30D5C04A015B01D82E8E010F5F1F4F21E002
S1130C40482FC501B4010E94E010813009F0C8C0EA
S1130C5049815A814C3D85E0580729F1CE0103961C
S1130C607C019501840161E08D2D0E942D158981FF
S1130C709A810E94BC048A878B819C819C878B8784
S1130C80CE0106960E94B10B8D2D0E94280EAE0156
S1130C904B5F5F4F60E08D2D0E94670F8D8188232D
S1130CA0B1F383E0A0C080E094E00E94BC048A8792
S1130CB01C861B86DD2019F092E0D91220C02FE695
S1130CC032E143E052E4C501B4010E94F21A4B013F
S1130CD05C010E94641B8B0180E090E00E94931BE6
S1130CE09B01AC01C501B4010E94801A2FE632E1D8
S1130CF043E052E40E944A1C4B015C0133C02FE6DE
S1130D0032E143E056E4C501B4010E94F21A4B01FA
S1130D105C010E94641B8B0180E090E00E94931BA5
S1130D209B01AC01C501B4010E94801A2FE632E197
S1130D3043E056E40E944A1C4B015C0113C0CE01FF
S1130D4006960E94B10B8D2D0E94280EAE014B5FBA
S1130D505F4F60E08D2D0E94670F9D819923B1F351
S1130D60015011090115110551F720E030E0A901E6
S1130D70C501B4010E94451C1816A4F58E010F5F2D
S1130D801F4F21E04D2DC501B4010E94E01049819F
S1130D905A81CE0103967C019501840161E08D2D79
S1130DA00E942D1589819A810E94BC048A878B81B7
S1130DB09C819C878B87CE0106960E94B10B8D2D5A
S1130DC00E94280EAE014B5F5F4F60E08D2D0E94A4
S1130DD0670F8D818823B1F383E005C080E003C0F1
S1130DE080E001C083E02E960FB6F894DEBF0FBEFC
S1130DF0CDBFDF91CF911F910F91FF90EF90DF90C6
S1130E00BF90AF909F908F9008951F93CF93DF93DF
S1130E1080917A00282F30E0F901E250FF4F908151
S1130E20911117C00E94190FE0917A00F0E0EE0FC3
S1130E30FF1FE850FF4F0190F081E02D309709F03B
S1130E400995E0917A00F0E0E35FFE4F81E0808352
S1130E5054C04091F6005091F7004F5F5F4F50939C
S1130E60F7004093F600220F331FF901E45EFE4FB2
S1130E70208131814217530709F03FC00E94190FA6
S1130E801092F7001092F60010917A00C12FD0E072
S1130E90FE01EE0FFF1FEE0FFF1FE05FFE4F6081AC
S1130EA071818281938120E030E0A9010E94451C78
S1130EB018161CF5CC0FDD1FCF5FDE4F68817981DA
S1130EC0812F0E94700DC0917A00EC2FF0E0EE0F9C
S1130ED0FF1FE95FFE4F808191810E94BC04682F4F
S1130EE08C2F0E949B0D80917A000E94280EE09125
S1130EF07A00F0E0E250FF4F1082DF91CF911F9112
S1130F0008958F929F92AF92BF92DF92EF92FF92D9
S1130F100F931F93CF93DF93CDB7DEB72D970FB603
S1130F20F894DEBF0FBECDBF1A8219821C821B82C9
S1130F30E0917A00F0E0E35FFE4F10828D831E8221
S1130F4018861F821D861C8680937A00833008F0E1
S1130F50D4C04A015B01D82E8E010F5F1F4F22E0DF
S1130F60482FC501B4010E94E010813009F0C7C0C8
S1130F7049815A814C3D85E05807C1F0ED2DF0E0E0
S1130F80E250FF4F1082FE0133967F0195018401E8
S1130F9062E08D2D0E942D1589819A810E94BC04E6
S1130FA089878B819C819B878A8798C00D2D10E04F
S1130FB0F801E250FF4F81E0808380E094E00E94DA
S1130FC0BC0489871B861A86DD2019F0F2E0DF1243
S1130FD02FC02DEB37E346E05DE3C501B4010E9469
S1130FE0F21A4B015C010E94641BF801EE0FFF1F13
S1130FF0E45EFE4F7183608380E090E00E94931B67
S11310009B01AC01C501B4010E94801A2DEB37E3AA
S113101046E05DE30E944A1CF801EE0FFF1FEE0F4D
S1131020FF1FE05FFE4F60837183828393832EC032
S11310302DEB37E346E051E4C501B4010E94F21AF6
S11310404B015C010E94641BF801EE0FFF1FE45E7C
S1131050FE4F7183608380E090E00E94931B9B01AC
S1131060AC01C501B4010E94801A2DEB37E346E0C0
S113107051E40E944A1CF801EE0FFF1FEE0FFF1F00
S1131080E05FFE4F60837183828393837801EE0C6B
S1131090FF1CC701895F9E4F4C01000F111F000FF9
S11310A0111FF801E05FFE4F5F0160817181828151
S11310B09381840122E04D2D0E94E010C7018F5FCF
S11310C09E4F7C01F5010081118122813381F4015D
S11310D04081518162E08D2D0E942D15CE0105962F
S11310E00E94B10B40E065E077E08D2D0E94DD0D9C
S11310F08D2D0E94280E83E003C080E001C083E0B0
S11311002D960FB6F894DEBF0FBECDBFDF91CF9101
S11311101F910F91FF90EF90DF90BF90AF909F9041
S11311208F900895809126018F5F809326018130EE
S113113031F40E94430280E00E940D02089582303F
S113114049F484E291E00E9425020E94430281E076
S11311500E940D0208950F931F93CF93DF9300D045
S113116000D0CDB7DEB7843020F5683020F54330A9
S113117020F5062F182F498381E08A8392E09B8310
S11311808C831093230160932201CE0101960E9467
S1131190820182E998E00E94F30141E0602F812FEF
S11311A00E94380940E0602F812F0E94BE0980E030
S11311B005C081E003C081E001C081E00F900F9081
S11311C00F900F90DF91CF911F910F91089541E0FF
S11311D060912201809123010E94BE0940E050E009
S11311E060E271E482E00E94E90440E0609122013F
S11311F0809123010E94BE090895CF93DF93009745
S1131200E1F0EC010E94E708909126019230E1F7A9
S11312102091240130912501AFE9B6E40E94BD1C60
S1131220929582958F7089279F708927019699835B
S113123088831092260180E001C081E0DF91CF9184
S11312400895CF93DF9300D0CDB7DEB70E94650039
S1131250CE0101960E94870069817A810E940B0168
S113126040E050E06AEF73E482E00E94F705F0CFBB
S1131270843008F07BC0683008F07AC0423008F04F
S113128079C0813011F130F08230D1F1833009F42A
S113129052C072C0413061F42AB381E090E002C0D0
S11312A0880F991F6A95E2F7822B8ABB81E0089523
S11312B02AB381E090E002C0880F991F6A95E2F793
S11312C0809582238ABB81E00895413061F427B37D
S11312D081E090E002C0880F991F6A95E2F7822BA3
S11312E087BB81E0089527B381E090E002C0880FB6
S11312F0991F6A95E2F78095822387BB81E0089560
S1131300413061F424B381E090E002C0880F991F5A
S11313106A95E2F7822B84BB81E0089524B381E0CF
S113132090E002C0880F991F6A95E2F780958223A6
S113133084BB81E00895413061F421B381E090E001
S113134002C0880F991F6A95E2F7822B81BB81E066
S1131350089521B381E090E002C0880F991F6A9537
S1131360E2F78095822381BB81E0089582E00895AD
S113137083E0089584E0089581E00895843008F0BE
S11313807BC0683008F07AC0423008F079C0813000
S113139011F130F08230D1F1833009F452C072C0BF
S11313A0413061F42BB381E090E002C0880F991FB3
S11313B06A95E2F7822B8BBB81E008952BB381E021
S11313C090E002C0880F991F6A95E2F78095822306
S11313D08BBB81E00895413061F428B381E090E053
S11313E002C0880F991F6A95E2F7822B88BB81E0BF
S11313F0089528B381E090E002C0880F991F6A9590
S1131400E2F78095822388BB81E00895413061F43E
S113141025B381E090E002C0880F991F6A95E2F736
S1131420822B85BB81E0089525B381E090E002C062
S1131430880F991F6A95E2F78095822385BB81E026
S11314400895413061F422B381E090E002C0880F36
S1131450991F6A95E2F7822B82BB81E0089522B33B
S113146081E090E002C0880F991F6A95E2F78095A9
S1131470822382BB81E0089582E0089583E0089589
S113148080E0089581E008958430D0F56830D0F587
S1131490813091F028F08230D9F0833029F134C0C2
S11314A02BB381E090E002C0880F991F6A95E2F7A0
S11314B082278BBB81E0089528B381E090E002C0CD
S11314C0880F991F6A95E2F7822788BB81E0089507
S11314D025B381E090E002C0880F991F6A95E2F776
S11314E0822785BB81E0089522B381E090E002C0A9
S11314F0880F991F6A95E2F7822782BB81E00895DD
S113150082E0089583E0089581E008958430A0F492
S1131510813049F028F0823049F0833051F00EC018
S11315206BBB81E0089568BB81E0089565BB81E0F1
S1131530089562BB81E0089582E0089581E00895F2
S11315408430F8F461157105F1F0813059F028F018
S1131550823069F0833081F018C089B3FB01808345
S113156081E0089586B3FB01808381E0089583B30D
S1131570FB01808381E0089580B3FB01808381E0D7
S1131580089582E0089580E0089581E0089583300D
S113159040F5643040F5811106C085B78C7F682B17
S11315A065BF83E00895813059F485B770E0660F14
S11315B0771F660F771F837F682B65BF83E00895CD
S11315C0823099F48EEF860F823088F424B730E4A9
S11315D0639FC0011124922F9F7B892B84BF83E0DA
S11315E0089580E0089581E0089581E0089581E000
S11315F008958330A8F4811105C08BB780648BBF34
S113160083E00895813029F48BB780688BBF83E031
S11316100895823039F48BB780628BBF83E00895DC
S113162080E0089583E00895009731F090932C01B1
S113163080932B0183E0089582E00895009731F0B0
S113164090932A018093290183E0089582E008950C
S1131650009731F0909328018093270183E0089547
S113166082E008951F920F920FB60F9211242F93C8
S11316703F934F935F936F937F938F939F93AF9316
S1131680BF93EF93FF93E0912B01F0912C013097DE
S113169009F00995FF91EF91BF91AF919F918F91BF
S11316A07F916F915F914F913F912F910F900FBE5A
S11316B00F901F9018951F920F920FB60F9211243E
S11316C02F933F934F935F936F937F938F939F9346
S11316D0AF93BF93EF93FF93E0912901F0912A0117
S11316E0309709F00995FF91EF91BF91AF919F91C8
S11316F08F917F916F915F914F913F912F910F90B7
S11317000FBE0F901F9018951F920F920FB60F9255
S113171011242F933F934F935F936F937F938F93F2
S11317209F93AF93BF93EF93FF93E0912701F091C1
S11317302801309709F00995FF91EF91BF91AF917E
S11317409F918F917F916F915F914F913F912F91D5
S11317500F900FBE0F901F9018958FB780688FBFA2
S11317600895FC01892B09F495C18081833008F028
S113177093C19181923008F091C19281923008F026
S11317808FC19381943008F08DC194819A3008F010
S11317908BC181117DC083B7806883BF8181882319
S11317A019F0813041F00DC083B78F7B83BF83B7BD
S11317B0877F83BF06C083B78F7B83BF83B788606F
S11317C083BF8381813069F028F08230A1F08330B7
S11317D0E1F024C083B78F7E83BF83B78F7D83BF3F
S11317E01DC087B3886087BB83B7806183BF83B71D
S11317F08F7D83BF13C087B3886087BB83B78F7E19
S113180083BF83B7806283BF09C087B3886087BB07
S113181083B7806183BF83B7806283BF8481833051
S113182009F444C1853009F443C1A081B0E0A5584E
S1131830BF4F8C93828181110BC08181811104C0BF
S113184089B7816089BF0AC089B7826089BF06C031
S113185089B78E7F89BF89B78D7F89BF858196813E
S11318608F3F910511F008F025C1278130852F3F66
S1131870310511F008F020C12181211104C082BF7B
S11318801CBE86E024C112BE87818CBF86E01FC1C6
S1131890813009F085C08FB588608FBD8FB58460B5
S11318A08FBD8181882319F0813071F019C08FB503
S11318B08E7F8FBD8FB58D7F8FBD8EB5877F8EBD9B
S11318C08EB58F7E8EBD0CC08FB58E7F8FBD8FB5CC
S11318D08D7F8FBD8EB588608EBD8EB58F7E8EBD9B
S11318E08381813069F028F08230A1F08330E1F007
S11318F024C08FB58F7B8FBD8FB58F778FBD1DC0F3
S113190081B3806281BB8FB580648FBD8FB58F77C3
S11319108FBD13C081B3806281BB8FB58F7B8FBDB8
S11319208FB580688FBD09C081B3806281BB8FB5DC
S113193080648FBD8FB580688FBD8481833009F446
S1131940BDC0853009F4BCC0A081B0E0A558BF4F2C
S11319508C93828181110BC08181811104C089B76C
S1131960846089BF0AC089B7806189BF06C089B70E
S11319708B7F89BF89B78F7E89BF8181811108C020
S1131980858196819DBD8CBD1BBC1ABC86E09FC021
S11319901DBC1CBC878190859BBD8ABD86E097C019
S11319A085B5806885BD8181882319F0813041F037
S11319B00DC085B58F7B85BD85B5877F85BD06C088
S11319C085B58F7B85BD85B5886085BD8381813074
S11319D069F028F08230A1F08330E1F024C085B5AD
S11319E08F7E85BD85B58F7D85BD1DC081B3806823
S11319F081BB85B5806185BD85B58F7D85BD13C0EF
S1131A0081B3806881BB85B58F7E85BD85B58062D5
S1131A1085BD09C081B3806881BB85B5806185BD02
S1131A2085B5806285BD848198EF980F923008F463
S1131A3049C0A081B0E0A558BF4F8C938281811129
S1131A400BC08181811104C089B7806489BF0AC039
S1131A5089B7806889BF06C089B78F7B89BF89B77A
S1131A608F7789BF858196818F3F910509F060F555
S1131A70278130852F3F310509F040F5218121115F
S1131A8004C084BD13BC86E022C014BC878183BD1E
S1131A9086E01DC085E01BC080E019C081E017C04E
S1131AA082E015C083E013C084E011C084E00FC05D
S1131AB084E00DC085E00BC085E009C084E007C068
S1131AC084E005C084E003C085E001C085E0863081
S1131AD031F4E081F0E0E75CFE4F91E090830895FB
S1131AE08330F8F4E82FF0E0E75CFE4F908191300A
S1131AF0D1F4813059F018F0823061F016C06F3F94
S1131B00710509F0A0F462BF86E008957DBD6CBD47
S1131B1086E008956F3F710509F058F464BD86E0CE
S1131B20089580E0089588E0089586E0089585E0AA
S1131B30089585E00895833070F5282F30E0F90189
S1131B40E75CFE4F9081913041F56A3040F5813079
S1131B5071F018F08230A9F024C0633021F16530AF
S1131B6021F1F901E558FF4F608386E00895633061
S1131B70F1F06530F1F0F901E558FF4F608386E03C
S1131B80089588EF860F8230B0F0F901E558FF4FD1
S1131B90608386E0089580E0089588E0089584E0F5
S1131BA0089586E0089584E0089584E0089584E02B
S1131BB0089584E0089584E008958330D8F5423090
S1131BC0D8F561157105D1F18130A1F018F082309A
S1131BD009F136C0411106C0709338016093370192
S1131BE086E00895413071F57093320160933101BC
S1131BF086E00895411106C0709336016093350163
S1131C0086E00895413001F57093300160932F010F
S1131C1086E00895411106C0709334016093330146
S1131C2086E00895413091F470932E0160932D0164
S1131C3086E0089580E0089581E0089585E00895A0
S1131C4086E0089586E0089586E0089586E0089584
S1131C50833008F0D4C0E82FF0E0E75CFE4F9081B9
S1131C60913009F0CEC0813009F448C020F08230B0
S1131C7009F487C0C8C080917B008A3008F0C5C0D1
S1131C80833009F4C4C0853009F4C3C090E08A30BD
S1131C90910508F0C0C0FC01E65DFF4F0C94B71C31
S1131CA083B7887F83BF86E0089583B7887F816088
S1131CB083BF86E0089583B7887F826083BF86E010
S1131CC0089583B7887F836083BF86E0089583B7D0
S1131CD0887F846083BF86E0089583B7887F8560AA
S1131CE083BF86E0089583B7887F866083BF86E0DC
S1131CF0089583B7876083BF86E0089580917C0050
S1131D008A3008F08AC0833009F489C0853009F428
S1131D1088C090E08A30910508F085C0FC01EC5C35
S1131D20FF4F0C94B71C8EB5887F8EBD86E0089556
S1131D308EB5887F81608EBD86E008958EB5887FDC
S1131D4082608EBD86E008958EB5887F83608EBDE7
S1131D5086E008958EB5887F84608EBD86E0089500
S1131D608EB5887F85608EBD86E008958EB5887FA8
S1131D7086608EBD86E008958EB587608EBD86E050
S1131D800895E0917D00E83008F04FC08E2F90E078
S1131D908830910508F04BC0FC01E25CFF4F0C94C5
S1131DA0B71C85B5887F85BD86E0089585B5887F95
S1131DB0816085BD86E0089585B5887F826085BD94
S1131DC086E0089585B5887F836085BD86E00895A3
S1131DD085B5887F846085BD86E0089585B5887F54
S1131DE0856085BD86E0089585B5887F866085BD5C
S1131DF086E0089585B5876085BD86E0089580E016
S1131E00089588E0089586E0089584E0089584E0C4
S1131E10089584E0089586E0089584E0089584E0B8
S1131E20089584E0089586E0089584E0089586E0A6
S1131E3008958330E0F4E82FF0E0E75CFE4F9081F2
S1131E409130B9F4813049F018F0823059F013C060
S1131E5083B7887F83BF86E008958EB5887F8EBD63
S1131E6086E0089585B5887F85BD86E0089580E085
S1131E70089588E0089586E00895833010F5E82FEA
S1131E80F0E0E75CFE4F90819130E9F4813059F045
S1131E9018F0823079F019C082B790E0FB01918389
S1131EA0808386E008958CB59DB5FB019183808382
S1131EB086E0089584B590E0FB019183808386E0F9
S1131EC0089580E0089588E0089586E008958330B9
S1131ED008F076C0623008F075C04115510509F468
S1131EE073C0E82FF0E0E75CFE4F9081913009F079
S1131EF06DC0813029F120F0823009F441C068C0FE
S1131F0061110FC008B600FE08C081E0FA018083A9
S1131F1088B7816088BF86E00895FA01108286E060
S1131F20089508B601FE08C081E0FA01808388B7ED
S1131F30826088BF86E00895FA01108286E00895E1
S1131F4061110FC008B602FE08C081E0FA01808367
S1131F5088B7846088BF86E00895FA01108286E01D
S1131F60089508B604FE08C081E0FA01808388B7AA
S1131F70806188BF86E00895FA01108286E00895A2
S1131F8061110FC008B606FE08C081E0FA01808323
S1131F9088B7806488BF86E00895FA01108286E0DD
S1131FA0089508B607FE08C081E0FA01808388B767
S1131FB0806888BF86E00895FA01108286E008955B
S1131FC080E0089581E0089585E0089588E008950B
S1131FD086E008951F920F920FB60F9211242F934B
S1131FE03F934F935F936F937F938F939F93AF939D
S1131FF0BF93EF93FF93E0913701F091380130974D
S113200009F00995FF91EF91BF91AF919F918F9145
S11320107F916F915F914F913F912F910F900FBEE0
S11320200F901F9018951F920F920FB60F921124C4
S11320302F933F934F935F936F937F938F939F93CC
S1132040AF93BF93EF93FF93E0913501F091360185
S1132050309709F00995FF91EF91BF91AF919F914E
S11320608F917F916F915F914F913F912F910F903D
S11320700FBE0F901F9018951F920F920FB60F92DC
S113208011242F933F934F935F936F937F938F9379
S11320909F93AF93BF93EF93FF93E0913301F0913C
S11320A03401309709F00995FF91EF91BF91AF91F9
S11320B09F918F917F916F915F914F913F912F915C
S11320C00F900FBE0F901F9018951F920F920FB68E
S11320D00F9211242F933F934F935F936F937F93AA
S11320E08F939F93AF93BF93EF93FF93E09131014D
S11320F0F0913201309709F00995FF91EF91BF916A
S1132100AF919F918F917F916F915F914F913F918B
S11321102F910F900FBE0F901F9018951F920F9242
S11321200FB60F9211242F933F934F935F936F93A6
S11321307F938F939F93AF93BF93EF93FF93E0911C
S11321402F01F0913001309709F00995FF91EF913B
S1132150BF91AF919F918F917F916F915F914F91BB
S11321603F912F910F900FBE0F901F9018951F92C3
S11321700F920FB60F9211242F933F934F935F93B7
S11321806F937F938F939F93AF93BF93EF93FF933B
S1132190E0912D01F0912E01309709F00995FF91FE
S11321A0EF91BF91AF919F918F917F916F915F91CB
S11321B04F913F912F910F900FBE0F901F90189544
S11321C0CF92DF92EF92FF920F931F936B017C01EA
S11321D0211165C1411169C020E030E040E057E4BD
S11321E00E94ED1A18160CF459C020E030E040E0CB
S11321F052E4C701B6010E94ED1A181634F081E0CA
S113220090E0F8019183808321C420E030E040E82D
S113221053E4C701B6010E94ED1A18163CF088E099
S113222090E0F8019183808381E010C420E030E0E5
S113223040E055E4C701B6010E94ED1A18163CF0BF
S113224080E490E0F8019183808381E0FFC320E083
S113225030E040E056E4C701B6010E94ED1A1816BA
S11322603CF080E091E0F8019183808381E0EEC34B
S113227020E030E040E057E4C701B6010E94ED1AC7
S113228018163CF080E094E0F8019183808381E0AB
S1132290DDC3F8011182108281E0D8C38CED95E092
S11322A0F8019183808381E0D1C3413009F069C092
S11322B020E030E040E05BE40E94ED1A18160CF4D4
S11322C059C020E030E040E056E4C701B6010E9466
S11322D0ED1A181634F081E090E0F80191838083C0
S11322E0B5C320E030E040E857E4C701B6010E94DE
S11322F0ED1A18163CF088E090E0F8019183808391
S113230081E0A4C320E030E040E059E4C701B60115
S11323100E94ED1A18163CF080E490E0F8019183D5
S1132320808381E093C320E030E040E05AE4C701B9
S1132330B6010E94ED1A18163CF080E091E0F80115
S11323409183808381E082C320E030E040E05BE45D
S1132350C701B6010E94ED1A18163CF080E094E023
S1132360F8019183808381E071C3F80111821082A6
S113237081E06CC38CED95E0F8019183808381E06A
S113238065C3423009F05BC320E030E040E057E42D
S11323900E94ED1A18160CF47BC020E030E040E0F7
S11323A052E4C701B6010E94ED1A181634F081E018
S11323B090E0F8019183808349C320E030E040E855
S11323C053E4C701B6010E94ED1A18163CF088E0E8
S11323D090E0F8019183808381E038C320E030E00D
S11323E040E854E4C701B6010E94ED1A18163CF007
S11323F080E290E0F8019183808381E027C320E0AC
S113240030E040E055E4C701B6010E94ED1A181609
S11324103CF080E490E0F8019183808381E016C36E
S113242020E030E040E855E4C701B6010E94ED1A0F
S113243018163CF080E890E0F8019183808381E0F5
S113244005C320E030E040E056E4C701B6010E9435
S1132450ED1A18163CF080E091E0F8019183808336
S113246081E0F4C220E030E040E057E4C701B60167
S11324700E94ED1A18163CF080E094E0F801918374
S1132480808381E0E3C2F8011182108281E0DEC220
S11324908CED95E0F8019183808381E0D7C22130EF
S11324A009F065C1411169C02FE632E143E052E40D
S11324B00E94ED1A18160CF459C02FE632E143E0DD
S11324C05DE3C701B6010E94ED1A181634F081E0ED
S11324D090E0F80191838083B9C22FE632E143E8AA
S11324E05EE3C701B6010E94ED1A18163CF088E0BD
S11324F090E0F8019183808381E0A8C22FE632E165
S113250043E050E4C701B6010E94ED1A18163CF0EE
S113251080E490E0F8019183808381E097C22FE604
S113252032E143E051E4C701B6010E94ED1A1816E6
S11325303CF080E091E0F8019183808381E086C2E1
S11325402FE632E143E052E4C701B6010E94ED1ADE
S113255018163CF080E094E0F8019183808381E0D8
S113256075C2F8011182108281E070C28CED95E091
S1132570F8019183808381E069C2413009F069C028
S11325802FE632E143E056E40E94ED1A18160CF4EB
S113259059C02FE632E143E051E4C701B6010E947D
S11325A0ED1A181634F081E090E0F80191838083ED
S11325B04DC22FE632E143E852E4C701B6010E945E
S11325C0ED1A18163CF088E090E0F80191838083BE
S11325D081E03CC22FE632E143E054E4C701B60196
S11325E00E94ED1A18163CF080E490E0F801918303
S11325F0808381E02BC22FE632E143E055E4C7013A
S1132600B6010E94ED1A18163CF080E091E0F80142
S11326109183808381E01AC22FE632E143E056E4DD
S1132620C701B6010E94ED1A18163CF080E094E050
S1132630F8019183808381E009C2F801118210823C
S113264081E004C28CED95E0F8019183808381E000
S1132650FDC1423009F0F5C12FE632E143E052E416
S11326600E94ED1A18160CF47BC02FE632E143E009
S11326705DE3C701B6010E94ED1A181634F081E03B
S113268090E0F80191838083E1C12FE632E143E8D1
S11326905EE3C701B6010E94ED1A18163CF088E00B
S11326A090E0F8019183808381E0D0C12FE632E18C
S11326B043E85FE3C701B6010E94ED1A18163CF027
S11326C080E290E0F8019183808381E0BFC12FE62E
S11326D032E143E050E4C701B6010E94ED1A181636
S11326E03CF080E490E0F8019183808381E0AEC106
S11326F02FE632E143E850E4C701B6010E94ED1A27
S113270018163CF080E890E0F8019183808381E022
S11327109DC12FE632E143E051E4C701B6010E94B6
S1132720ED1A18163CF080E091E0F8019183808363
S113273081E08CC12FE632E143E052E4C701B601E7
S11327400E94ED1A18163CF080E094E0F8019183A1
S1132750808381E07BC1F8011182108281E076C11F
S11327608CED95E0F8019183808381E06FC1223084
S113277009F069C1411169C02DEB37E346E05DE31F
S11327800E94ED1A18160CF459C02DEB37E346E0FD
S113279058E3C701B6010E94ED1A181634F081E01F
S11327A090E0F8019183808351C12DEB37E346E833
S11327B059E3C701B6010E94ED1A18163CF088E0EF
S11327C090E0F8019183808381E040C12DEB37E3F1
S11327D046E05BE3C701B6010E94ED1A18163CF00F
S11327E080E490E0F8019183808381E02FC12DEB98
S11327F037E346E05CE3C701B6010E94ED1A181600
S11328003CF080E091E0F8019183808381E01EC177
S11328102DEB37E346E05DE3C701B6010E94ED1AF4
S113282018163CF080E094E0F8019183808381E005
S11328300DC1F8011182108281E008C18CED95E090
S1132840F8019183808381E001C1413009F069C0BE
S11328502DEB37E346E051E40E94ED1A18160CF410
S113286059C02DEB37E346E05CE3C701B6010E9493
S1132870ED1A181634F081E090E0F801918380831A
S1132880E5C02DEB37E346E85DE3C701B6010E94DE
S1132890ED1A18163CF088E090E0F80191838083EB
S11328A081E0D4C02DEB37E346E05FE3C701B60116
S11328B00E94ED1A18163CF080E490E0F801918330
S11328C0808381E0C3C02DEB37E346E050E4C701C9
S11328D0B6010E94ED1A18163CF080E091E0F80170
S11328E09183808381E0B2C02DEB37E346E051E46D
S11328F0C701B6010E94ED1A18163CF080E094E07E
S1132900F8019183808381E0A1C0F80111821082D3
S113291081E09CC08CED95E0F8019183808381E097
S113292095C0423009F091C02DEB37E346E05DE3FA
S11329300E94ED1A18160CF47BC02DEB37E346E029
S113294058E3C701B6010E94ED1A181634F081E06D
S113295090E0F8019183808379C02DEB37E346E85A
S113296059E3C701B6010E94ED1A18163CF088E03D
S113297090E0F8019183808381E068C02DEB37E318
S113298046E85AE3C701B6010E94ED1A18163CF056
S113299080E290E0F8019183808381E057C02DEBC1
S11329A037E346E05BE3C701B6010E94ED1A18164F
S11329B03CF080E490E0F8019183808381E046C09C
S11329C02DEB37E346E85BE3C701B6010E94ED1A3D
S11329D018163CF080E890E0F8019183808381E050
S11329E035C02DEB37E346E05CE3C701B6010E9436
S11329F0ED1A18163CF080E091E0F8019183808391
S1132A0081E024C02DEB37E346E05DE3C701B60166
S1132A100E94ED1A18163CF080E094E0F8019183CE
S1132A20808381E013C0F8011182108281E00EC01E
S1132A308CED95E0F8019183808381E007C080E00C
S1132A4005C080E003C080E001C080E01F910F91C9
S1132A50FF90EF90DF90CF900895EF92FF920F9345
S1132A601F9381118AC161117CC040345105A9F1C1
S1132A7038F44130510569F048305105F9F06CC023
S1132A80411581E05807F1F14115544009F44FC054
S1132A9063C0A901980160E070E080E092E40E94C4
S1132AA0801A20E030E040E051E40E944A1C0E9479
S1132AB0641BF7017183608381E01DC5A90198013E
S1132AC060E070E080E893E40E94801A0E94641B36
S1132AD0F7017183608381E00EC5A901980160E06C
S1132AE070E080E095E40E94801A20E030E040E04D
S1132AF05EE30E944A1C0E94641BF7017183608399
S1132B0081E0F9C4A901980160E070E080E096E4F6
S1132B100E94801A20E030E040E05DE30E944A1CFD
S1132B200E94641BF7017183608381E0E4C4A901FE
S1132B30980160E070E080E097E40E94801A20E051
S1132B4030E040E05CE30E944A1C0E94641BF701F1
S1132B507183608381E0CFC4F7011182108280E029
S1132B60CAC4613009F083C040345105E1F138F43E
S1132B704130510571F04830510501F173C04115E0
S1132B80F1E05F0709F444C04115544009F455C00D
S1132B9069C0A90198016FE672E183E09DE30E9498
S1132BA0801A2FE632E143E059E30E94F21A0E94B0
S1132BB0641BF7017183608381E09DC4A9019801BE
S1132BC06FE672E183E89EE30E94801A2FE632E109
S1132BD043E85AE30E94F21A0E94641BF7017183CE
S1132BE0608381E088C4A90198016FE672E183E003
S1132BF090E40E94801A2FE632E143E05CE30E94F5
S1132C00F21A0E94641BF7017183608381E073C42C
S1132C10A90198016FE672E183E091E40E94801AB1
S1132C202FE632E143E05DE30E94F21A0E94641B46
S1132C30F7017183608381E05EC4A90198016FE6A6
S1132C4072E183E092E40E94801A2FE632E143E0CD
S1132C505EE30E94F21A0E94641BF7017183608391
S1132C6081E049C4F7011182108280E044C46230DB
S1132C7009F03AC440345105E1F138F441305105CA
S1132C8071F04830510501F173C04115F1E05F075F
S1132C9009F444C04115544009F455C069C0A90160
S1132CA098016DEB77E386E098E30E94801A2DEBA0
S1132CB037E346E054E30E94F21A0E94641BF701D2
S1132CC07183608381E017C4A90198016DEB77E3F8
S1132CD086E899E30E94801A2DEB37E346E855E332
S1132CE00E94F21A0E94641BF7017183608381E0E1
S1132CF002C4A90198016DEB77E386E09BE30E948F
S1132D00801A2DEB37E346E057E30E94F21A0E9443
S1132D10641BF7017183608381E0EDC3A90198010D
S1132D206DEB77E386E09CE30E94801A2DEB37E39A
S1132D3046E058E30E94F21A0E94641BF701718373
S1132D40608381E0D8C3A90198016DEB77E386E045
S1132D509DE30E94801A2DEB37E346E059E30E947D
S1132D60F21A0E94641BF7017183608381E0C3C37C
S1132D70F7011182108280E0BEC3813009F08AC15C
S1132D8061117CC040345105A9F138F4413051053A
S1132D9069F048305105F9F06CC04115F1E05F0766
S1132DA0F1F14115544009F44FC063C0A9019801E1
S1132DB060E070E080E096E40E94801A20E030E059
S1132DC040E051E40E944A1C0E94641BF701718395
S1132DD0608381E090C3A901980160E070E080E81D
S1132DE097E40E94801A0E94641BF7017183608338
S1132DF081E081C3A901980160E070E080E099E47A
S1132E000E94801A20E030E040E05EE30E944A1C09
S1132E100E94641BF7017183608381E06CC3A90184
S1132E20980160E070E080E09AE40E94801A20E05B
S1132E3030E040E05DE30E944A1C0E94641BF701FD
S1132E407183608381E057C3A901980160E070E059
S1132E5080E09BE40E94801A20E030E040E05CE3E4
S1132E600E944A1C0E94641BF7017183608381E005
S1132E7042C3F7011182108280E03DC3613009F042
S1132E8083C040345105E1F138F44130510571F00B
S1132E904830510501F173C04115F1E05F0709F4B1
S1132EA044C04115544009F455C069C0A9019801B2
S1132EB06FE672E183E091E40E94801A2FE632E12A
S1132EC043E059E30E94F21A0E94641BF7017183E4
S1132ED0608381E010C3A90198016FE672E183E881
S1132EE092E40E94801A2FE632E143E85AE30E94FA
S1132EF0F21A0E94641BF7017183608381E0FBC2B4
S1132F00A90198016FE672E183E094E40E94801ABB
S1132F102FE632E143E05CE30E94F21A0E94641B54
S1132F20F7017183608381E0E6C2A90198016FE62D
S1132F3072E183E095E40E94801A2FE632E143E0D7
S1132F405DE30E94F21A0E94641BF701718360839F
S1132F5081E0D1C2A90198016FE672E183E096E4B1
S1132F600E94801A2FE632E143E05EE30E94F21AE7
S1132F700E94641BF7017183608381E0BCC2F70186
S1132F801182108280E0B7C2623009F0AFC24034CF
S1132F905105E1F138F44130510571F048305105E3
S1132FA001F173C04115F1E05F0709F444C0411514
S1132FB0544009F455C069C0A90198016DEB77E349
S1132FC086E09CE30E94801A2DEB37E346E054E34D
S1132FD00E94F21A0E94641BF7017183608381E0EE
S1132FE08AC2A90198016DEB77E386E89DE30E940C
S1132FF0801A2DEB37E346E855E30E94F21A0E944B
S1133000641BF7017183608381E075C2A901980193
S11330106DEB77E386E09FE30E94801A2DEB37E3A4
S113302046E057E30E94F21A0E94641BF701718381
S1133030608381E060C2A90198016DEB77E386E0CB
S113304090E40E94801A2DEB37E346E058E30E9497
S1133050F21A0E94641BF7017183608381E04BC202
S1133060A90198016DEB77E386E091E40E94801A50
S11330702DEB37E346E059E30E94F21A0E94641BE9
S1133080F7017183608381E036C2F70111821082F7
S113309080E031C2823009F02BC26111B1C04034EA
S11330A0510509F454C058F44830510561F14032D7
S11330B05105C1F14130510509F09DC00FC04115C2
S11330C0F1E05F0709F46DC0411584E0580709F485
S11330D07DC04038510509F08EC04EC0A901980149
S11330E060E070E080E092E40E94801A20E030E02A
S11330F040E051E40E944A1C0E94641BF701718362
S1133100608381E0F8C1A901980160E070E080E883
S113311093E40E94801A0E94641BF7017183608308
S113312081E0E9C1A901980160E070E080E894E4DD
S11331300E94801A20E030E040E85EE30E944A1CCE
S11331400E94641BF7017183608381E0D4C1A901EB
S1133150980160E070E080E095E40E94801A20E02D
S113316030E040E05EE30E944A1C0E94641BF701C9
S11331707183608381E0BFC1A901980160E070E0C0
S113318080E895E40E94801A20E030E040E85DE3A6
S11331900E944A1C0E94641BF7017183608381E0D2
S11331A0AAC1A901980160E070E080E096E40E9461
S11331B0801A20E030E040E05DE30E944A1C0E9457
S11331C0641BF7017183608381E095C1A9019801B3
S11331D060E070E080E097E40E94801A20E030E034
S11331E040E05CE30E944A1C0E94641BF701718367
S11331F0608381E080C1F7011182108280E07BC18D
S1133200613009F0B7C04034510509F45AC058F48C
S11332104830510561F140325105F1F14130510519
S113322009F0A3C00FC04115F1E05F0709F473C0B2
S1133230411584E0580709F483C04038510509F06A
S113324094C054C0A90198016FE672E183E09DE344
S11332500E94801A2FE632E143E059E30E94F21AF9
S11332600E94641BF7017183608381E044C1A9015A
S113327098016FE672E183E89EE30E94801A2FE6CC
S113328032E143E85AE30E94F21A0E94641BF701F8
S11332907183608381E02FC1A90198016FE672E117
S11332A083E89FE30E94801A2FE632E143E85BE360
S11332B00E94F21A0E94641BF7017183608381E00B
S11332C01AC1A90198016FE672E183E090E40E94BB
S11332D0801A2FE632E143E05CE30E94F21A0E9476
S11332E0641BF7017183608381E005C1A901980122
S11332F06FE672E183E890E40E94801A2FE632E1DF
S113330043E85CE30E94F21A0E94641BF701718394
S1133310608381E0F0C0A90198016FE672E183E067
S113332091E40E94801A2FE632E143E05DE30E94BB
S1133330F21A0E94641BF7017183608381E0DBC091
S1133340A90198016FE672E183E092E40E94801A79
S11333502FE632E143E05EE30E94F21A0E94641B0E
S1133360F7017183608381E0C6C0F7011182108286
S113337080E0C1C0623009F0BDC04034510509F499
S11333805AC058F44830510561F140325105F1F109
S11333904130510509F0A3C00FC04115F1E05F07AA
S11333A009F473C0411584E0580709F483C0403818
S11333B0510509F094C054C0A90198016DEB77E35D
S11333C086E098E30E94801A2DEB37E346E054E34D
S11333D00E94F21A0E94641BF7017183608381E0EA
S11333E08AC0A90198016DEB77E386E899E30E940E
S11333F0801A2DEB37E346E855E30E94F21A0E9447
S1133400641BF7017183608381E075C0A901980191
S11334106DEB77E386E89AE30E94801A2DEB37E39D
S113342046E856E30E94F21A0E94641BF701718376
S1133430608381E060C0A90198016DEB77E386E0C9
S11334409BE30E94801A2DEB37E346E057E30E948A
S1133450F21A0E94641BF7017183608381E04BC000
S1133460A90198016DEB77E386E89BE30E94801A3B
S11334702DEB37E346E857E30E94F21A0E94641BDF
S1133480F7017183608381E036C0A90198016DEB77
S113349077E386E09CE30E94801A2DEB37E346E055
S11334A058E30E94F21A0E94641BF701718360833F
S11334B081E021C0A90198016DEB77E386E09DE3EB
S11334C00E94801A2DEB37E346E059E30E94F21A7A
S11334D00E94641BF7017183608381E00CC0F701D3
S11334E01182108280E007C081E005C081E003C042
S11334F080E001C081E01F910F91FF90EF9008954B
S11335005058BB27AA270E94981A0C940B1C0E949F
S1133510FD1B38F00E94041C20F039F49F3F19F47D
S113352026F40C94FA1B0EF4E095E7FB0C94F41BC0
S1133530E92F0E941C1C58F3BA176207730784070B
S1133540950720F079F4A6F50C943E1C0EF4E09552
S11335500B2EBA2FA02D0B01B90190010C01CA0149
S1133560A0011124FF27591B99F0593F50F4503EF4
S113357068F11A16F040A22F232F342F4427585FE6
S1133580F3CF469537952795A795F0405395C9F7FE
S11335907EF41F16BA0B620B730B840BBAF09150B6
S11335A0A1F0FF0FBB1F661F771F881FC2F70EC055
S11335B0BA0F621F731F841F48F487957795679528
S11335C0B795F7959E3F08F0B0CF9395880F08F014
S11335D09927EE0F9795879508950E94D01B08F4BC
S11335E081E008950E94061B0C940B1C0E94041C8D
S11335F058F00E94FD1B40F029F45F3F29F00C9421
S1133600F41B51110C943F1C0C94FA1B0E941C1CBB
S113361068F39923B1F3552391F3951B550BBB27FD
S1133620AA2762177307840738F09F5F5F4F220F42
S1133630331F441FAA1FA9F335D00E2E3AF0E0E839
S113364032D091505040E695001CCAF72BD0FE2F83
S113365029D0660F771F881FBB1F26173707480717
S1133660AB07B0E809F0BB0B802DBF01FF279358CF
S11336705F4F3AF09E3F510578F00C94F41B0C9484
S11336803F1C5F3FE4F3983ED4F3869577956795A6
S1133690B795F7959F5FC9F7880F911D9695879504
S11336A097F90895E1E0660F771F881FBB1F621723
S11336B073078407BA0720F0621B730B840BBA0BE1
S11336C0EE1F88F7E09508950E94241C88F09F5708
S11336D098F0B92F9927B751B0F0E1F0660F771F32
S11336E0881F991F1AF0BA95C9F714C0B13091F028
S11336F00E943E1CB1E008950C943E1C672F782F65
S11337008827B85F39F0B93FCCF3869577956795EC
S1133710B395D9F73EF490958095709561957F4F58
S11337208F4F9F4F0895E89409C097FB3EF49095FE
S11337308095709561957F4F8F4F9F4F9923A9F086
S1133740F92F96E9BB279395F69587957795679515
S1133750B795F111F8CFFAF4BB0F11F460FF1BC059
S11337606F5F7F4F8F4F9F4F16C0882311F096E9EC
S113377011C0772321F09EE8872F762F05C066239A
S113378071F096E8862F70E060E02AF09A95660F53
S1133790771F881FDAF7880F9695879597F908950C
S11337A0990F0008550FAA0BE0E8FEEF161617064E
S11337B0E807F907C0F012161306E407F50798F0B6
S11337C0621B730B840B950B39F40A2661F0232BCF
S11337D0242B252B21F408950A2609F4A140A6954B
S11337E08FEF811D811D089597F99F6780E870E030
S11337F060E008959FEF80EC089500240A94161663
S1133800170618060906089500240A9412161306CA
S1133810140605060895092E0394000C11F4882358
S113382052F0BB0F40F4BF2B11F460FF04C06F5F74
S11338307F4F8F4F9F4F089557FD9058440F551F4A
S113384059F05F3F71F04795880F97FB991F61F01E
S11338509F3F79F087950895121613061406551F95
S1133860F2CF4695F1DF08C0161617061806991F01
S1133870F1CF86957105610508940895E894BB27F6
S113388066277727CB0197F908950E94D01B08F487
S11338908FEF08950E945D1C0C940B1C0E94FD1B6D
S11338A038F00E94041C20F0952311F00C94F41BB2
S11338B00C94FA1B11240C943F1C0E941C1C70F3E2
S11338C0959FC1F3950F50E0551F629FF001729FC1
S11338D0BB27F00DB11D639FAA27F00DB11DAA1FD0
S11338E0649F6627B00DA11D661F829F2227B00D1D
S11338F0A11D621F739FB00DA11D621F839FA00DA8
S1133900611D221F749F3327A00D611D231F849FF7
S1133910600D211D822F762F6A2F11249F5750404E
S11339209AF0F1F088234AF0EE0FFF1FBB1F661FC9
S1133930771F881F91505040A9F79E3F510580F092
S11339400C94F41B0C943F1C5F3FE4F3983ED4F3B7
S1133950869577956795B795F795E7959F5FC1F736
S1133960FE2B880F911D9695879597F90895EE0F74
S1133970FF1F0590F491E02D0994A29FB001B39F1D
S1133980C001A39F700D811D1124911DB29F700D64
S1133990811D1124911D08954532510520F44230B2
S11339A010F00C94D71CFB011082CB010895BB27A7
S11339B04A3031F4992322F4BDE2909581959F4FCA
S11339C00C94E31CBB27FB015527AA27880F991FDA
S11339D0AA1FA41710F0A41B83955051B9F7A05D3A
S11339E0AA3308F0A95DA193009779F7B111B193B7
S11339F01192CB010C94FC1CDC01FC01672F71912A
S1133A007723E1F7329704C07C916D9370836291C0
S10F3A10AE17BF07C8F30895F894FFCF69
S1133A1C0306030701070304030501070302030359
S1133A2C01070300030101070303030A0A0A44699B
S1133A3C733D2000434D00533A006469723A0046CA
S1133A4C57440042574400524854004C46540053C7
S1133A5C544F500064697374616E63653E37300073
S1133A6C37303E64697374616E63653E3330003382
S1133A7C303E64697374616E63653E323000646910
S1133A8C7374616E63653C32300064697374616E87
S10B3A9C63653E3E3E37300035
S9030000FC
